{
  "abi": [
    {
      "inputs": [],
      "stateMutability": "nonpayable",
      "type": "constructor"
    },
    {
      "inputs": [
        {
          "internalType": "address",
          "name": "sender",
          "type": "address"
        },
        {
          "internalType": "uint256",
          "name": "balance",
          "type": "uint256"
        },
        {
          "internalType": "uint256",
          "name": "needed",
          "type": "uint256"
        },
        {
          "internalType": "uint256",
          "name": "tokenId",
          "type": "uint256"
        }
      ],
      "name": "ERC1155InsufficientBalance",
      "type": "error"
    },
    {
      "inputs": [
        {
          "internalType": "address",
          "name": "approver",
          "type": "address"
        }
      ],
      "name": "ERC1155InvalidApprover",
      "type": "error"
    },
    {
      "inputs": [
        {
          "internalType": "uint256",
          "name": "idsLength",
          "type": "uint256"
        },
        {
          "internalType": "uint256",
          "name": "valuesLength",
          "type": "uint256"
        }
      ],
      "name": "ERC1155InvalidArrayLength",
      "type": "error"
    },
    {
      "inputs": [
        {
          "internalType": "address",
          "name": "operator",
          "type": "address"
        }
      ],
      "name": "ERC1155InvalidOperator",
      "type": "error"
    },
    {
      "inputs": [
        {
          "internalType": "address",
          "name": "receiver",
          "type": "address"
        }
      ],
      "name": "ERC1155InvalidReceiver",
      "type": "error"
    },
    {
      "inputs": [
        {
          "internalType": "address",
          "name": "sender",
          "type": "address"
        }
      ],
      "name": "ERC1155InvalidSender",
      "type": "error"
    },
    {
      "inputs": [
        {
          "internalType": "address",
          "name": "operator",
          "type": "address"
        },
        {
          "internalType": "address",
          "name": "owner",
          "type": "address"
        }
      ],
      "name": "ERC1155MissingApprovalForAll",
      "type": "error"
    },
    {
      "inputs": [
        {
          "internalType": "uint256",
          "name": "numerator",
          "type": "uint256"
        },
        {
          "internalType": "uint256",
          "name": "denominator",
          "type": "uint256"
        }
      ],
      "name": "ERC2981InvalidDefaultRoyalty",
      "type": "error"
    },
    {
      "inputs": [
        {
          "internalType": "address",
          "name": "receiver",
          "type": "address"
        }
      ],
      "name": "ERC2981InvalidDefaultRoyaltyReceiver",
      "type": "error"
    },
    {
      "inputs": [
        {
          "internalType": "uint256",
          "name": "tokenId",
          "type": "uint256"
        },
        {
          "internalType": "uint256",
          "name": "numerator",
          "type": "uint256"
        },
        {
          "internalType": "uint256",
          "name": "denominator",
          "type": "uint256"
        }
      ],
      "name": "ERC2981InvalidTokenRoyalty",
      "type": "error"
    },
    {
      "inputs": [
        {
          "internalType": "uint256",
          "name": "tokenId",
          "type": "uint256"
        },
        {
          "internalType": "address",
          "name": "receiver",
          "type": "address"
        }
      ],
      "name": "ERC2981InvalidTokenRoyaltyReceiver",
      "type": "error"
    },
    {
      "inputs": [
        {
          "internalType": "address",
          "name": "owner",
          "type": "address"
        }
      ],
      "name": "OwnableInvalidOwner",
      "type": "error"
    },
    {
      "inputs": [
        {
          "internalType": "address",
          "name": "account",
          "type": "address"
        }
      ],
      "name": "OwnableUnauthorizedAccount",
      "type": "error"
    },
    {
      "anonymous": false,
      "inputs": [
        {
          "indexed": true,
          "internalType": "address",
          "name": "account",
          "type": "address"
        },
        {
          "indexed": true,
          "internalType": "address",
          "name": "operator",
          "type": "address"
        },
        {
          "indexed": false,
          "internalType": "bool",
          "name": "approved",
          "type": "bool"
        }
      ],
      "name": "ApprovalForAll",
      "type": "event"
    },
    {
      "anonymous": false,
      "inputs": [
        {
          "indexed": true,
          "internalType": "address",
          "name": "previousOwner",
          "type": "address"
        },
        {
          "indexed": true,
          "internalType": "address",
          "name": "newOwner",
          "type": "address"
        }
      ],
      "name": "OwnershipTransferred",
      "type": "event"
    },
    {
      "anonymous": false,
      "inputs": [
        {
          "indexed": true,
          "internalType": "address",
          "name": "operator",
          "type": "address"
        },
        {
          "indexed": true,
          "internalType": "address",
          "name": "from",
          "type": "address"
        },
        {
          "indexed": true,
          "internalType": "address",
          "name": "to",
          "type": "address"
        },
        {
          "indexed": false,
          "internalType": "uint256[]",
          "name": "ids",
          "type": "uint256[]"
        },
        {
          "indexed": false,
          "internalType": "uint256[]",
          "name": "values",
          "type": "uint256[]"
        }
      ],
      "name": "TransferBatch",
      "type": "event"
    },
    {
      "anonymous": false,
      "inputs": [
        {
          "indexed": true,
          "internalType": "address",
          "name": "operator",
          "type": "address"
        },
        {
          "indexed": true,
          "internalType": "address",
          "name": "from",
          "type": "address"
        },
        {
          "indexed": true,
          "internalType": "address",
          "name": "to",
          "type": "address"
        },
        {
          "indexed": false,
          "internalType": "uint256",
          "name": "id",
          "type": "uint256"
        },
        {
          "indexed": false,
          "internalType": "uint256",
          "name": "value",
          "type": "uint256"
        }
      ],
      "name": "TransferSingle",
      "type": "event"
    },
    {
      "anonymous": false,
      "inputs": [
        {
          "indexed": false,
          "internalType": "string",
          "name": "value",
          "type": "string"
        },
        {
          "indexed": true,
          "internalType": "uint256",
          "name": "id",
          "type": "uint256"
        }
      ],
      "name": "URI",
      "type": "event"
    },
    {
      "inputs": [],
      "name": "MAX_SUPPLY",
      "outputs": [
        {
          "internalType": "uint256",
          "name": "",
          "type": "uint256"
        }
      ],
      "stateMutability": "view",
      "type": "function"
    },
    {
      "inputs": [],
      "name": "MINT_PRICE",
      "outputs": [
        {
          "internalType": "uint256",
          "name": "",
          "type": "uint256"
        }
      ],
      "stateMutability": "view",
      "type": "function"
    },
    {
      "inputs": [
        {
          "internalType": "address",
          "name": "account",
          "type": "address"
        },
        {
          "internalType": "uint256",
          "name": "id",
          "type": "uint256"
        }
      ],
      "name": "balanceOf",
      "outputs": [
        {
          "internalType": "uint256",
          "name": "",
          "type": "uint256"
        }
      ],
      "stateMutability": "view",
      "type": "function"
    },
    {
      "inputs": [
        {
          "internalType": "address[]",
          "name": "accounts",
          "type": "address[]"
        },
        {
          "internalType": "uint256[]",
          "name": "ids",
          "type": "uint256[]"
        }
      ],
      "name": "balanceOfBatch",
      "outputs": [
        {
          "internalType": "uint256[]",
          "name": "",
          "type": "uint256[]"
        }
      ],
      "stateMutability": "view",
      "type": "function"
    },
    {
      "inputs": [
        {
          "internalType": "address",
          "name": "account",
          "type": "address"
        },
        {
          "internalType": "address",
          "name": "operator",
          "type": "address"
        }
      ],
      "name": "isApprovedForAll",
      "outputs": [
        {
          "internalType": "bool",
          "name": "",
          "type": "bool"
        }
      ],
      "stateMutability": "view",
      "type": "function"
    },
    {
      "inputs": [
        {
          "internalType": "uint256",
          "name": "id",
          "type": "uint256"
        },
        {
          "internalType": "uint256",
          "name": "amount",
          "type": "uint256"
        }
      ],
      "name": "mint",
      "outputs": [],
      "stateMutability": "payable",
      "type": "function"
    },
    {
      "inputs": [],
      "name": "name",
      "outputs": [
        {
          "internalType": "string",
          "name": "",
          "type": "string"
        }
      ],
      "stateMutability": "view",
      "type": "function"
    },
    {
      "inputs": [],
      "name": "owner",
      "outputs": [
        {
          "internalType": "address",
          "name": "",
          "type": "address"
        }
      ],
      "stateMutability": "view",
      "type": "function"
    },
    {
      "inputs": [],
      "name": "renounceOwnership",
      "outputs": [],
      "stateMutability": "nonpayable",
      "type": "function"
    },
    {
      "inputs": [
        {
          "internalType": "uint256",
          "name": "tokenId",
          "type": "uint256"
        },
        {
          "internalType": "uint256",
          "name": "salePrice",
          "type": "uint256"
        }
      ],
      "name": "royaltyInfo",
      "outputs": [
        {
          "internalType": "address",
          "name": "receiver",
          "type": "address"
        },
        {
          "internalType": "uint256",
          "name": "amount",
          "type": "uint256"
        }
      ],
      "stateMutability": "view",
      "type": "function"
    },
    {
      "inputs": [
        {
          "internalType": "address",
          "name": "from",
          "type": "address"
        },
        {
          "internalType": "address",
          "name": "to",
          "type": "address"
        },
        {
          "internalType": "uint256[]",
          "name": "ids",
          "type": "uint256[]"
        },
        {
          "internalType": "uint256[]",
          "name": "values",
          "type": "uint256[]"
        },
        {
          "internalType": "bytes",
          "name": "data",
          "type": "bytes"
        }
      ],
      "name": "safeBatchTransferFrom",
      "outputs": [],
      "stateMutability": "nonpayable",
      "type": "function"
    },
    {
      "inputs": [
        {
          "internalType": "address",
          "name": "from",
          "type": "address"
        },
        {
          "internalType": "address",
          "name": "to",
          "type": "address"
        },
        {
          "internalType": "uint256",
          "name": "id",
          "type": "uint256"
        },
        {
          "internalType": "uint256",
          "name": "value",
          "type": "uint256"
        },
        {
          "internalType": "bytes",
          "name": "data",
          "type": "bytes"
        }
      ],
      "name": "safeTransferFrom",
      "outputs": [],
      "stateMutability": "nonpayable",
      "type": "function"
    },
    {
      "inputs": [
        {
          "internalType": "address",
          "name": "operator",
          "type": "address"
        },
        {
          "internalType": "bool",
          "name": "approved",
          "type": "bool"
        }
      ],
      "name": "setApprovalForAll",
      "outputs": [],
      "stateMutability": "nonpayable",
      "type": "function"
    },
    {
      "inputs": [
        {
          "internalType": "string",
          "name": "newuri",
          "type": "string"
        }
      ],
      "name": "setURI",
      "outputs": [],
      "stateMutability": "nonpayable",
      "type": "function"
    },
    {
      "inputs": [
        {
          "internalType": "bytes4",
          "name": "interfaceId",
          "type": "bytes4"
        }
      ],
      "name": "supportsInterface",
      "outputs": [
        {
          "internalType": "bool",
          "name": "",
          "type": "bool"
        }
      ],
      "stateMutability": "view",
      "type": "function"
    },
    {
      "inputs": [],
      "name": "symbol",
      "outputs": [
        {
          "internalType": "string",
          "name": "",
          "type": "string"
        }
      ],
      "stateMutability": "view",
      "type": "function"
    },
    {
      "inputs": [
        {
          "internalType": "uint256",
          "name": "",
          "type": "uint256"
        }
      ],
      "name": "totalSupply",
      "outputs": [
        {
          "internalType": "uint256",
          "name": "",
          "type": "uint256"
        }
      ],
      "stateMutability": "view",
      "type": "function"
    },
    {
      "inputs": [
        {
          "internalType": "address",
          "name": "newOwner",
          "type": "address"
        }
      ],
      "name": "transferOwnership",
      "outputs": [],
      "stateMutability": "nonpayable",
      "type": "function"
    },
    {
      "inputs": [],
      "name": "treasury",
      "outputs": [
        {
          "internalType": "address payable",
          "name": "",
          "type": "address"
        }
      ],
      "stateMutability": "view",
      "type": "function"
    },
    {
      "inputs": [
        {
          "internalType": "uint256",
          "name": "",
          "type": "uint256"
        }
      ],
      "name": "uri",
      "outputs": [
        {
          "internalType": "string",
          "name": "",
          "type": "string"
        }
      ],
      "stateMutability": "view",
      "type": "function"
    },
    {
      "inputs": [],
      "name": "withdraw",
      "outputs": [],
      "stateMutability": "nonpayable",
      "type": "function"
    }
  ],
  "devdoc": {
    "errors": {
      "ERC1155InsufficientBalance(address,uint256,uint256,uint256)": [
        {
          "details": "Indicates an error related to the current `balance` of a `sender`. Used in transfers.",
          "params": {
            "balance": "Current balance for the interacting account.",
            "needed": "Minimum amount required to perform a transfer.",
            "sender": "Address whose tokens are being transferred.",
            "tokenId": "Identifier number of a token."
          }
        }
      ],
      "ERC1155InvalidApprover(address)": [
        {
          "details": "Indicates a failure with the `approver` of a token to be approved. Used in approvals.",
          "params": {
            "approver": "Address initiating an approval operation."
          }
        }
      ],
      "ERC1155InvalidArrayLength(uint256,uint256)": [
        {
          "details": "Indicates an array length mismatch between ids and values in a safeBatchTransferFrom operation. Used in batch transfers.",
          "params": {
            "idsLength": "Length of the array of token identifiers",
            "valuesLength": "Length of the array of token amounts"
          }
        }
      ],
      "ERC1155InvalidOperator(address)": [
        {
          "details": "Indicates a failure with the `operator` to be approved. Used in approvals.",
          "params": {
            "operator": "Address that may be allowed to operate on tokens without being their owner."
          }
        }
      ],
      "ERC1155InvalidReceiver(address)": [
        {
          "details": "Indicates a failure with the token `receiver`. Used in transfers.",
          "params": {
            "receiver": "Address to which tokens are being transferred."
          }
        }
      ],
      "ERC1155InvalidSender(address)": [
        {
          "details": "Indicates a failure with the token `sender`. Used in transfers.",
          "params": {
            "sender": "Address whose tokens are being transferred."
          }
        }
      ],
      "ERC1155MissingApprovalForAll(address,address)": [
        {
          "details": "Indicates a failure with the `operator`’s approval. Used in transfers.",
          "params": {
            "operator": "Address that may be allowed to operate on tokens without being their owner.",
            "owner": "Address of the current owner of a token."
          }
        }
      ],
      "ERC2981InvalidDefaultRoyalty(uint256,uint256)": [
        {
          "details": "The default royalty set is invalid (eg. (numerator / denominator) >= 1)."
        }
      ],
      "ERC2981InvalidDefaultRoyaltyReceiver(address)": [
        {
          "details": "The default royalty receiver is invalid."
        }
      ],
      "ERC2981InvalidTokenRoyalty(uint256,uint256,uint256)": [
        {
          "details": "The royalty set for a specific `tokenId` is invalid (eg. (numerator / denominator) >= 1)."
        }
      ],
      "ERC2981InvalidTokenRoyaltyReceiver(uint256,address)": [
        {
          "details": "The royalty receiver for `tokenId` is invalid."
        }
      ],
      "OwnableInvalidOwner(address)": [
        {
          "details": "The owner is not a valid owner account. (eg. `address(0)`)"
        }
      ],
      "OwnableUnauthorizedAccount(address)": [
        {
          "details": "The caller account is not authorized to perform an operation."
        }
      ]
    },
    "events": {
      "ApprovalForAll(address,address,bool)": {
        "details": "Emitted when `account` grants or revokes permission to `operator` to transfer their tokens, according to `approved`."
      },
      "TransferBatch(address,address,address,uint256[],uint256[])": {
        "details": "Equivalent to multiple {TransferSingle} events, where `operator`, `from` and `to` are the same for all transfers."
      },
      "TransferSingle(address,address,address,uint256,uint256)": {
        "details": "Emitted when `value` amount of tokens of type `id` are transferred from `from` to `to` by `operator`."
      },
      "URI(string,uint256)": {
        "details": "Emitted when the URI for token type `id` changes to `value`, if it is a non-programmatic URI. If an {URI} event was emitted for `id`, the standard https://eips.ethereum.org/EIPS/eip-1155#metadata-extensions[guarantees] that `value` will equal the value returned by {IERC1155MetadataURI-uri}."
      }
    },
    "kind": "dev",
    "methods": {
      "balanceOf(address,uint256)": {
        "details": "Returns the value of tokens of token type `id` owned by `account`."
      },
      "balanceOfBatch(address[],uint256[])": {
        "details": "See {IERC1155-balanceOfBatch}. Requirements: - `accounts` and `ids` must have the same length."
      },
      "isApprovedForAll(address,address)": {
        "details": "Returns true if `operator` is approved to transfer ``account``'s tokens. See {setApprovalForAll}."
      },
      "mint(uint256,uint256)": {
        "details": "Erlaubt Nutzern, NFTs für eine bestimmte Kapsel zu prägen."
      },
      "owner()": {
        "details": "Returns the address of the current owner."
      },
      "renounceOwnership()": {
        "details": "Leaves the contract without owner. It will not be possible to call `onlyOwner` functions. Can only be called by the current owner. NOTE: Renouncing ownership will leave the contract without an owner, thereby disabling any functionality that is only available to the owner."
      },
      "royaltyInfo(uint256,uint256)": {
        "details": "Returns how much royalty is owed and to whom, based on a sale price that may be denominated in any unit of exchange. The royalty amount is denominated and should be paid in that same unit of exchange. NOTE: ERC-2981 allows setting the royalty to 100% of the price. In that case all the price would be sent to the royalty receiver and 0 tokens to the seller. Contracts dealing with royalty should consider empty transfers."
      },
      "safeBatchTransferFrom(address,address,uint256[],uint256[],bytes)": {
        "details": "xref:ROOT:erc1155.adoc#batch-operations[Batched] version of {safeTransferFrom}. WARNING: This function can potentially allow a reentrancy attack when transferring tokens to an untrusted contract, when invoking {IERC1155Receiver-onERC1155BatchReceived} on the receiver. Ensure to follow the checks-effects-interactions pattern and consider employing reentrancy guards when interacting with untrusted contracts. Emits either a {TransferSingle} or a {TransferBatch} event, depending on the length of the array arguments. Requirements: - `ids` and `values` must have the same length. - If `to` refers to a smart contract, it must implement {IERC1155Receiver-onERC1155BatchReceived} and return the acceptance magic value."
      },
      "safeTransferFrom(address,address,uint256,uint256,bytes)": {
        "details": "Transfers a `value` amount of tokens of type `id` from `from` to `to`. WARNING: This function can potentially allow a reentrancy attack when transferring tokens to an untrusted contract, when invoking {IERC1155Receiver-onERC1155Received} on the receiver. Ensure to follow the checks-effects-interactions pattern and consider employing reentrancy guards when interacting with untrusted contracts. Emits a {TransferSingle} event. Requirements: - `to` cannot be the zero address. - If the caller is not `from`, it must have been approved to spend ``from``'s tokens via {setApprovalForAll}. - `from` must have a balance of tokens of type `id` of at least `value` amount. - If `to` refers to a smart contract, it must implement {IERC1155Receiver-onERC1155Received} and return the acceptance magic value."
      },
      "setApprovalForAll(address,bool)": {
        "details": "Grants or revokes permission to `operator` to transfer the caller's tokens, according to `approved`, Emits an {ApprovalForAll} event. Requirements: - `operator` cannot be the zero address."
      },
      "setURI(string)": {
        "details": "Ermöglicht die Aktualisierung der Metadaten-URL (z.B. für den Reveal)."
      },
      "supportsInterface(bytes4)": {
        "details": "Erforderliche Hilfsfunktion für die Schnittstellen von ERC1155 und ERC2981."
      },
      "transferOwnership(address)": {
        "details": "Transfers ownership of the contract to a new account (`newOwner`). Can only be called by the current owner."
      },
      "uri(uint256)": {
        "details": "See {IERC1155MetadataURI-uri}. This implementation returns the same URI for *all* token types. It relies on the token type ID substitution mechanism https://eips.ethereum.org/EIPS/eip-1155#metadata[defined in the ERC]. Clients calling this function must replace the `\\{id\\}` substring with the actual token type ID."
      },
      "withdraw()": {
        "details": "Überweist das angesammelte ETH vom Contract auf deine gelassen.eth Wallet. Nur du (der Owner) kannst diese Funktion aufrufen."
      }
    },
    "version": 1
  },
  "evm": {
    "assembly": "    /* \"TimeCapsule.sol\":371:414  string public name = \"TimeCapsule Editions\" */\n  0xc0\n    /* \"TimeCapsule.sol\":283:2284  contract TimeCapsule is ERC1155, Ownable, ERC2981 {... */\n  0x40\n    /* \"TimeCapsule.sol\":371:414  string public name = \"TimeCapsule Editions\" */\n  mstore\n  0x14\n    /* \"TimeCapsule.sol\":283:2284  contract TimeCapsule is ERC1155, Ownable, ERC2981 {... */\n  0x80\n    /* \"TimeCapsule.sol\":371:414  string public name = \"TimeCapsule Editions\" */\n  swap1\n  dup2\n  mstore\n  mstore(0xa0, 0x54696d6543617073756c652045646974696f6e73000000000000000000000000)\n  0x06\n  swap1\n  tag_1\n  swap1\n  dup3\n  tag_2\n  jump\t// in\ntag_1:\n  pop\n    /* \"TimeCapsule.sol\":420:448  string public symbol = \"TCE\" */\n  0x40\n  dup1\n  mload\n  dup1\n  dup3\n  add\n  swap1\n  swap2\n  mstore\n  0x03\n  dup2\n  mstore\n  shl(0xe8, 0x544345)\n  0x20\n  dup3\n  add\n  mstore\n  0x07\n  swap1\n  tag_3\n  swap1\n  dup3\n  tag_2\n  jump\t// in\ntag_3:\n  pop\n    /* \"TimeCapsule.sol\":635:720  address payable public treasury = payable(0xAda0fE15a97da69C1B0Dd5Aab21EfD20840f5c72) */\n  0x08\n  dup1\n  sload\n  not(sub(shl(0xa0, 0x01), 0x01))\n  and\n    /* \"TimeCapsule.sol\":677:719  0xAda0fE15a97da69C1B0Dd5Aab21EfD20840f5c72 */\n  0xada0fe15a97da69c1b0dd5aab21efd20840f5c72\n    /* \"TimeCapsule.sol\":635:720  address payable public treasury = payable(0xAda0fE15a97da69C1B0Dd5Aab21EfD20840f5c72) */\n  or\n  swap1\n  sstore\n    /* \"TimeCapsule.sol\":780:988  constructor() ERC1155(\"https://api.timecapsule.com/metadata/{id}\") Ownable(msg.sender) {... */\n  callvalue\n  dup1\n  iszero\n  tag_4\n  jumpi\n  0x00\n  dup1\n  revert\ntag_4:\n  pop\n    /* \"TimeCapsule.sol\":855:865  msg.sender */\n  caller\n    /* \"@openzeppelin/contracts/token/ERC1155/ERC1155.sol\":1249:1311   */\n  mload(0x40)\n  dup1\n  0x60\n  add\n  0x40\n  mstore\n  dup1\n  0x29\n  dup2\n  mstore\n  0x20\n  add\n  data_684cdac285e58b530af47f38625406485df2eb4dc99d1de7b4802817ad6d6670\n  0x29\n  swap2\n  codecopy\n    /* \"@openzeppelin/contracts/token/ERC1155/ERC1155.sol\":1291:1304   */\n  tag_9\n    /* \"@openzeppelin/contracts/token/ERC1155/ERC1155.sol\":1299:1303   */\n  dup2\n    /* \"@openzeppelin/contracts/token/ERC1155/ERC1155.sol\":1291:1298   */\n  tag_10\n    /* \"@openzeppelin/contracts/token/ERC1155/ERC1155.sol\":1291:1304   */\n  jump\t// in\ntag_9:\n  pop\n  sub(shl(0xa0, 0x01), 0x01)\n    /* \"@openzeppelin/contracts/access/Ownable.sol\":1273:1299   */\n  dup2\n  and\n    /* \"@openzeppelin/contracts/access/Ownable.sol\":1269:1364   */\n  tag_12\n  jumpi\n    /* \"@openzeppelin/contracts/access/Ownable.sol\":1322:1353   */\n  mload(0x40)\n  shl(0xe0, 0x1e4fbdf7)\n  dup2\n  mstore\n    /* \"@openzeppelin/contracts/access/Ownable.sol\":1350:1351   */\n  0x00\n    /* \"@openzeppelin/contracts/access/Ownable.sol\":1322:1353   */\n  0x04\n  dup3\n  add\n    /* \"#utility.yul\":2847:2898   */\n  mstore\n    /* \"#utility.yul\":2820:2838   */\n  0x24\n  add\n    /* \"@openzeppelin/contracts/access/Ownable.sol\":1322:1353   */\ntag_13:\n  mload(0x40)\n  dup1\n  swap2\n  sub\n  swap1\n  revert\n    /* \"@openzeppelin/contracts/access/Ownable.sol\":1269:1364   */\ntag_12:\n    /* \"@openzeppelin/contracts/access/Ownable.sol\":1373:1405   */\n  tag_15\n    /* \"@openzeppelin/contracts/access/Ownable.sol\":1392:1404   */\n  dup2\n    /* \"@openzeppelin/contracts/access/Ownable.sol\":1373:1391   */\n  tag_16\n    /* \"@openzeppelin/contracts/access/Ownable.sol\":1373:1405   */\n  jump\t// in\ntag_15:\n  pop\n    /* \"TimeCapsule.sol\":967:975  treasury */\n  sload(0x08)\n    /* \"TimeCapsule.sol\":948:981  _setDefaultRoyalty(treasury, 500) */\n  tag_18\n  swap1\n  sub(shl(0xa0, 0x01), 0x01)\n    /* \"TimeCapsule.sol\":967:975  treasury */\n  and\n    /* \"TimeCapsule.sol\":977:980  500 */\n  0x01f4\n    /* \"TimeCapsule.sol\":948:966  _setDefaultRoyalty */\n  tag_19\n    /* \"TimeCapsule.sol\":948:981  _setDefaultRoyalty(treasury, 500) */\n  jump\t// in\ntag_18:\n    /* \"TimeCapsule.sol\":283:2284  contract TimeCapsule is ERC1155, Ownable, ERC2981 {... */\n  jump(tag_38)\n    /* \"@openzeppelin/contracts/token/ERC1155/ERC1155.sol\":10098:10184   */\ntag_10:\n    /* \"@openzeppelin/contracts/token/ERC1155/ERC1155.sol\":10164:10168   */\n  0x02\n    /* \"@openzeppelin/contracts/token/ERC1155/ERC1155.sol\":10164:10177   */\n  tag_22\n    /* \"@openzeppelin/contracts/token/ERC1155/ERC1155.sol\":10171:10177   */\n  dup3\n    /* \"@openzeppelin/contracts/token/ERC1155/ERC1155.sol\":10164:10168   */\n  dup3\n    /* \"@openzeppelin/contracts/token/ERC1155/ERC1155.sol\":10164:10177   */\n  tag_2\n  jump\t// in\ntag_22:\n  pop\n    /* \"@openzeppelin/contracts/token/ERC1155/ERC1155.sol\":10098:10184   */\n  pop\n  jump\t// out\n    /* \"@openzeppelin/contracts/access/Ownable.sol\":2912:3099   */\ntag_16:\n    /* \"@openzeppelin/contracts/access/Ownable.sol\":3004:3010   */\n  0x03\n  dup1\n  sload\n  sub(shl(0xa0, 0x01), 0x01)\n    /* \"@openzeppelin/contracts/access/Ownable.sol\":3020:3037   */\n  dup4\n  dup2\n  and\n  not(sub(shl(0xa0, 0x01), 0x01))\n  dup4\n  and\n  dup2\n  or\n  swap1\n  swap4\n  sstore\n    /* \"@openzeppelin/contracts/access/Ownable.sol\":3052:3092   */\n  mload(0x40)\n    /* \"@openzeppelin/contracts/access/Ownable.sol\":3004:3010   */\n  swap2\n  and\n  swap2\n    /* \"@openzeppelin/contracts/access/Ownable.sol\":3020:3037   */\n  swap1\n    /* \"@openzeppelin/contracts/access/Ownable.sol\":3004:3010   */\n  dup3\n  swap1\n    /* \"@openzeppelin/contracts/access/Ownable.sol\":3052:3092   */\n  0x8be0079c531659141344cd1fd0a4f28419497f9722a3daafe3b4186f6b6457e0\n  swap1\n    /* \"@openzeppelin/contracts/access/Ownable.sol\":2985:3001   */\n  0x00\n  swap1\n    /* \"@openzeppelin/contracts/access/Ownable.sol\":3052:3092   */\n  log3\n    /* \"@openzeppelin/contracts/access/Ownable.sol\":2975:3099   */\n  pop\n    /* \"@openzeppelin/contracts/access/Ownable.sol\":2912:3099   */\n  pop\n  jump\t// out\n    /* \"@openzeppelin/contracts/token/common/ERC2981.sol\":3618:4125   */\ntag_19:\n    /* \"@openzeppelin/contracts/token/common/ERC2981.sol\":3345:3350   */\n  0x2710\n  sub(shl(0x60, 0x01), 0x01)\n    /* \"@openzeppelin/contracts/token/common/ERC2981.sol\":3765:3791   */\n  dup3\n  and\n  dup2\n  lt\n    /* \"@openzeppelin/contracts/token/common/ERC2981.sol\":3761:3934   */\n  iszero\n  tag_27\n  jumpi\n    /* \"@openzeppelin/contracts/token/common/ERC2981.sol\":3868:3923   */\n  mload(0x40)\n  shl(0xe0, 0x6f483d09)\n  dup2\n  mstore\n  sub(shl(0x60, 0x01), 0x01)\n    /* \"#utility.yul\":3100:3131   */\n  dup4\n  and\n    /* \"@openzeppelin/contracts/token/common/ERC2981.sol\":3868:3923   */\n  0x04\n  dup3\n  add\n    /* \"#utility.yul\":3082:3132   */\n  mstore\n    /* \"#utility.yul\":3148:3166   */\n  0x24\n  dup2\n  add\n    /* \"#utility.yul\":3141:3175   */\n  dup3\n  swap1\n  mstore\n    /* \"#utility.yul\":3055:3073   */\n  0x44\n  add\n    /* \"@openzeppelin/contracts/token/common/ERC2981.sol\":3868:3923   */\n  tag_13\n    /* \"#utility.yul\":2909:3181   */\n  jump\n    /* \"@openzeppelin/contracts/token/common/ERC2981.sol\":3761:3934   */\ntag_27:\n  sub(shl(0xa0, 0x01), 0x01)\n    /* \"@openzeppelin/contracts/token/common/ERC2981.sol\":3947:3969   */\n  dup4\n  and\n    /* \"@openzeppelin/contracts/token/common/ERC2981.sol\":3943:4051   */\n  tag_30\n  jumpi\n    /* \"@openzeppelin/contracts/token/common/ERC2981.sol\":3992:4040   */\n  mload(0x40)\n  shl(0xe1, 0x5b6cc805)\n  dup2\n  mstore\n    /* \"@openzeppelin/contracts/token/common/ERC2981.sol\":4037:4038   */\n  0x00\n    /* \"@openzeppelin/contracts/token/common/ERC2981.sol\":3992:4040   */\n  0x04\n  dup3\n  add\n    /* \"#utility.yul\":2847:2898   */\n  mstore\n    /* \"#utility.yul\":2820:2838   */\n  0x24\n  add\n    /* \"@openzeppelin/contracts/token/common/ERC2981.sol\":3992:4040   */\n  tag_13\n    /* \"#utility.yul\":2701:2904   */\n  jump\n    /* \"@openzeppelin/contracts/token/common/ERC2981.sol\":3943:4051   */\ntag_30:\n  pop\n    /* \"@openzeppelin/contracts/token/common/ERC2981.sol\":4083:4118   */\n  0x40\n  dup1\n  mload\n  dup1\n  dup3\n  add\n  swap1\n  swap2\n  mstore\n  sub(shl(0xa0, 0x01), 0x01)\n  swap1\n  swap3\n  and\n  dup1\n  dup4\n  mstore\n  sub(shl(0x60, 0x01), 0x01)\n  swap1\n  swap2\n  and\n  0x20\n  swap1\n  swap3\n  add\n  dup3\n  swap1\n  mstore\n  shl(0xa0, 0x01)\n    /* \"@openzeppelin/contracts/token/common/ERC2981.sol\":4061:4118   */\n  swap1\n  swap2\n  mul\n  or\n    /* \"@openzeppelin/contracts/token/common/ERC2981.sol\":4061:4080   */\n  0x04\n    /* \"@openzeppelin/contracts/token/common/ERC2981.sol\":4061:4118   */\n  sstore\n    /* \"@openzeppelin/contracts/token/common/ERC2981.sol\":3618:4125   */\n  jump\t// out\n    /* \"#utility.yul\":14:141   */\ntag_33:\n    /* \"#utility.yul\":75:85   */\n  0x4e487b71\n    /* \"#utility.yul\":70:73   */\n  0xe0\n    /* \"#utility.yul\":66:86   */\n  shl\n    /* \"#utility.yul\":63:64   */\n  0x00\n    /* \"#utility.yul\":56:87   */\n  mstore\n    /* \"#utility.yul\":106:110   */\n  0x41\n    /* \"#utility.yul\":103:104   */\n  0x04\n    /* \"#utility.yul\":96:111   */\n  mstore\n    /* \"#utility.yul\":130:134   */\n  0x24\n    /* \"#utility.yul\":127:128   */\n  0x00\n    /* \"#utility.yul\":120:135   */\n  revert\n    /* \"#utility.yul\":146:526   */\ntag_34:\n    /* \"#utility.yul\":225:226   */\n  0x01\n    /* \"#utility.yul\":221:233   */\n  dup2\n  dup2\n  shr\n  swap1\n    /* \"#utility.yul\":268:280   */\n  dup3\n  and\n  dup1\n    /* \"#utility.yul\":289:350   */\n  tag_41\n  jumpi\n    /* \"#utility.yul\":343:347   */\n  0x7f\n    /* \"#utility.yul\":335:341   */\n  dup3\n    /* \"#utility.yul\":331:348   */\n  and\n    /* \"#utility.yul\":321:348   */\n  swap2\n  pop\n    /* \"#utility.yul\":289:350   */\ntag_41:\n    /* \"#utility.yul\":396:398   */\n  0x20\n    /* \"#utility.yul\":388:394   */\n  dup3\n    /* \"#utility.yul\":385:399   */\n  lt\n    /* \"#utility.yul\":365:383   */\n  dup2\n    /* \"#utility.yul\":362:400   */\n  sub\n    /* \"#utility.yul\":359:520   */\n  tag_42\n  jumpi\n    /* \"#utility.yul\":442:452   */\n  0x4e487b71\n    /* \"#utility.yul\":437:440   */\n  0xe0\n    /* \"#utility.yul\":433:453   */\n  shl\n    /* \"#utility.yul\":430:431   */\n  0x00\n    /* \"#utility.yul\":423:454   */\n  mstore\n    /* \"#utility.yul\":477:481   */\n  0x22\n    /* \"#utility.yul\":474:475   */\n  0x04\n    /* \"#utility.yul\":467:482   */\n  mstore\n    /* \"#utility.yul\":505:509   */\n  0x24\n    /* \"#utility.yul\":502:503   */\n  0x00\n    /* \"#utility.yul\":495:510   */\n  revert\n    /* \"#utility.yul\":359:520   */\ntag_42:\n  pop\n    /* \"#utility.yul\":146:526   */\n  swap2\n  swap1\n  pop\n  jump\t// out\n    /* \"#utility.yul\":657:1175   */\ntag_36:\n    /* \"#utility.yul\":759:761   */\n  0x1f\n    /* \"#utility.yul\":754:757   */\n  dup3\n    /* \"#utility.yul\":751:762   */\n  gt\n    /* \"#utility.yul\":748:1169   */\n  iszero\n  tag_45\n  jumpi\n    /* \"#utility.yul\":795:800   */\n  dup1\n    /* \"#utility.yul\":792:793   */\n  0x00\n    /* \"#utility.yul\":785:801   */\n  mstore\n    /* \"#utility.yul\":839:843   */\n  0x20\n    /* \"#utility.yul\":836:837   */\n  0x00\n    /* \"#utility.yul\":826:844   */\n  keccak256\n    /* \"#utility.yul\":909:911   */\n  0x1f\n    /* \"#utility.yul\":897:907   */\n  dup5\n    /* \"#utility.yul\":893:912   */\n  add\n    /* \"#utility.yul\":890:891   */\n  0x05\n    /* \"#utility.yul\":886:913   */\n  shr\n    /* \"#utility.yul\":880:884   */\n  dup2\n    /* \"#utility.yul\":876:914   */\n  add\n    /* \"#utility.yul\":945:949   */\n  0x20\n    /* \"#utility.yul\":933:943   */\n  dup6\n    /* \"#utility.yul\":930:950   */\n  lt\n    /* \"#utility.yul\":927:974   */\n  iszero\n  tag_46\n  jumpi\n  pop\n    /* \"#utility.yul\":968:972   */\n  dup1\n    /* \"#utility.yul\":927:974   */\ntag_46:\n    /* \"#utility.yul\":1023:1025   */\n  0x1f\n    /* \"#utility.yul\":1018:1021   */\n  dup5\n    /* \"#utility.yul\":1014:1026   */\n  add\n    /* \"#utility.yul\":1011:1012   */\n  0x05\n    /* \"#utility.yul\":1007:1027   */\n  shr\n    /* \"#utility.yul\":1001:1005   */\n  dup3\n    /* \"#utility.yul\":997:1028   */\n  add\n    /* \"#utility.yul\":987:1028   */\n  swap2\n  pop\n    /* \"#utility.yul\":1078:1159   */\ntag_47:\n    /* \"#utility.yul\":1096:1098   */\n  dup2\n    /* \"#utility.yul\":1089:1094   */\n  dup2\n    /* \"#utility.yul\":1086:1099   */\n  lt\n    /* \"#utility.yul\":1078:1159   */\n  iszero\n  tag_49\n  jumpi\n    /* \"#utility.yul\":1155:1156   */\n  0x00\n    /* \"#utility.yul\":1141:1157   */\n  dup2\n  sstore\n    /* \"#utility.yul\":1122:1123   */\n  0x01\n    /* \"#utility.yul\":1111:1124   */\n  add\n    /* \"#utility.yul\":1078:1159   */\n  jump(tag_47)\ntag_49:\n    /* \"#utility.yul\":1082:1085   */\n  pop\n  pop\n    /* \"#utility.yul\":748:1169   */\ntag_45:\n    /* \"#utility.yul\":657:1175   */\n  pop\n  pop\n  pop\n  jump\t// out\n    /* \"#utility.yul\":1351:2696   */\ntag_2:\n    /* \"#utility.yul\":1471:1481   */\n  dup2\n  mload\n  sub(shl(0x40, 0x01), 0x01)\n    /* \"#utility.yul\":1493:1523   */\n  dup2\n  gt\n    /* \"#utility.yul\":1490:1546   */\n  iszero\n  tag_53\n  jumpi\n    /* \"#utility.yul\":1526:1544   */\n  tag_53\n  tag_33\n  jump\t// in\ntag_53:\n    /* \"#utility.yul\":1555:1652   */\n  tag_54\n    /* \"#utility.yul\":1645:1651   */\n  dup2\n    /* \"#utility.yul\":1605:1643   */\n  tag_55\n    /* \"#utility.yul\":1637:1641   */\n  dup5\n    /* \"#utility.yul\":1631:1642   */\n  sload\n    /* \"#utility.yul\":1605:1643   */\n  tag_34\n  jump\t// in\ntag_55:\n    /* \"#utility.yul\":1599:1603   */\n  dup5\n    /* \"#utility.yul\":1555:1652   */\n  tag_36\n  jump\t// in\ntag_54:\n    /* \"#utility.yul\":1707:1711   */\n  0x20\n  dup1\n    /* \"#utility.yul\":1764:1766   */\n  0x1f\n    /* \"#utility.yul\":1753:1767   */\n  dup4\n  gt\n    /* \"#utility.yul\":1781:1782   */\n  0x01\n    /* \"#utility.yul\":1776:2439   */\n  dup2\n  eq\n  tag_57\n  jumpi\n    /* \"#utility.yul\":2483:2484   */\n  0x00\n    /* \"#utility.yul\":2500:2506   */\n  dup5\n    /* \"#utility.yul\":2497:2586   */\n  iszero\n  tag_58\n  jumpi\n  pop\n    /* \"#utility.yul\":2552:2571   */\n  dup6\n  dup4\n  add\n    /* \"#utility.yul\":2546:2572   */\n  mload\n    /* \"#utility.yul\":2497:2586   */\ntag_58:\n  not(0x00)\n    /* \"#utility.yul\":1308:1309   */\n  0x03\n    /* \"#utility.yul\":1304:1315   */\n  dup7\n  swap1\n  shl\n    /* \"#utility.yul\":1300:1324   */\n  shr\n    /* \"#utility.yul\":1296:1325   */\n  not\n    /* \"#utility.yul\":1286:1326   */\n  and\n    /* \"#utility.yul\":1332:1333   */\n  0x01\n    /* \"#utility.yul\":1328:1339   */\n  dup6\n  swap1\n  shl\n    /* \"#utility.yul\":1283:1340   */\n  or\n    /* \"#utility.yul\":2599:2680   */\n  dup6\n  sstore\n    /* \"#utility.yul\":1746:2690   */\n  jump(tag_56)\n    /* \"#utility.yul\":1776:2439   */\ntag_57:\n    /* \"#utility.yul\":604:605   */\n  0x00\n    /* \"#utility.yul\":597:611   */\n  dup6\n  dup2\n  mstore\n    /* \"#utility.yul\":641:645   */\n  0x20\n    /* \"#utility.yul\":628:646   */\n  dup2\n  keccak256\n  not(0x1f)\n    /* \"#utility.yul\":1812:1832   */\n  dup7\n  and\n  swap2\n    /* \"#utility.yul\":1930:2166   */\ntag_61:\n    /* \"#utility.yul\":1944:1951   */\n  dup3\n    /* \"#utility.yul\":1941:1942   */\n  dup2\n    /* \"#utility.yul\":1938:1952   */\n  lt\n    /* \"#utility.yul\":1930:2166   */\n  iszero\n  tag_63\n  jumpi\n    /* \"#utility.yul\":2033:2052   */\n  dup9\n  dup7\n  add\n    /* \"#utility.yul\":2027:2053   */\n  mload\n    /* \"#utility.yul\":2012:2054   */\n  dup3\n  sstore\n    /* \"#utility.yul\":2125:2152   */\n  swap5\n  dup5\n  add\n  swap5\n    /* \"#utility.yul\":2093:2094   */\n  0x01\n    /* \"#utility.yul\":2081:2095   */\n  swap1\n  swap2\n  add\n  swap1\n    /* \"#utility.yul\":1960:1979   */\n  dup5\n  add\n    /* \"#utility.yul\":1930:2166   */\n  jump(tag_61)\ntag_63:\n    /* \"#utility.yul\":1934:1937   */\n  pop\n    /* \"#utility.yul\":2194:2200   */\n  dup6\n    /* \"#utility.yul\":2185:2192   */\n  dup3\n    /* \"#utility.yul\":2182:2201   */\n  lt\n    /* \"#utility.yul\":2179:2380   */\n  iszero\n  tag_64\n  jumpi\n    /* \"#utility.yul\":2255:2274   */\n  dup8\n  dup6\n  add\n    /* \"#utility.yul\":2249:2275   */\n  mload\n  not(0x00)\n    /* \"#utility.yul\":2338:2339   */\n  0x03\n    /* \"#utility.yul\":2334:2348   */\n  dup9\n  swap1\n  shl\n    /* \"#utility.yul\":2350:2353   */\n  0xf8\n    /* \"#utility.yul\":2330:2354   */\n  and\n    /* \"#utility.yul\":2326:2363   */\n  shr\n    /* \"#utility.yul\":2322:2364   */\n  not\n    /* \"#utility.yul\":2307:2365   */\n  and\n    /* \"#utility.yul\":2292:2366   */\n  dup2\n  sstore\n    /* \"#utility.yul\":2179:2380   */\ntag_64:\n  pop\n  pop\n    /* \"#utility.yul\":2426:2427   */\n  0x01\n    /* \"#utility.yul\":2417:2423   */\n  dup5\n    /* \"#utility.yul\":2414:2415   */\n  0x01\n    /* \"#utility.yul\":2410:2424   */\n  shl\n    /* \"#utility.yul\":2406:2428   */\n  add\n    /* \"#utility.yul\":2400:2404   */\n  dup6\n    /* \"#utility.yul\":2393:2429   */\n  sstore\n    /* \"#utility.yul\":1746:2690   */\ntag_56:\n  pop\n  pop\n  pop\n  pop\n    /* \"#utility.yul\":1351:2696   */\n  pop\n  pop\n  jump\t// out\n    /* \"#utility.yul\":2909:3181   */\ntag_38:\n    /* \"TimeCapsule.sol\":283:2284  contract TimeCapsule is ERC1155, Ownable, ERC2981 {... */\n  dataSize(sub_0)\n  dup1\n  dataOffset(sub_0)\n  0x00\n  codecopy\n  0x00\n  return\nstop\ndata_684cdac285e58b530af47f38625406485df2eb4dc99d1de7b4802817ad6d6670 68747470733a2f2f6170692e74696d6563617073756c652e636f6d2f6d657461646174612f7b69647d\n\nsub_0: assembly {\n        /* \"TimeCapsule.sol\":283:2284  contract TimeCapsule is ERC1155, Ownable, ERC2981 {... */\n      mstore(0x40, 0x80)\n      jumpi(tag_1, lt(calldatasize, 0x04))\n      shr(0xe0, calldataload(0x00))\n      dup1\n      0x4e1273f4\n      gt\n      tag_23\n      jumpi\n      dup1\n      0xa22cb465\n      gt\n      tag_24\n      jumpi\n      dup1\n      0xe985e9c5\n      gt\n      tag_25\n      jumpi\n      dup1\n      0xe985e9c5\n      eq\n      tag_20\n      jumpi\n      dup1\n      0xf242432a\n      eq\n      tag_21\n      jumpi\n      dup1\n      0xf2fde38b\n      eq\n      tag_22\n      jumpi\n      0x00\n      dup1\n      revert\n    tag_25:\n      dup1\n      0xa22cb465\n      eq\n      tag_17\n      jumpi\n      dup1\n      0xbd85b039\n      eq\n      tag_18\n      jumpi\n      dup1\n      0xc002d23d\n      eq\n      tag_19\n      jumpi\n      0x00\n      dup1\n      revert\n    tag_24:\n      dup1\n      0x715018a6\n      gt\n      tag_26\n      jumpi\n      dup1\n      0x715018a6\n      eq\n      tag_14\n      jumpi\n      dup1\n      0x8da5cb5b\n      eq\n      tag_15\n      jumpi\n      dup1\n      0x95d89b41\n      eq\n      tag_16\n      jumpi\n      0x00\n      dup1\n      revert\n    tag_26:\n      dup1\n      0x4e1273f4\n      eq\n      tag_12\n      jumpi\n      dup1\n      0x61d027b3\n      eq\n      tag_13\n      jumpi\n      0x00\n      dup1\n      revert\n    tag_23:\n      dup1\n      0x1b2ef1ca\n      gt\n      tag_27\n      jumpi\n      dup1\n      0x2eb2c2d6\n      gt\n      tag_28\n      jumpi\n      dup1\n      0x2eb2c2d6\n      eq\n      tag_9\n      jumpi\n      dup1\n      0x32cb6b0c\n      eq\n      tag_10\n      jumpi\n      dup1\n      0x3ccfd60b\n      eq\n      tag_11\n      jumpi\n      0x00\n      dup1\n      revert\n    tag_28:\n      dup1\n      0x1b2ef1ca\n      eq\n      tag_7\n      jumpi\n      dup1\n      0x2a55205a\n      eq\n      tag_8\n      jumpi\n      0x00\n      dup1\n      revert\n    tag_27:\n      dup1\n      0x02fe5305\n      gt\n      tag_29\n      jumpi\n      dup1\n      0x02fe5305\n      eq\n      tag_4\n      jumpi\n      dup1\n      0x06fdde03\n      eq\n      tag_5\n      jumpi\n      dup1\n      0x0e89341c\n      eq\n      tag_6\n      jumpi\n      0x00\n      dup1\n      revert\n    tag_29:\n      dup1\n      0xfdd58e\n      eq\n      tag_2\n      jumpi\n      dup1\n      0x01ffc9a7\n      eq\n      tag_3\n      jumpi\n    tag_1:\n      0x00\n      dup1\n      revert\n        /* \"@openzeppelin/contracts/token/ERC1155/ERC1155.sol\":2187:2319   */\n    tag_2:\n      callvalue\n      dup1\n      iszero\n      tag_30\n      jumpi\n      0x00\n      dup1\n      revert\n    tag_30:\n      pop\n      tag_31\n      tag_32\n      calldatasize\n      0x04\n      tag_33\n      jump\t// in\n    tag_32:\n      tag_34\n      jump\t// in\n    tag_31:\n      mload(0x40)\n        /* \"#utility.yul\":620:645   */\n      swap1\n      dup2\n      mstore\n        /* \"#utility.yul\":608:610   */\n      0x20\n        /* \"#utility.yul\":593:611   */\n      add\n        /* \"@openzeppelin/contracts/token/ERC1155/ERC1155.sol\":2187:2319   */\n    tag_35:\n      mload(0x40)\n      dup1\n      swap2\n      sub\n      swap1\n      return\n        /* \"TimeCapsule.sol\":2113:2282  function supportsInterface(bytes4 interfaceId) public view virtual override(ERC1155, ERC2981) returns (bool) {... */\n    tag_3:\n      callvalue\n      dup1\n      iszero\n      tag_37\n      jumpi\n      0x00\n      dup1\n      revert\n    tag_37:\n      pop\n      tag_38\n      tag_39\n      calldatasize\n      0x04\n      tag_40\n      jump\t// in\n    tag_39:\n      tag_41\n      jump\t// in\n    tag_38:\n      mload(0x40)\n        /* \"#utility.yul\":1207:1221   */\n      swap1\n      iszero\n        /* \"#utility.yul\":1200:1222   */\n      iszero\n        /* \"#utility.yul\":1182:1223   */\n      dup2\n      mstore\n        /* \"#utility.yul\":1170:1172   */\n      0x20\n        /* \"#utility.yul\":1155:1173   */\n      add\n        /* \"TimeCapsule.sol\":2113:2282  function supportsInterface(bytes4 interfaceId) public view virtual override(ERC1155, ERC2981) returns (bool) {... */\n      tag_35\n        /* \"#utility.yul\":1042:1229   */\n      jump\n        /* \"TimeCapsule.sol\":1913:2002  function setURI(string memory newuri) external onlyOwner {... */\n    tag_4:\n      callvalue\n      dup1\n      iszero\n      tag_44\n      jumpi\n      0x00\n      dup1\n      revert\n    tag_44:\n      pop\n      tag_45\n      tag_46\n      calldatasize\n      0x04\n      tag_47\n      jump\t// in\n    tag_46:\n      tag_48\n      jump\t// in\n    tag_45:\n      stop\n        /* \"TimeCapsule.sol\":371:414  string public name = \"TimeCapsule Editions\" */\n    tag_5:\n      callvalue\n      dup1\n      iszero\n      tag_49\n      jumpi\n      0x00\n      dup1\n      revert\n    tag_49:\n      pop\n      tag_50\n      tag_51\n      jump\t// in\n    tag_50:\n      mload(0x40)\n      tag_35\n      swap2\n      swap1\n      tag_53\n      jump\t// in\n        /* \"@openzeppelin/contracts/token/ERC1155/ERC1155.sol\":2049:2152   */\n    tag_6:\n      callvalue\n      dup1\n      iszero\n      tag_54\n      jumpi\n      0x00\n      dup1\n      revert\n    tag_54:\n      pop\n      tag_50\n      tag_56\n      calldatasize\n      0x04\n      tag_57\n      jump\t// in\n    tag_56:\n      tag_58\n      jump\t// in\n        /* \"TimeCapsule.sol\":1083:1382  function mint(uint256 id, uint256 amount) external payable {... */\n    tag_7:\n      tag_45\n      tag_61\n      calldatasize\n      0x04\n      tag_62\n      jump\t// in\n    tag_61:\n      tag_63\n      jump\t// in\n        /* \"@openzeppelin/contracts/token/common/ERC2981.sol\":2330:2987   */\n    tag_8:\n      callvalue\n      dup1\n      iszero\n      tag_64\n      jumpi\n      0x00\n      dup1\n      revert\n    tag_64:\n      pop\n      tag_65\n      tag_66\n      calldatasize\n      0x04\n      tag_62\n      jump\t// in\n    tag_66:\n      tag_67\n      jump\t// in\n    tag_65:\n      0x40\n      dup1\n      mload\n      sub(shl(0xa0, 0x01), 0x01)\n        /* \"#utility.yul\":3663:3718   */\n      swap1\n      swap4\n      and\n        /* \"#utility.yul\":3645:3719   */\n      dup4\n      mstore\n        /* \"#utility.yul\":3750:3752   */\n      0x20\n        /* \"#utility.yul\":3735:3753   */\n      dup4\n      add\n        /* \"#utility.yul\":3728:3762   */\n      swap2\n      swap1\n      swap2\n      mstore\n        /* \"#utility.yul\":3618:3636   */\n      add\n        /* \"@openzeppelin/contracts/token/common/ERC2981.sol\":2330:2987   */\n      tag_35\n        /* \"#utility.yul\":3471:3768   */\n      jump\n        /* \"@openzeppelin/contracts/token/ERC1155/ERC1155.sol\":3820:4249   */\n    tag_9:\n      callvalue\n      dup1\n      iszero\n      tag_70\n      jumpi\n      0x00\n      dup1\n      revert\n    tag_70:\n      pop\n      tag_45\n      tag_72\n      calldatasize\n      0x04\n      tag_73\n      jump\t// in\n    tag_72:\n      tag_74\n      jump\t// in\n        /* \"TimeCapsule.sol\":454:494  uint256 public constant MAX_SUPPLY = 100 */\n    tag_10:\n      callvalue\n      dup1\n      iszero\n      tag_75\n      jumpi\n      0x00\n      dup1\n      revert\n    tag_75:\n      pop\n      tag_31\n        /* \"TimeCapsule.sol\":491:494  100 */\n      0x64\n        /* \"TimeCapsule.sol\":454:494  uint256 public constant MAX_SUPPLY = 100 */\n      dup2\n      jump\n        /* \"TimeCapsule.sol\":1550:1806  function withdraw() external onlyOwner {... */\n    tag_11:\n      callvalue\n      dup1\n      iszero\n      tag_79\n      jumpi\n      0x00\n      dup1\n      revert\n    tag_79:\n      pop\n      tag_45\n      tag_81\n      jump\t// in\n        /* \"@openzeppelin/contracts/token/ERC1155/ERC1155.sol\":2476:3028   */\n    tag_12:\n      callvalue\n      dup1\n      iszero\n      tag_82\n      jumpi\n      0x00\n      dup1\n      revert\n    tag_82:\n      pop\n      tag_83\n      tag_84\n      calldatasize\n      0x04\n      tag_85\n      jump\t// in\n    tag_84:\n      tag_86\n      jump\t// in\n    tag_83:\n      mload(0x40)\n      tag_35\n      swap2\n      swap1\n      tag_88\n      jump\t// in\n        /* \"TimeCapsule.sol\":635:720  address payable public treasury = payable(0xAda0fE15a97da69C1B0Dd5Aab21EfD20840f5c72) */\n    tag_13:\n      callvalue\n      dup1\n      iszero\n      tag_89\n      jumpi\n      0x00\n      dup1\n      revert\n    tag_89:\n      pop\n      sload(0x08)\n      tag_90\n      swap1\n      sub(shl(0xa0, 0x01), 0x01)\n      and\n      dup2\n      jump\n    tag_90:\n      mload(0x40)\n      sub(shl(0xa0, 0x01), 0x01)\n        /* \"#utility.yul\":7849:7904   */\n      swap1\n      swap2\n      and\n        /* \"#utility.yul\":7831:7905   */\n      dup2\n      mstore\n        /* \"#utility.yul\":7819:7821   */\n      0x20\n        /* \"#utility.yul\":7804:7822   */\n      add\n        /* \"TimeCapsule.sol\":635:720  address payable public treasury = payable(0xAda0fE15a97da69C1B0Dd5Aab21EfD20840f5c72) */\n      tag_35\n        /* \"#utility.yul\":7669:7911   */\n      jump\n        /* \"@openzeppelin/contracts/access/Ownable.sol\":2293:2394   */\n    tag_14:\n      callvalue\n      dup1\n      iszero\n      tag_94\n      jumpi\n      0x00\n      dup1\n      revert\n    tag_94:\n      pop\n      tag_45\n      tag_96\n      jump\t// in\n        /* \"@openzeppelin/contracts/access/Ownable.sol\":1638:1723   */\n    tag_15:\n      callvalue\n      dup1\n      iszero\n      tag_97\n      jumpi\n      0x00\n      dup1\n      revert\n    tag_97:\n      pop\n        /* \"@openzeppelin/contracts/access/Ownable.sol\":1710:1716   */\n      and(sub(shl(0xa0, 0x01), 0x01), sload(0x03))\n        /* \"@openzeppelin/contracts/access/Ownable.sol\":1638:1723   */\n      jump(tag_90)\n        /* \"TimeCapsule.sol\":420:448  string public symbol = \"TCE\" */\n    tag_16:\n      callvalue\n      dup1\n      iszero\n      tag_102\n      jumpi\n      0x00\n      dup1\n      revert\n    tag_102:\n      pop\n      tag_50\n      tag_104\n      jump\t// in\n        /* \"@openzeppelin/contracts/token/ERC1155/ERC1155.sol\":3063:3207   */\n    tag_17:\n      callvalue\n      dup1\n      iszero\n      tag_106\n      jumpi\n      0x00\n      dup1\n      revert\n    tag_106:\n      pop\n      tag_45\n      tag_108\n      calldatasize\n      0x04\n      tag_109\n      jump\t// in\n    tag_108:\n      tag_110\n      jump\t// in\n        /* \"TimeCapsule.sol\":727:773  mapping(uint256 => uint256) public totalSupply */\n    tag_18:\n      callvalue\n      dup1\n      iszero\n      tag_111\n      jumpi\n      0x00\n      dup1\n      revert\n    tag_111:\n      pop\n      tag_31\n      tag_113\n      calldatasize\n      0x04\n      tag_57\n      jump\t// in\n    tag_113:\n      mstore(0x20, 0x09)\n      0x00\n      swap1\n      dup2\n      mstore\n      0x40\n      swap1\n      keccak256\n      sload\n      dup2\n      jump\n        /* \"TimeCapsule.sol\":500:551  uint256 public constant MINT_PRICE = 0.000777 ether */\n    tag_19:\n      callvalue\n      dup1\n      iszero\n      tag_116\n      jumpi\n      0x00\n      dup1\n      revert\n    tag_116:\n      pop\n      tag_31\n        /* \"TimeCapsule.sol\":537:551  0.000777 ether */\n      0x02c2ad68fd9000\n        /* \"TimeCapsule.sol\":500:551  uint256 public constant MINT_PRICE = 0.000777 ether */\n      dup2\n      jump\n        /* \"@openzeppelin/contracts/token/ERC1155/ERC1155.sol\":3242:3399   */\n    tag_20:\n      callvalue\n      dup1\n      iszero\n      tag_120\n      jumpi\n      0x00\n      dup1\n      revert\n    tag_120:\n      pop\n      tag_38\n      tag_122\n      calldatasize\n      0x04\n      tag_123\n      jump\t// in\n    tag_122:\n      sub(shl(0xa0, 0x01), 0x01)\n        /* \"@openzeppelin/contracts/token/ERC1155/ERC1155.sol\":3355:3382   */\n      swap2\n      dup3\n      and\n        /* \"@openzeppelin/contracts/token/ERC1155/ERC1155.sol\":3332:3336   */\n      0x00\n        /* \"@openzeppelin/contracts/token/ERC1155/ERC1155.sol\":3355:3382   */\n      swap1\n      dup2\n      mstore\n        /* \"@openzeppelin/contracts/token/ERC1155/ERC1155.sol\":3355:3373   */\n      0x01\n        /* \"@openzeppelin/contracts/token/ERC1155/ERC1155.sol\":3355:3382   */\n      0x20\n      swap1\n      dup2\n      mstore\n      0x40\n      dup1\n      dup4\n      keccak256\n        /* \"@openzeppelin/contracts/token/ERC1155/ERC1155.sol\":3355:3392   */\n      swap4\n      swap1\n      swap5\n      and\n      dup3\n      mstore\n      swap2\n      swap1\n      swap2\n      mstore\n      keccak256\n      sload\n      0xff\n      and\n      swap1\n        /* \"@openzeppelin/contracts/token/ERC1155/ERC1155.sol\":3242:3399   */\n      jump\n        /* \"@openzeppelin/contracts/token/ERC1155/ERC1155.sol\":3434:3785   */\n    tag_21:\n      callvalue\n      dup1\n      iszero\n      tag_126\n      jumpi\n      0x00\n      dup1\n      revert\n    tag_126:\n      pop\n      tag_45\n      tag_128\n      calldatasize\n      0x04\n      tag_129\n      jump\t// in\n    tag_128:\n      tag_130\n      jump\t// in\n        /* \"@openzeppelin/contracts/access/Ownable.sol\":2543:2758   */\n    tag_22:\n      callvalue\n      dup1\n      iszero\n      tag_131\n      jumpi\n      0x00\n      dup1\n      revert\n    tag_131:\n      pop\n      tag_45\n      tag_133\n      calldatasize\n      0x04\n      tag_134\n      jump\t// in\n    tag_133:\n      tag_135\n      jump\t// in\n        /* \"@openzeppelin/contracts/token/ERC1155/ERC1155.sol\":2187:2319   */\n    tag_34:\n        /* \"@openzeppelin/contracts/token/ERC1155/ERC1155.sol\":2264:2271   */\n      0x00\n        /* \"@openzeppelin/contracts/token/ERC1155/ERC1155.sol\":2290:2303   */\n      dup2\n      dup2\n      mstore\n      0x20\n      dup2\n      dup2\n      mstore\n      0x40\n      dup1\n      dup4\n      keccak256\n      sub(shl(0xa0, 0x01), 0x01)\n        /* \"@openzeppelin/contracts/token/ERC1155/ERC1155.sol\":2290:2312   */\n      dup7\n      and\n      dup5\n      mstore\n      swap1\n      swap2\n      mstore\n      swap1\n      keccak256\n      sload\n        /* \"@openzeppelin/contracts/token/ERC1155/ERC1155.sol\":2187:2319   */\n    tag_136:\n      swap3\n      swap2\n      pop\n      pop\n      jump\t// out\n        /* \"TimeCapsule.sol\":2113:2282  function supportsInterface(bytes4 interfaceId) public view virtual override(ERC1155, ERC2981) returns (bool) {... */\n    tag_41:\n        /* \"TimeCapsule.sol\":2216:2220  bool */\n      0x00\n        /* \"TimeCapsule.sol\":2239:2275  super.supportsInterface(interfaceId) */\n      tag_136\n        /* \"TimeCapsule.sol\":2263:2274  interfaceId */\n      dup3\n        /* \"TimeCapsule.sol\":2239:2262  super.supportsInterface */\n      tag_139\n        /* \"TimeCapsule.sol\":2239:2275  super.supportsInterface(interfaceId) */\n      jump\t// in\n        /* \"TimeCapsule.sol\":1913:2002  function setURI(string memory newuri) external onlyOwner {... */\n    tag_48:\n        /* \"@openzeppelin/contracts/access/Ownable.sol\":1531:1544   */\n      tag_141\n        /* \"@openzeppelin/contracts/access/Ownable.sol\":1531:1542   */\n      tag_142\n        /* \"@openzeppelin/contracts/access/Ownable.sol\":1531:1544   */\n      jump\t// in\n    tag_141:\n        /* \"TimeCapsule.sol\":1980:1995  _setURI(newuri) */\n      tag_144\n        /* \"TimeCapsule.sol\":1988:1994  newuri */\n      dup2\n        /* \"TimeCapsule.sol\":1980:1987  _setURI */\n      tag_145\n        /* \"TimeCapsule.sol\":1980:1995  _setURI(newuri) */\n      jump\t// in\n    tag_144:\n        /* \"TimeCapsule.sol\":1913:2002  function setURI(string memory newuri) external onlyOwner {... */\n      pop\n      jump\t// out\n        /* \"TimeCapsule.sol\":371:414  string public name = \"TimeCapsule Editions\" */\n    tag_51:\n      0x06\n      dup1\n      sload\n      tag_146\n      swap1\n      tag_147\n      jump\t// in\n    tag_146:\n      dup1\n      0x1f\n      add\n      0x20\n      dup1\n      swap2\n      div\n      mul\n      0x20\n      add\n      mload(0x40)\n      swap1\n      dup2\n      add\n      0x40\n      mstore\n      dup1\n      swap3\n      swap2\n      swap1\n      dup2\n      dup2\n      mstore\n      0x20\n      add\n      dup3\n      dup1\n      sload\n      tag_148\n      swap1\n      tag_147\n      jump\t// in\n    tag_148:\n      dup1\n      iszero\n      tag_149\n      jumpi\n      dup1\n      0x1f\n      lt\n      tag_150\n      jumpi\n      0x0100\n      dup1\n      dup4\n      sload\n      div\n      mul\n      dup4\n      mstore\n      swap2\n      0x20\n      add\n      swap2\n      jump(tag_149)\n    tag_150:\n      dup3\n      add\n      swap2\n      swap1\n      0x00\n      mstore\n      keccak256(0x00, 0x20)\n      swap1\n    tag_151:\n      dup2\n      sload\n      dup2\n      mstore\n      swap1\n      0x01\n      add\n      swap1\n      0x20\n      add\n      dup1\n      dup4\n      gt\n      tag_151\n      jumpi\n      dup3\n      swap1\n      sub\n      0x1f\n      and\n      dup3\n      add\n      swap2\n    tag_149:\n      pop\n      pop\n      pop\n      pop\n      pop\n      dup2\n      jump\t// out\n        /* \"@openzeppelin/contracts/token/ERC1155/ERC1155.sol\":2049:2152   */\n    tag_58:\n        /* \"@openzeppelin/contracts/token/ERC1155/ERC1155.sol\":2109:2122   */\n      0x60\n        /* \"@openzeppelin/contracts/token/ERC1155/ERC1155.sol\":2141:2145   */\n      0x02\n        /* \"@openzeppelin/contracts/token/ERC1155/ERC1155.sol\":2134:2145   */\n      dup1\n      sload\n      tag_153\n      swap1\n      tag_147\n      jump\t// in\n    tag_153:\n      dup1\n      0x1f\n      add\n      0x20\n      dup1\n      swap2\n      div\n      mul\n      0x20\n      add\n      mload(0x40)\n      swap1\n      dup2\n      add\n      0x40\n      mstore\n      dup1\n      swap3\n      swap2\n      swap1\n      dup2\n      dup2\n      mstore\n      0x20\n      add\n      dup3\n      dup1\n      sload\n      tag_154\n      swap1\n      tag_147\n      jump\t// in\n    tag_154:\n      dup1\n      iszero\n      tag_155\n      jumpi\n      dup1\n      0x1f\n      lt\n      tag_156\n      jumpi\n      0x0100\n      dup1\n      dup4\n      sload\n      div\n      mul\n      dup4\n      mstore\n      swap2\n      0x20\n      add\n      swap2\n      jump(tag_155)\n    tag_156:\n      dup3\n      add\n      swap2\n      swap1\n      0x00\n      mstore\n      keccak256(0x00, 0x20)\n      swap1\n    tag_157:\n      dup2\n      sload\n      dup2\n      mstore\n      swap1\n      0x01\n      add\n      swap1\n      0x20\n      add\n      dup1\n      dup4\n      gt\n      tag_157\n      jumpi\n      dup3\n      swap1\n      sub\n      0x1f\n      and\n      dup3\n      add\n      swap2\n    tag_155:\n      pop\n      pop\n      pop\n      pop\n      pop\n      swap1\n      pop\n        /* \"@openzeppelin/contracts/token/ERC1155/ERC1155.sol\":2049:2152   */\n      swap2\n      swap1\n      pop\n      jump\t// out\n        /* \"TimeCapsule.sol\":1083:1382  function mint(uint256 id, uint256 amount) external payable {... */\n    tag_63:\n        /* \"TimeCapsule.sol\":1173:1192  MINT_PRICE * amount */\n      tag_159\n        /* \"TimeCapsule.sol\":1186:1192  amount */\n      dup2\n        /* \"TimeCapsule.sol\":537:551  0.000777 ether */\n      0x02c2ad68fd9000\n        /* \"TimeCapsule.sol\":1173:1192  MINT_PRICE * amount */\n      tag_160\n      jump\t// in\n    tag_159:\n        /* \"TimeCapsule.sol\":1160:1169  msg.value */\n      callvalue\n        /* \"TimeCapsule.sol\":1160:1192  msg.value >= MINT_PRICE * amount */\n      lt\n      iszero\n        /* \"TimeCapsule.sol\":1152:1217  require(msg.value >= MINT_PRICE * amount, \"Insufficient payment\") */\n      tag_161\n      jumpi\n      mload(0x40)\n      shl(0xe5, 0x461bcd)\n      dup2\n      mstore\n        /* \"#utility.yul\":10458:10460   */\n      0x20\n        /* \"TimeCapsule.sol\":1152:1217  require(msg.value >= MINT_PRICE * amount, \"Insufficient payment\") */\n      0x04\n      dup3\n      add\n        /* \"#utility.yul\":10440:10461   */\n      mstore\n        /* \"#utility.yul\":10497:10499   */\n      0x14\n        /* \"#utility.yul\":10477:10495   */\n      0x24\n      dup3\n      add\n        /* \"#utility.yul\":10470:10500   */\n      mstore\n        /* \"#utility.yul\":10536:10558   */\n      0x496e73756666696369656e74207061796d656e74000000000000000000000000\n        /* \"#utility.yul\":10516:10534   */\n      0x44\n      dup3\n      add\n        /* \"#utility.yul\":10509:10559   */\n      mstore\n        /* \"#utility.yul\":10576:10594   */\n      0x64\n      add\n        /* \"TimeCapsule.sol\":1152:1217  require(msg.value >= MINT_PRICE * amount, \"Insufficient payment\") */\n    tag_162:\n      mload(0x40)\n      dup1\n      swap2\n      sub\n      swap1\n      revert\n    tag_161:\n        /* \"TimeCapsule.sol\":1235:1250  totalSupply[id] */\n      0x00\n      dup3\n      dup2\n      mstore\n        /* \"TimeCapsule.sol\":1235:1246  totalSupply */\n      0x09\n        /* \"TimeCapsule.sol\":1235:1250  totalSupply[id] */\n      0x20\n      mstore\n      0x40\n      swap1\n      keccak256\n      sload\n        /* \"TimeCapsule.sol\":491:494  100 */\n      0x64\n      swap1\n        /* \"TimeCapsule.sol\":1235:1259  totalSupply[id] + amount */\n      tag_164\n      swap1\n        /* \"TimeCapsule.sol\":1253:1259  amount */\n      dup4\n      swap1\n        /* \"TimeCapsule.sol\":1235:1259  totalSupply[id] + amount */\n      tag_165\n      jump\t// in\n    tag_164:\n        /* \"TimeCapsule.sol\":1235:1273  totalSupply[id] + amount <= MAX_SUPPLY */\n      gt\n      iszero\n        /* \"TimeCapsule.sol\":1227:1296  require(totalSupply[id] + amount <= MAX_SUPPLY, \"Exceeds max supply\") */\n      tag_166\n      jumpi\n      mload(0x40)\n      shl(0xe5, 0x461bcd)\n      dup2\n      mstore\n        /* \"#utility.yul\":10937:10939   */\n      0x20\n        /* \"TimeCapsule.sol\":1227:1296  require(totalSupply[id] + amount <= MAX_SUPPLY, \"Exceeds max supply\") */\n      0x04\n      dup3\n      add\n        /* \"#utility.yul\":10919:10940   */\n      mstore\n        /* \"#utility.yul\":10976:10978   */\n      0x12\n        /* \"#utility.yul\":10956:10974   */\n      0x24\n      dup3\n      add\n        /* \"#utility.yul\":10949:10979   */\n      mstore\n        /* \"#utility.yul\":11015:11035   */\n      0x45786365656473206d617820737570706c790000000000000000000000000000\n        /* \"#utility.yul\":10995:11013   */\n      0x44\n      dup3\n      add\n        /* \"#utility.yul\":10988:11036   */\n      mstore\n        /* \"#utility.yul\":11053:11071   */\n      0x64\n      add\n        /* \"TimeCapsule.sol\":1227:1296  require(totalSupply[id] + amount <= MAX_SUPPLY, \"Exceeds max supply\") */\n      tag_162\n        /* \"#utility.yul\":10735:11077   */\n      jump\n        /* \"TimeCapsule.sol\":1227:1296  require(totalSupply[id] + amount <= MAX_SUPPLY, \"Exceeds max supply\") */\n    tag_166:\n        /* \"TimeCapsule.sol\":1307:1322  totalSupply[id] */\n      0x00\n      dup3\n      dup2\n      mstore\n        /* \"TimeCapsule.sol\":1307:1318  totalSupply */\n      0x09\n        /* \"TimeCapsule.sol\":1307:1322  totalSupply[id] */\n      0x20\n      mstore\n      0x40\n      dup2\n      keccak256\n        /* \"TimeCapsule.sol\":1307:1332  totalSupply[id] += amount */\n      dup1\n      sload\n        /* \"TimeCapsule.sol\":1326:1332  amount */\n      dup4\n      swap3\n        /* \"TimeCapsule.sol\":1307:1322  totalSupply[id] */\n      swap1\n        /* \"TimeCapsule.sol\":1307:1332  totalSupply[id] += amount */\n      tag_169\n      swap1\n        /* \"TimeCapsule.sol\":1326:1332  amount */\n      dup5\n      swap1\n        /* \"TimeCapsule.sol\":1307:1332  totalSupply[id] += amount */\n      tag_165\n      jump\t// in\n    tag_169:\n      swap3\n      pop\n      pop\n      dup2\n      swap1\n      sstore\n      pop\n        /* \"TimeCapsule.sol\":1342:1375  _mint(msg.sender, id, amount, \"\") */\n      tag_170\n        /* \"TimeCapsule.sol\":1348:1358  msg.sender */\n      caller\n        /* \"TimeCapsule.sol\":1360:1362  id */\n      dup4\n        /* \"TimeCapsule.sol\":1364:1370  amount */\n      dup4\n        /* \"TimeCapsule.sol\":1342:1375  _mint(msg.sender, id, amount, \"\") */\n      mload(0x40)\n      dup1\n      0x20\n      add\n      0x40\n      mstore\n      dup1\n      0x00\n      dup2\n      mstore\n      pop\n        /* \"TimeCapsule.sol\":1342:1347  _mint */\n      tag_171\n        /* \"TimeCapsule.sol\":1342:1375  _mint(msg.sender, id, amount, \"\") */\n      jump\t// in\n    tag_170:\n        /* \"TimeCapsule.sol\":1083:1382  function mint(uint256 id, uint256 amount) external payable {... */\n      pop\n      pop\n      jump\t// out\n        /* \"@openzeppelin/contracts/token/common/ERC2981.sol\":2330:2987   */\n    tag_67:\n        /* \"@openzeppelin/contracts/token/common/ERC2981.sol\":2438:2454   */\n      0x00\n        /* \"@openzeppelin/contracts/token/common/ERC2981.sol\":2517:2543   */\n      dup3\n      dup2\n      mstore\n        /* \"@openzeppelin/contracts/token/common/ERC2981.sol\":2517:2534   */\n      0x05\n        /* \"@openzeppelin/contracts/token/common/ERC2981.sol\":2517:2543   */\n      0x20\n      mstore\n      0x40\n      dup2\n      keccak256\n        /* \"@openzeppelin/contracts/token/common/ERC2981.sol\":2579:2600   */\n      dup1\n      sload\n        /* \"@openzeppelin/contracts/token/common/ERC2981.sol\":2438:2454   */\n      dup3\n      swap2\n        /* \"@openzeppelin/contracts/token/common/ERC2981.sol\":2517:2543   */\n      swap1\n      sub(shl(0xa0, 0x01), 0x01)\n        /* \"@openzeppelin/contracts/token/common/ERC2981.sol\":2579:2600   */\n      dup2\n      and\n      swap1\n      shl(0xa0, 0x01)\n        /* \"@openzeppelin/contracts/token/common/ERC2981.sol\":2635:2663   */\n      swap1\n      div\n      0xffffffffffffffffffffffff\n      and\n        /* \"@openzeppelin/contracts/token/common/ERC2981.sol\":2579:2600   */\n      dup2\n        /* \"@openzeppelin/contracts/token/common/ERC2981.sol\":2674:2847   */\n      tag_173\n      jumpi\n      pop\n      pop\n        /* \"@openzeppelin/contracts/token/common/ERC2981.sol\":2741:2760   */\n      0x04\n        /* \"@openzeppelin/contracts/token/common/ERC2981.sol\":2741:2769   */\n      sload\n      sub(shl(0xa0, 0x01), 0x01)\n      dup2\n      and\n      swap1\n      shl(0xa0, 0x01)\n        /* \"@openzeppelin/contracts/token/common/ERC2981.sol\":2801:2836   */\n      swap1\n      div\n      0xffffffffffffffffffffffff\n      and\n        /* \"@openzeppelin/contracts/token/common/ERC2981.sol\":2674:2847   */\n    tag_173:\n        /* \"@openzeppelin/contracts/token/common/ERC2981.sol\":2857:2878   */\n      0x00\n        /* \"@openzeppelin/contracts/token/common/ERC2981.sol\":3345:3350   */\n      0x2710\n        /* \"@openzeppelin/contracts/token/common/ERC2981.sol\":2882:2909   */\n      tag_176\n        /* \"@openzeppelin/contracts/token/common/ERC2981.sol\":2881:2930   */\n      0xffffffffffffffffffffffff\n        /* \"@openzeppelin/contracts/token/common/ERC2981.sol\":2882:2909   */\n      dup5\n      and\n        /* \"@openzeppelin/contracts/token/common/ERC2981.sol\":2882:2891   */\n      dup10\n        /* \"@openzeppelin/contracts/token/common/ERC2981.sol\":2882:2909   */\n      tag_160\n      jump\t// in\n    tag_176:\n        /* \"@openzeppelin/contracts/token/common/ERC2981.sol\":2881:2930   */\n      tag_177\n      swap2\n      swap1\n      tag_178\n      jump\t// in\n    tag_177:\n        /* \"@openzeppelin/contracts/token/common/ERC2981.sol\":2949:2964   */\n      swap3\n      swap9\n      swap3\n      swap8\n      pop\n        /* \"@openzeppelin/contracts/token/common/ERC2981.sol\":2330:2987   */\n      swap2\n      swap6\n      pop\n      pop\n      pop\n      pop\n      pop\n      pop\n      jump\t// out\n        /* \"@openzeppelin/contracts/token/ERC1155/ERC1155.sol\":3820:4249   */\n    tag_74:\n        /* \"@openzeppelin/contracts/utils/Context.sol\":735:745   */\n      caller\n      sub(shl(0xa0, 0x01), 0x01)\n        /* \"@openzeppelin/contracts/token/ERC1155/ERC1155.sol\":4057:4071   */\n      dup7\n      and\n      dup2\n      eq\n      dup1\n      iszero\n      swap1\n        /* \"@openzeppelin/contracts/token/ERC1155/ERC1155.sol\":4057:4106   */\n      tag_182\n      jumpi\n      pop\n      sub(shl(0xa0, 0x01), 0x01)\n        /* \"@openzeppelin/contracts/token/ERC1155/ERC1155.sol\":3355:3382   */\n      dup1\n      dup8\n      and\n        /* \"@openzeppelin/contracts/token/ERC1155/ERC1155.sol\":3332:3336   */\n      0x00\n        /* \"@openzeppelin/contracts/token/ERC1155/ERC1155.sol\":3355:3382   */\n      swap1\n      dup2\n      mstore\n        /* \"@openzeppelin/contracts/token/ERC1155/ERC1155.sol\":3355:3373   */\n      0x01\n        /* \"@openzeppelin/contracts/token/ERC1155/ERC1155.sol\":3355:3382   */\n      0x20\n      swap1\n      dup2\n      mstore\n      0x40\n      dup1\n      dup4\n      keccak256\n        /* \"@openzeppelin/contracts/token/ERC1155/ERC1155.sol\":3355:3392   */\n      swap4\n      dup6\n      and\n      dup4\n      mstore\n      swap3\n      swap1\n      mstore\n      keccak256\n      sload\n      0xff\n      and\n        /* \"@openzeppelin/contracts/token/ERC1155/ERC1155.sol\":4075:4106   */\n      iszero\n        /* \"@openzeppelin/contracts/token/ERC1155/ERC1155.sol\":4057:4106   */\n    tag_182:\n        /* \"@openzeppelin/contracts/token/ERC1155/ERC1155.sol\":4053:4182   */\n      iszero\n      tag_184\n      jumpi\n        /* \"@openzeppelin/contracts/token/ERC1155/ERC1155.sol\":4129:4171   */\n      mload(0x40)\n      shl(0xe1, 0x711bec91)\n      dup2\n      mstore\n      sub(shl(0xa0, 0x01), 0x01)\n        /* \"#utility.yul\":11557:11572   */\n      dup1\n      dup4\n      and\n        /* \"@openzeppelin/contracts/token/ERC1155/ERC1155.sol\":4129:4171   */\n      0x04\n      dup4\n      add\n        /* \"#utility.yul\":11539:11573   */\n      mstore\n        /* \"#utility.yul\":11609:11624   */\n      dup8\n      and\n        /* \"#utility.yul\":11589:11607   */\n      0x24\n      dup3\n      add\n        /* \"#utility.yul\":11582:11625   */\n      mstore\n        /* \"#utility.yul\":11451:11469   */\n      0x44\n      add\n        /* \"@openzeppelin/contracts/token/ERC1155/ERC1155.sol\":4129:4171   */\n      tag_162\n        /* \"#utility.yul\":11304:11631   */\n      jump\n        /* \"@openzeppelin/contracts/token/ERC1155/ERC1155.sol\":4053:4182   */\n    tag_184:\n        /* \"@openzeppelin/contracts/token/ERC1155/ERC1155.sol\":4191:4242   */\n      tag_187\n        /* \"@openzeppelin/contracts/token/ERC1155/ERC1155.sol\":4214:4218   */\n      dup7\n        /* \"@openzeppelin/contracts/token/ERC1155/ERC1155.sol\":4220:4222   */\n      dup7\n        /* \"@openzeppelin/contracts/token/ERC1155/ERC1155.sol\":4224:4227   */\n      dup7\n        /* \"@openzeppelin/contracts/token/ERC1155/ERC1155.sol\":4229:4235   */\n      dup7\n        /* \"@openzeppelin/contracts/token/ERC1155/ERC1155.sol\":4237:4241   */\n      dup7\n        /* \"@openzeppelin/contracts/token/ERC1155/ERC1155.sol\":4191:4213   */\n      tag_188\n        /* \"@openzeppelin/contracts/token/ERC1155/ERC1155.sol\":4191:4242   */\n      jump\t// in\n    tag_187:\n        /* \"@openzeppelin/contracts/token/ERC1155/ERC1155.sol\":4004:4249   */\n      pop\n        /* \"@openzeppelin/contracts/token/ERC1155/ERC1155.sol\":3820:4249   */\n      pop\n      pop\n      pop\n      pop\n      pop\n      jump\t// out\n        /* \"TimeCapsule.sol\":1550:1806  function withdraw() external onlyOwner {... */\n    tag_81:\n        /* \"@openzeppelin/contracts/access/Ownable.sol\":1531:1544   */\n      tag_190\n        /* \"@openzeppelin/contracts/access/Ownable.sol\":1531:1542   */\n      tag_142\n        /* \"@openzeppelin/contracts/access/Ownable.sol\":1531:1544   */\n      jump\t// in\n    tag_190:\n        /* \"TimeCapsule.sol\":1617:1638  address(this).balance */\n      selfbalance\n        /* \"TimeCapsule.sol\":1656:1667  balance > 0 */\n      dup1\n        /* \"TimeCapsule.sol\":1648:1692  require(balance > 0, \"No funds to withdraw\") */\n      tag_192\n      jumpi\n      mload(0x40)\n      shl(0xe5, 0x461bcd)\n      dup2\n      mstore\n        /* \"#utility.yul\":11838:11840   */\n      0x20\n        /* \"TimeCapsule.sol\":1648:1692  require(balance > 0, \"No funds to withdraw\") */\n      0x04\n      dup3\n      add\n        /* \"#utility.yul\":11820:11841   */\n      mstore\n        /* \"#utility.yul\":11877:11879   */\n      0x14\n        /* \"#utility.yul\":11857:11875   */\n      0x24\n      dup3\n      add\n        /* \"#utility.yul\":11850:11880   */\n      mstore\n        /* \"#utility.yul\":11916:11938   */\n      0x4e6f2066756e647320746f207769746864726177000000000000000000000000\n        /* \"#utility.yul\":11896:11914   */\n      0x44\n      dup3\n      add\n        /* \"#utility.yul\":11889:11939   */\n      mstore\n        /* \"#utility.yul\":11956:11974   */\n      0x64\n      add\n        /* \"TimeCapsule.sol\":1648:1692  require(balance > 0, \"No funds to withdraw\") */\n      tag_162\n        /* \"#utility.yul\":11636:11980   */\n      jump\n        /* \"TimeCapsule.sol\":1648:1692  require(balance > 0, \"No funds to withdraw\") */\n    tag_192:\n        /* \"TimeCapsule.sol\":1721:1729  treasury */\n      sload(0x08)\n        /* \"TimeCapsule.sol\":1721:1754  treasury.call{value: balance}(\"\") */\n      mload(0x40)\n        /* \"TimeCapsule.sol\":1703:1715  bool success */\n      0x00\n      swap2\n      sub(shl(0xa0, 0x01), 0x01)\n        /* \"TimeCapsule.sol\":1721:1729  treasury */\n      and\n      swap1\n        /* \"TimeCapsule.sol\":1742:1749  balance */\n      dup4\n      swap1\n        /* \"TimeCapsule.sol\":1703:1715  bool success */\n      dup4\n        /* \"TimeCapsule.sol\":1721:1754  treasury.call{value: balance}(\"\") */\n      dup2\n        /* \"TimeCapsule.sol\":1703:1715  bool success */\n      dup2\n        /* \"TimeCapsule.sol\":1721:1754  treasury.call{value: balance}(\"\") */\n      dup2\n        /* \"TimeCapsule.sol\":1742:1749  balance */\n      dup6\n        /* \"TimeCapsule.sol\":1721:1729  treasury */\n      dup8\n        /* \"TimeCapsule.sol\":1721:1754  treasury.call{value: balance}(\"\") */\n      gas\n      call\n      swap3\n      pop\n      pop\n      pop\n      returndatasize\n      dup1\n      0x00\n      dup2\n      eq\n      tag_199\n      jumpi\n      mload(0x40)\n      swap2\n      pop\n      and(add(returndatasize, 0x3f), not(0x1f))\n      dup3\n      add\n      0x40\n      mstore\n      returndatasize\n      dup3\n      mstore\n      returndatasize\n      0x00\n      0x20\n      dup5\n      add\n      returndatacopy\n      jump(tag_198)\n    tag_199:\n      0x60\n      swap2\n      pop\n    tag_198:\n      pop\n        /* \"TimeCapsule.sol\":1702:1754  (bool success, ) = treasury.call{value: balance}(\"\") */\n      pop\n      swap1\n      pop\n        /* \"TimeCapsule.sol\":1772:1779  success */\n      dup1\n        /* \"TimeCapsule.sol\":1764:1799  require(success, \"Transfer failed\") */\n      tag_170\n      jumpi\n      mload(0x40)\n      shl(0xe5, 0x461bcd)\n      dup2\n      mstore\n        /* \"#utility.yul\":12397:12399   */\n      0x20\n        /* \"TimeCapsule.sol\":1764:1799  require(success, \"Transfer failed\") */\n      0x04\n      dup3\n      add\n        /* \"#utility.yul\":12379:12400   */\n      mstore\n        /* \"#utility.yul\":12436:12438   */\n      0x0f\n        /* \"#utility.yul\":12416:12434   */\n      0x24\n      dup3\n      add\n        /* \"#utility.yul\":12409:12439   */\n      mstore\n        /* \"#utility.yul\":12475:12492   */\n      0x5472616e73666572206661696c65640000000000000000000000000000000000\n        /* \"#utility.yul\":12455:12473   */\n      0x44\n      dup3\n      add\n        /* \"#utility.yul\":12448:12493   */\n      mstore\n        /* \"#utility.yul\":12510:12528   */\n      0x64\n      add\n        /* \"TimeCapsule.sol\":1764:1799  require(success, \"Transfer failed\") */\n      tag_162\n        /* \"#utility.yul\":12195:12534   */\n      jump\n        /* \"@openzeppelin/contracts/token/ERC1155/ERC1155.sol\":2476:3028   */\n    tag_86:\n        /* \"@openzeppelin/contracts/token/ERC1155/ERC1155.sol\":2600:2616   */\n      0x60\n        /* \"@openzeppelin/contracts/token/ERC1155/ERC1155.sol\":2651:2654   */\n      dup2\n        /* \"@openzeppelin/contracts/token/ERC1155/ERC1155.sol\":2651:2661   */\n      mload\n        /* \"@openzeppelin/contracts/token/ERC1155/ERC1155.sol\":2632:2640   */\n      dup4\n        /* \"@openzeppelin/contracts/token/ERC1155/ERC1155.sol\":2632:2647   */\n      mload\n        /* \"@openzeppelin/contracts/token/ERC1155/ERC1155.sol\":2632:2661   */\n      eq\n        /* \"@openzeppelin/contracts/token/ERC1155/ERC1155.sol\":2628:2749   */\n      tag_204\n      jumpi\n        /* \"@openzeppelin/contracts/token/ERC1155/ERC1155.sol\":2710:2720   */\n      dup2\n      mload\n        /* \"@openzeppelin/contracts/token/ERC1155/ERC1155.sol\":2722:2737   */\n      dup4\n      mload\n        /* \"@openzeppelin/contracts/token/ERC1155/ERC1155.sol\":2684:2738   */\n      mload(0x40)\n      shl(0xe0, 0x5b059991)\n      dup2\n      mstore\n      0x04\n      dup2\n      add\n        /* \"#utility.yul\":12713:12738   */\n      swap3\n      swap1\n      swap3\n      mstore\n        /* \"#utility.yul\":12754:12772   */\n      0x24\n      dup3\n      add\n        /* \"#utility.yul\":12747:12781   */\n      mstore\n        /* \"#utility.yul\":12686:12704   */\n      0x44\n      add\n        /* \"@openzeppelin/contracts/token/ERC1155/ERC1155.sol\":2684:2738   */\n      tag_162\n        /* \"#utility.yul\":12539:12787   */\n      jump\n        /* \"@openzeppelin/contracts/token/ERC1155/ERC1155.sol\":2628:2749   */\n    tag_204:\n        /* \"@openzeppelin/contracts/token/ERC1155/ERC1155.sol\":2759:2789   */\n      0x00\n        /* \"@openzeppelin/contracts/token/ERC1155/ERC1155.sol\":2806:2814   */\n      dup4\n        /* \"@openzeppelin/contracts/token/ERC1155/ERC1155.sol\":2806:2821   */\n      mload\n        /* \"@openzeppelin/contracts/token/ERC1155/ERC1155.sol\":2792:2822   */\n      0xffffffffffffffff\n      dup2\n      gt\n      iszero\n      tag_208\n      jumpi\n      tag_208\n      tag_209\n      jump\t// in\n    tag_208:\n      mload(0x40)\n      swap1\n      dup1\n      dup3\n      mstore\n      dup1\n      0x20\n      mul\n      0x20\n      add\n      dup3\n      add\n      0x40\n      mstore\n      dup1\n      iszero\n      tag_210\n      jumpi\n      dup2\n      0x20\n      add\n      0x20\n      dup3\n      mul\n      dup1\n      calldatasize\n      dup4\n      calldatacopy\n      add\n      swap1\n      pop\n    tag_210:\n      pop\n        /* \"@openzeppelin/contracts/token/ERC1155/ERC1155.sol\":2759:2822   */\n      swap1\n      pop\n        /* \"@openzeppelin/contracts/token/ERC1155/ERC1155.sol\":2838:2847   */\n      0x00\n        /* \"@openzeppelin/contracts/token/ERC1155/ERC1155.sol\":2833:2991   */\n    tag_211:\n        /* \"@openzeppelin/contracts/token/ERC1155/ERC1155.sol\":2857:2865   */\n      dup5\n        /* \"@openzeppelin/contracts/token/ERC1155/ERC1155.sol\":2857:2872   */\n      mload\n        /* \"@openzeppelin/contracts/token/ERC1155/ERC1155.sol\":2853:2854   */\n      dup2\n        /* \"@openzeppelin/contracts/token/ERC1155/ERC1155.sol\":2853:2872   */\n      lt\n        /* \"@openzeppelin/contracts/token/ERC1155/ERC1155.sol\":2833:2991   */\n      iszero\n      tag_212\n      jumpi\n        /* \"@openzeppelin/contracts/utils/Arrays.sol\":17259:17263   */\n      0x20\n        /* \"@openzeppelin/contracts/utils/Arrays.sol\":17250:17264   */\n      dup1\n      dup3\n      mul\n        /* \"@openzeppelin/contracts/utils/Arrays.sol\":17230:17265   */\n      dup7\n      add\n      add\n        /* \"@openzeppelin/contracts/utils/Arrays.sol\":17224:17266   */\n      mload\n        /* \"@openzeppelin/contracts/token/ERC1155/ERC1155.sol\":2912:2980   */\n      tag_214\n      swap1\n        /* \"@openzeppelin/contracts/utils/Arrays.sol\":17259:17263   */\n      0x20\n        /* \"@openzeppelin/contracts/utils/Arrays.sol\":17250:17264   */\n      dup1\n      dup5\n      mul\n        /* \"@openzeppelin/contracts/utils/Arrays.sol\":17230:17265   */\n      dup8\n      add\n      add\n        /* \"@openzeppelin/contracts/utils/Arrays.sol\":17224:17266   */\n      mload\n        /* \"@openzeppelin/contracts/token/ERC1155/ERC1155.sol\":2187:2319   */\n      tag_34\n      jump\t// in\n        /* \"@openzeppelin/contracts/token/ERC1155/ERC1155.sol\":2912:2980   */\n    tag_214:\n        /* \"@openzeppelin/contracts/token/ERC1155/ERC1155.sol\":2893:2906   */\n      dup3\n        /* \"@openzeppelin/contracts/token/ERC1155/ERC1155.sol\":2907:2908   */\n      dup3\n        /* \"@openzeppelin/contracts/token/ERC1155/ERC1155.sol\":2893:2909   */\n      dup2\n      mload\n      dup2\n      lt\n      tag_220\n      jumpi\n      tag_220\n      tag_221\n      jump\t// in\n    tag_220:\n      0x20\n      swap1\n      dup2\n      mul\n      swap2\n      swap1\n      swap2\n      add\n      add\n        /* \"@openzeppelin/contracts/token/ERC1155/ERC1155.sol\":2893:2980   */\n      mstore\n        /* \"@openzeppelin/contracts/token/ERC1155/ERC1155.sol\":2874:2877   */\n      0x01\n      add\n        /* \"@openzeppelin/contracts/token/ERC1155/ERC1155.sol\":2833:2991   */\n      jump(tag_211)\n    tag_212:\n      pop\n        /* \"@openzeppelin/contracts/token/ERC1155/ERC1155.sol\":3008:3021   */\n      swap4\n        /* \"@openzeppelin/contracts/token/ERC1155/ERC1155.sol\":2476:3028   */\n      swap3\n      pop\n      pop\n      pop\n      jump\t// out\n        /* \"@openzeppelin/contracts/access/Ownable.sol\":2293:2394   */\n    tag_96:\n        /* \"@openzeppelin/contracts/access/Ownable.sol\":1531:1544   */\n      tag_223\n        /* \"@openzeppelin/contracts/access/Ownable.sol\":1531:1542   */\n      tag_142\n        /* \"@openzeppelin/contracts/access/Ownable.sol\":1531:1544   */\n      jump\t// in\n    tag_223:\n        /* \"@openzeppelin/contracts/access/Ownable.sol\":2357:2387   */\n      tag_225\n        /* \"@openzeppelin/contracts/access/Ownable.sol\":2384:2385   */\n      0x00\n        /* \"@openzeppelin/contracts/access/Ownable.sol\":2357:2375   */\n      tag_226\n        /* \"@openzeppelin/contracts/access/Ownable.sol\":2357:2387   */\n      jump\t// in\n    tag_225:\n        /* \"@openzeppelin/contracts/access/Ownable.sol\":2293:2394   */\n      jump\t// out\n        /* \"TimeCapsule.sol\":420:448  string public symbol = \"TCE\" */\n    tag_104:\n      0x07\n      dup1\n      sload\n      tag_146\n      swap1\n      tag_147\n      jump\t// in\n        /* \"@openzeppelin/contracts/token/ERC1155/ERC1155.sol\":3063:3207   */\n    tag_110:\n        /* \"@openzeppelin/contracts/token/ERC1155/ERC1155.sol\":3148:3200   */\n      tag_170\n        /* \"@openzeppelin/contracts/utils/Context.sol\":735:745   */\n      caller\n        /* \"@openzeppelin/contracts/token/ERC1155/ERC1155.sol\":3181:3189   */\n      dup4\n        /* \"@openzeppelin/contracts/token/ERC1155/ERC1155.sol\":3191:3199   */\n      dup4\n        /* \"@openzeppelin/contracts/token/ERC1155/ERC1155.sol\":3148:3166   */\n      tag_236\n        /* \"@openzeppelin/contracts/token/ERC1155/ERC1155.sol\":3148:3200   */\n      jump\t// in\n        /* \"@openzeppelin/contracts/token/ERC1155/ERC1155.sol\":3434:3785   */\n    tag_130:\n        /* \"@openzeppelin/contracts/utils/Context.sol\":735:745   */\n      caller\n      sub(shl(0xa0, 0x01), 0x01)\n        /* \"@openzeppelin/contracts/token/ERC1155/ERC1155.sol\":3600:3614   */\n      dup7\n      and\n      dup2\n      eq\n      dup1\n      iszero\n      swap1\n        /* \"@openzeppelin/contracts/token/ERC1155/ERC1155.sol\":3600:3649   */\n      tag_240\n      jumpi\n      pop\n      sub(shl(0xa0, 0x01), 0x01)\n        /* \"@openzeppelin/contracts/token/ERC1155/ERC1155.sol\":3355:3382   */\n      dup1\n      dup8\n      and\n        /* \"@openzeppelin/contracts/token/ERC1155/ERC1155.sol\":3332:3336   */\n      0x00\n        /* \"@openzeppelin/contracts/token/ERC1155/ERC1155.sol\":3355:3382   */\n      swap1\n      dup2\n      mstore\n        /* \"@openzeppelin/contracts/token/ERC1155/ERC1155.sol\":3355:3373   */\n      0x01\n        /* \"@openzeppelin/contracts/token/ERC1155/ERC1155.sol\":3355:3382   */\n      0x20\n      swap1\n      dup2\n      mstore\n      0x40\n      dup1\n      dup4\n      keccak256\n        /* \"@openzeppelin/contracts/token/ERC1155/ERC1155.sol\":3355:3392   */\n      swap4\n      dup6\n      and\n      dup4\n      mstore\n      swap3\n      swap1\n      mstore\n      keccak256\n      sload\n      0xff\n      and\n        /* \"@openzeppelin/contracts/token/ERC1155/ERC1155.sol\":3618:3649   */\n      iszero\n        /* \"@openzeppelin/contracts/token/ERC1155/ERC1155.sol\":3600:3649   */\n    tag_240:\n        /* \"@openzeppelin/contracts/token/ERC1155/ERC1155.sol\":3596:3725   */\n      iszero\n      tag_242\n      jumpi\n        /* \"@openzeppelin/contracts/token/ERC1155/ERC1155.sol\":3672:3714   */\n      mload(0x40)\n      shl(0xe1, 0x711bec91)\n      dup2\n      mstore\n      sub(shl(0xa0, 0x01), 0x01)\n        /* \"#utility.yul\":11557:11572   */\n      dup1\n      dup4\n      and\n        /* \"@openzeppelin/contracts/token/ERC1155/ERC1155.sol\":3672:3714   */\n      0x04\n      dup4\n      add\n        /* \"#utility.yul\":11539:11573   */\n      mstore\n        /* \"#utility.yul\":11609:11624   */\n      dup8\n      and\n        /* \"#utility.yul\":11589:11607   */\n      0x24\n      dup3\n      add\n        /* \"#utility.yul\":11582:11625   */\n      mstore\n        /* \"#utility.yul\":11451:11469   */\n      0x44\n      add\n        /* \"@openzeppelin/contracts/token/ERC1155/ERC1155.sol\":3672:3714   */\n      tag_162\n        /* \"#utility.yul\":11304:11631   */\n      jump\n        /* \"@openzeppelin/contracts/token/ERC1155/ERC1155.sol\":3596:3725   */\n    tag_242:\n        /* \"@openzeppelin/contracts/token/ERC1155/ERC1155.sol\":3734:3778   */\n      tag_187\n        /* \"@openzeppelin/contracts/token/ERC1155/ERC1155.sol\":3752:3756   */\n      dup7\n        /* \"@openzeppelin/contracts/token/ERC1155/ERC1155.sol\":3758:3760   */\n      dup7\n        /* \"@openzeppelin/contracts/token/ERC1155/ERC1155.sol\":3762:3764   */\n      dup7\n        /* \"@openzeppelin/contracts/token/ERC1155/ERC1155.sol\":3766:3771   */\n      dup7\n        /* \"@openzeppelin/contracts/token/ERC1155/ERC1155.sol\":3773:3777   */\n      dup7\n        /* \"@openzeppelin/contracts/token/ERC1155/ERC1155.sol\":3734:3751   */\n      tag_245\n        /* \"@openzeppelin/contracts/token/ERC1155/ERC1155.sol\":3734:3778   */\n      jump\t// in\n        /* \"@openzeppelin/contracts/access/Ownable.sol\":2543:2758   */\n    tag_135:\n        /* \"@openzeppelin/contracts/access/Ownable.sol\":1531:1544   */\n      tag_247\n        /* \"@openzeppelin/contracts/access/Ownable.sol\":1531:1542   */\n      tag_142\n        /* \"@openzeppelin/contracts/access/Ownable.sol\":1531:1544   */\n      jump\t// in\n    tag_247:\n      sub(shl(0xa0, 0x01), 0x01)\n        /* \"@openzeppelin/contracts/access/Ownable.sol\":2627:2649   */\n      dup2\n      and\n        /* \"@openzeppelin/contracts/access/Ownable.sol\":2623:2714   */\n      tag_249\n      jumpi\n        /* \"@openzeppelin/contracts/access/Ownable.sol\":2672:2703   */\n      mload(0x40)\n      shl(0xe0, 0x1e4fbdf7)\n      dup2\n      mstore\n        /* \"@openzeppelin/contracts/access/Ownable.sol\":2700:2701   */\n      0x00\n        /* \"@openzeppelin/contracts/access/Ownable.sol\":2672:2703   */\n      0x04\n      dup3\n      add\n        /* \"#utility.yul\":7831:7905   */\n      mstore\n        /* \"#utility.yul\":7804:7822   */\n      0x24\n      add\n        /* \"@openzeppelin/contracts/access/Ownable.sol\":2672:2703   */\n      tag_162\n        /* \"#utility.yul\":7669:7911   */\n      jump\n        /* \"@openzeppelin/contracts/access/Ownable.sol\":2623:2714   */\n    tag_249:\n        /* \"@openzeppelin/contracts/access/Ownable.sol\":2723:2751   */\n      tag_144\n        /* \"@openzeppelin/contracts/access/Ownable.sol\":2742:2750   */\n      dup2\n        /* \"@openzeppelin/contracts/access/Ownable.sol\":2723:2741   */\n      tag_226\n        /* \"@openzeppelin/contracts/access/Ownable.sol\":2723:2751   */\n      jump\t// in\n        /* \"@openzeppelin/contracts/token/common/ERC2981.sol\":2082:2295   */\n    tag_139:\n        /* \"@openzeppelin/contracts/token/common/ERC2981.sol\":2184:2188   */\n      0x00\n      not(sub(shl(0xe0, 0x01), 0x01))\n        /* \"@openzeppelin/contracts/token/common/ERC2981.sol\":2207:2248   */\n      dup3\n      and\n      shl(0xe1, 0x152a902d)\n      eq\n      dup1\n        /* \"@openzeppelin/contracts/token/common/ERC2981.sol\":2207:2288   */\n      tag_136\n      jumpi\n      pop\n        /* \"@openzeppelin/contracts/token/common/ERC2981.sol\":2252:2288   */\n      tag_136\n        /* \"@openzeppelin/contracts/token/common/ERC2981.sol\":2276:2287   */\n      dup3\n        /* \"@openzeppelin/contracts/token/common/ERC2981.sol\":2252:2275   */\n      tag_255\n        /* \"@openzeppelin/contracts/token/common/ERC2981.sol\":2252:2288   */\n      jump\t// in\n        /* \"@openzeppelin/contracts/access/Ownable.sol\":1796:1958   */\n    tag_142:\n        /* \"@openzeppelin/contracts/access/Ownable.sol\":1710:1716   */\n      and(sub(shl(0xa0, 0x01), 0x01), sload(0x03))\n        /* \"@openzeppelin/contracts/utils/Context.sol\":735:745   */\n      caller\n        /* \"@openzeppelin/contracts/access/Ownable.sol\":1855:1878   */\n      eq\n        /* \"@openzeppelin/contracts/access/Ownable.sol\":1851:1952   */\n      tag_225\n      jumpi\n        /* \"@openzeppelin/contracts/access/Ownable.sol\":1901:1941   */\n      mload(0x40)\n      shl(0xe0, 0x118cdaa7)\n      dup2\n      mstore\n        /* \"@openzeppelin/contracts/utils/Context.sol\":735:745   */\n      caller\n        /* \"@openzeppelin/contracts/access/Ownable.sol\":1901:1941   */\n      0x04\n      dup3\n      add\n        /* \"#utility.yul\":7831:7905   */\n      mstore\n        /* \"#utility.yul\":7804:7822   */\n      0x24\n      add\n        /* \"@openzeppelin/contracts/access/Ownable.sol\":1901:1941   */\n      tag_162\n        /* \"#utility.yul\":7669:7911   */\n      jump\n        /* \"@openzeppelin/contracts/token/ERC1155/ERC1155.sol\":10098:10184   */\n    tag_145:\n        /* \"@openzeppelin/contracts/token/ERC1155/ERC1155.sol\":10164:10168   */\n      0x02\n        /* \"@openzeppelin/contracts/token/ERC1155/ERC1155.sol\":10164:10177   */\n      tag_170\n        /* \"@openzeppelin/contracts/token/ERC1155/ERC1155.sol\":10171:10177   */\n      dup3\n        /* \"@openzeppelin/contracts/token/ERC1155/ERC1155.sol\":10164:10168   */\n      dup3\n        /* \"@openzeppelin/contracts/token/ERC1155/ERC1155.sol\":10164:10177   */\n      tag_264\n      jump\t// in\n        /* \"@openzeppelin/contracts/token/ERC1155/ERC1155.sol\":10562:10908   */\n    tag_171:\n      sub(shl(0xa0, 0x01), 0x01)\n        /* \"@openzeppelin/contracts/token/ERC1155/ERC1155.sol\":10658:10674   */\n      dup5\n      and\n        /* \"@openzeppelin/contracts/token/ERC1155/ERC1155.sol\":10654:10742   */\n      tag_266\n      jumpi\n        /* \"@openzeppelin/contracts/token/ERC1155/ERC1155.sol\":10697:10731   */\n      mload(0x40)\n      shl(0xe1, 0x2bfa23e7)\n      dup2\n      mstore\n        /* \"@openzeppelin/contracts/token/ERC1155/ERC1155.sol\":10728:10729   */\n      0x00\n        /* \"@openzeppelin/contracts/token/ERC1155/ERC1155.sol\":10697:10731   */\n      0x04\n      dup3\n      add\n        /* \"#utility.yul\":7831:7905   */\n      mstore\n        /* \"#utility.yul\":7804:7822   */\n      0x24\n      add\n        /* \"@openzeppelin/contracts/token/ERC1155/ERC1155.sol\":10697:10731   */\n      tag_162\n        /* \"#utility.yul\":7669:7911   */\n      jump\n        /* \"@openzeppelin/contracts/token/ERC1155/ERC1155.sol\":10654:10742   */\n    tag_266:\n        /* \"@openzeppelin/contracts/token/ERC1155/ERC1155.sol\":13782:13786   */\n      0x40\n        /* \"@openzeppelin/contracts/token/ERC1155/ERC1155.sol\":13776:13787   */\n      dup1\n      mload\n        /* \"@openzeppelin/contracts/token/ERC1155/ERC1155.sol\":13852:13853   */\n      0x01\n        /* \"@openzeppelin/contracts/token/ERC1155/ERC1155.sol\":13837:13854   */\n      dup1\n      dup3\n      mstore\n        /* \"@openzeppelin/contracts/token/ERC1155/ERC1155.sol\":13983:13987   */\n      0x20\n        /* \"@openzeppelin/contracts/token/ERC1155/ERC1155.sol\":13971:13988   */\n      dup3\n      add\n        /* \"@openzeppelin/contracts/token/ERC1155/ERC1155.sol\":13964:13999   */\n      dup7\n      swap1\n      mstore\n        /* \"@openzeppelin/contracts/token/ERC1155/ERC1155.sol\":14100:14117   */\n      dup2\n      dup4\n      add\n        /* \"@openzeppelin/contracts/token/ERC1155/ERC1155.sol\":14130:14147   */\n      swap1\n      dup2\n      mstore\n        /* \"@openzeppelin/contracts/token/ERC1155/ERC1155.sol\":13623:13646   */\n      0x60\n        /* \"@openzeppelin/contracts/token/ERC1155/ERC1155.sol\":14167:14184   */\n      dup3\n      add\n        /* \"@openzeppelin/contracts/token/ERC1155/ERC1155.sol\":14160:14195   */\n      dup6\n      swap1\n      mstore\n        /* \"@openzeppelin/contracts/token/ERC1155/ERC1155.sol\":14303:14320   */\n      0x80\n      dup3\n      add\n        /* \"@openzeppelin/contracts/token/ERC1155/ERC1155.sol\":14290:14321   */\n      swap1\n      swap3\n      mstore\n        /* \"@openzeppelin/contracts/token/ERC1155/ERC1155.sol\":13776:13787   */\n      swap1\n        /* \"@openzeppelin/contracts/token/ERC1155/ERC1155.sol\":10840:10901   */\n      tag_187\n      0x00\n        /* \"@openzeppelin/contracts/token/ERC1155/ERC1155.sol\":10879:10881   */\n      dup8\n        /* \"@openzeppelin/contracts/token/ERC1155/ERC1155.sol\":13776:13787   */\n      dup5\n        /* \"@openzeppelin/contracts/token/ERC1155/ERC1155.sol\":14100:14117   */\n      dup5\n        /* \"@openzeppelin/contracts/token/ERC1155/ERC1155.sol\":10896:10900   */\n      dup8\n        /* \"@openzeppelin/contracts/token/ERC1155/ERC1155.sol\":10840:10866   */\n      tag_271\n        /* \"@openzeppelin/contracts/token/ERC1155/ERC1155.sol\":10840:10901   */\n      jump\t// in\n        /* \"@openzeppelin/contracts/token/ERC1155/ERC1155.sol\":8831:9276   */\n    tag_188:\n      sub(shl(0xa0, 0x01), 0x01)\n        /* \"@openzeppelin/contracts/token/ERC1155/ERC1155.sol\":9024:9040   */\n      dup5\n      and\n        /* \"@openzeppelin/contracts/token/ERC1155/ERC1155.sol\":9020:9108   */\n      tag_275\n      jumpi\n        /* \"@openzeppelin/contracts/token/ERC1155/ERC1155.sol\":9063:9097   */\n      mload(0x40)\n      shl(0xe1, 0x2bfa23e7)\n      dup2\n      mstore\n        /* \"@openzeppelin/contracts/token/ERC1155/ERC1155.sol\":9094:9095   */\n      0x00\n        /* \"@openzeppelin/contracts/token/ERC1155/ERC1155.sol\":9063:9097   */\n      0x04\n      dup3\n      add\n        /* \"#utility.yul\":7831:7905   */\n      mstore\n        /* \"#utility.yul\":7804:7822   */\n      0x24\n      add\n        /* \"@openzeppelin/contracts/token/ERC1155/ERC1155.sol\":9063:9097   */\n      tag_162\n        /* \"#utility.yul\":7669:7911   */\n      jump\n        /* \"@openzeppelin/contracts/token/ERC1155/ERC1155.sol\":9020:9108   */\n    tag_275:\n      sub(shl(0xa0, 0x01), 0x01)\n        /* \"@openzeppelin/contracts/token/ERC1155/ERC1155.sol\":9121:9139   */\n      dup6\n      and\n        /* \"@openzeppelin/contracts/token/ERC1155/ERC1155.sol\":9117:9205   */\n      tag_277\n      jumpi\n        /* \"@openzeppelin/contracts/token/ERC1155/ERC1155.sol\":9162:9194   */\n      mload(0x40)\n      shl(0xe2, 0x6a0d45)\n      dup2\n      mstore\n        /* \"@openzeppelin/contracts/token/ERC1155/ERC1155.sol\":9191:9192   */\n      0x00\n        /* \"@openzeppelin/contracts/token/ERC1155/ERC1155.sol\":9162:9194   */\n      0x04\n      dup3\n      add\n        /* \"#utility.yul\":7831:7905   */\n      mstore\n        /* \"#utility.yul\":7804:7822   */\n      0x24\n      add\n        /* \"@openzeppelin/contracts/token/ERC1155/ERC1155.sol\":9162:9194   */\n      tag_162\n        /* \"#utility.yul\":7669:7911   */\n      jump\n        /* \"@openzeppelin/contracts/token/ERC1155/ERC1155.sol\":9117:9205   */\n    tag_277:\n        /* \"@openzeppelin/contracts/token/ERC1155/ERC1155.sol\":9214:9269   */\n      tag_279\n        /* \"@openzeppelin/contracts/token/ERC1155/ERC1155.sol\":9241:9245   */\n      dup6\n        /* \"@openzeppelin/contracts/token/ERC1155/ERC1155.sol\":9247:9249   */\n      dup6\n        /* \"@openzeppelin/contracts/token/ERC1155/ERC1155.sol\":9251:9254   */\n      dup6\n        /* \"@openzeppelin/contracts/token/ERC1155/ERC1155.sol\":9256:9262   */\n      dup6\n        /* \"@openzeppelin/contracts/token/ERC1155/ERC1155.sol\":9264:9268   */\n      dup6\n        /* \"@openzeppelin/contracts/token/ERC1155/ERC1155.sol\":9214:9240   */\n      tag_271\n        /* \"@openzeppelin/contracts/token/ERC1155/ERC1155.sol\":9214:9269   */\n      jump\t// in\n    tag_279:\n        /* \"@openzeppelin/contracts/token/ERC1155/ERC1155.sol\":8831:9276   */\n      pop\n      pop\n      pop\n      pop\n      pop\n      jump\t// out\n        /* \"@openzeppelin/contracts/access/Ownable.sol\":2912:3099   */\n    tag_226:\n        /* \"@openzeppelin/contracts/access/Ownable.sol\":3004:3010   */\n      0x03\n      dup1\n      sload\n      sub(shl(0xa0, 0x01), 0x01)\n        /* \"@openzeppelin/contracts/access/Ownable.sol\":3020:3037   */\n      dup4\n      dup2\n      and\n      0xffffffffffffffffffffffff0000000000000000000000000000000000000000\n      dup4\n      and\n      dup2\n      or\n      swap1\n      swap4\n      sstore\n        /* \"@openzeppelin/contracts/access/Ownable.sol\":3052:3092   */\n      mload(0x40)\n        /* \"@openzeppelin/contracts/access/Ownable.sol\":3004:3010   */\n      swap2\n      and\n      swap2\n        /* \"@openzeppelin/contracts/access/Ownable.sol\":3020:3037   */\n      swap1\n        /* \"@openzeppelin/contracts/access/Ownable.sol\":3004:3010   */\n      dup3\n      swap1\n        /* \"@openzeppelin/contracts/access/Ownable.sol\":3052:3092   */\n      0x8be0079c531659141344cd1fd0a4f28419497f9722a3daafe3b4186f6b6457e0\n      swap1\n        /* \"@openzeppelin/contracts/access/Ownable.sol\":2985:3001   */\n      0x00\n      swap1\n        /* \"@openzeppelin/contracts/access/Ownable.sol\":3052:3092   */\n      log3\n        /* \"@openzeppelin/contracts/access/Ownable.sol\":2975:3099   */\n      pop\n        /* \"@openzeppelin/contracts/access/Ownable.sol\":2912:3099   */\n      pop\n      jump\t// out\n        /* \"@openzeppelin/contracts/token/ERC1155/ERC1155.sol\":13084:13399   */\n    tag_236:\n      sub(shl(0xa0, 0x01), 0x01)\n        /* \"@openzeppelin/contracts/token/ERC1155/ERC1155.sol\":13191:13213   */\n      dup3\n      and\n        /* \"@openzeppelin/contracts/token/ERC1155/ERC1155.sol\":13187:13281   */\n      tag_284\n      jumpi\n        /* \"@openzeppelin/contracts/token/ERC1155/ERC1155.sol\":13236:13270   */\n      mload(0x40)\n      shl(0xe8, 0xced3e1)\n      dup2\n      mstore\n        /* \"@openzeppelin/contracts/token/ERC1155/ERC1155.sol\":13267:13268   */\n      0x00\n        /* \"@openzeppelin/contracts/token/ERC1155/ERC1155.sol\":13236:13270   */\n      0x04\n      dup3\n      add\n        /* \"#utility.yul\":7831:7905   */\n      mstore\n        /* \"#utility.yul\":7804:7822   */\n      0x24\n      add\n        /* \"@openzeppelin/contracts/token/ERC1155/ERC1155.sol\":13236:13270   */\n      tag_162\n        /* \"#utility.yul\":7669:7911   */\n      jump\n        /* \"@openzeppelin/contracts/token/ERC1155/ERC1155.sol\":13187:13281   */\n    tag_284:\n      sub(shl(0xa0, 0x01), 0x01)\n        /* \"@openzeppelin/contracts/token/ERC1155/ERC1155.sol\":13290:13315   */\n      dup4\n      dup2\n      and\n      0x00\n      dup2\n      dup2\n      mstore\n        /* \"@openzeppelin/contracts/token/ERC1155/ERC1155.sol\":13290:13308   */\n      0x01\n        /* \"@openzeppelin/contracts/token/ERC1155/ERC1155.sol\":13290:13315   */\n      0x20\n      swap1\n      dup2\n      mstore\n      0x40\n      dup1\n      dup4\n      keccak256\n        /* \"@openzeppelin/contracts/token/ERC1155/ERC1155.sol\":13290:13325   */\n      swap5\n      dup8\n      and\n      dup1\n      dup5\n      mstore\n      swap5\n      dup3\n      mstore\n      swap2\n      dup3\n      swap1\n      keccak256\n        /* \"@openzeppelin/contracts/token/ERC1155/ERC1155.sol\":13290:13336   */\n      dup1\n      sload\n      not(0xff)\n      and\n      dup7\n      iszero\n      iszero\n      swap1\n      dup2\n      or\n      swap1\n      swap2\n      sstore\n        /* \"@openzeppelin/contracts/token/ERC1155/ERC1155.sol\":13351:13392   */\n      swap2\n      mload\n        /* \"#utility.yul\":1182:1223   */\n      swap2\n      dup3\n      mstore\n        /* \"@openzeppelin/contracts/token/ERC1155/ERC1155.sol\":13351:13392   */\n      0x17307eab39ab6107e8899845ad3d59bd9653f200f220920489ca2b5937696c31\n      swap2\n        /* \"#utility.yul\":1155:1173   */\n      add\n        /* \"@openzeppelin/contracts/token/ERC1155/ERC1155.sol\":13351:13392   */\n      mload(0x40)\n      dup1\n      swap2\n      sub\n      swap1\n      log3\n        /* \"@openzeppelin/contracts/token/ERC1155/ERC1155.sol\":13084:13399   */\n      pop\n      pop\n      pop\n      jump\t// out\n        /* \"@openzeppelin/contracts/token/ERC1155/ERC1155.sol\":7967:8430   */\n    tag_245:\n      sub(shl(0xa0, 0x01), 0x01)\n        /* \"@openzeppelin/contracts/token/ERC1155/ERC1155.sol\":8089:8105   */\n      dup5\n      and\n        /* \"@openzeppelin/contracts/token/ERC1155/ERC1155.sol\":8085:8173   */\n      tag_288\n      jumpi\n        /* \"@openzeppelin/contracts/token/ERC1155/ERC1155.sol\":8128:8162   */\n      mload(0x40)\n      shl(0xe1, 0x2bfa23e7)\n      dup2\n      mstore\n        /* \"@openzeppelin/contracts/token/ERC1155/ERC1155.sol\":8159:8160   */\n      0x00\n        /* \"@openzeppelin/contracts/token/ERC1155/ERC1155.sol\":8128:8162   */\n      0x04\n      dup3\n      add\n        /* \"#utility.yul\":7831:7905   */\n      mstore\n        /* \"#utility.yul\":7804:7822   */\n      0x24\n      add\n        /* \"@openzeppelin/contracts/token/ERC1155/ERC1155.sol\":8128:8162   */\n      tag_162\n        /* \"#utility.yul\":7669:7911   */\n      jump\n        /* \"@openzeppelin/contracts/token/ERC1155/ERC1155.sol\":8085:8173   */\n    tag_288:\n      sub(shl(0xa0, 0x01), 0x01)\n        /* \"@openzeppelin/contracts/token/ERC1155/ERC1155.sol\":8186:8204   */\n      dup6\n      and\n        /* \"@openzeppelin/contracts/token/ERC1155/ERC1155.sol\":8182:8270   */\n      tag_290\n      jumpi\n        /* \"@openzeppelin/contracts/token/ERC1155/ERC1155.sol\":8227:8259   */\n      mload(0x40)\n      shl(0xe2, 0x6a0d45)\n      dup2\n      mstore\n        /* \"@openzeppelin/contracts/token/ERC1155/ERC1155.sol\":8256:8257   */\n      0x00\n        /* \"@openzeppelin/contracts/token/ERC1155/ERC1155.sol\":8227:8259   */\n      0x04\n      dup3\n      add\n        /* \"#utility.yul\":7831:7905   */\n      mstore\n        /* \"#utility.yul\":7804:7822   */\n      0x24\n      add\n        /* \"@openzeppelin/contracts/token/ERC1155/ERC1155.sol\":8227:8259   */\n      tag_162\n        /* \"#utility.yul\":7669:7911   */\n      jump\n        /* \"@openzeppelin/contracts/token/ERC1155/ERC1155.sol\":8182:8270   */\n    tag_290:\n        /* \"@openzeppelin/contracts/token/ERC1155/ERC1155.sol\":13782:13786   */\n      0x40\n        /* \"@openzeppelin/contracts/token/ERC1155/ERC1155.sol\":13776:13787   */\n      dup1\n      mload\n        /* \"@openzeppelin/contracts/token/ERC1155/ERC1155.sol\":13852:13853   */\n      0x01\n        /* \"@openzeppelin/contracts/token/ERC1155/ERC1155.sol\":13837:13854   */\n      dup1\n      dup3\n      mstore\n        /* \"@openzeppelin/contracts/token/ERC1155/ERC1155.sol\":13983:13987   */\n      0x20\n        /* \"@openzeppelin/contracts/token/ERC1155/ERC1155.sol\":13971:13988   */\n      dup3\n      add\n        /* \"@openzeppelin/contracts/token/ERC1155/ERC1155.sol\":13964:13999   */\n      dup7\n      swap1\n      mstore\n        /* \"@openzeppelin/contracts/token/ERC1155/ERC1155.sol\":14100:14117   */\n      dup2\n      dup4\n      add\n        /* \"@openzeppelin/contracts/token/ERC1155/ERC1155.sol\":14130:14147   */\n      swap1\n      dup2\n      mstore\n        /* \"@openzeppelin/contracts/token/ERC1155/ERC1155.sol\":13623:13646   */\n      0x60\n        /* \"@openzeppelin/contracts/token/ERC1155/ERC1155.sol\":14167:14184   */\n      dup3\n      add\n        /* \"@openzeppelin/contracts/token/ERC1155/ERC1155.sol\":14160:14195   */\n      dup6\n      swap1\n      mstore\n        /* \"@openzeppelin/contracts/token/ERC1155/ERC1155.sol\":14303:14320   */\n      0x80\n      dup3\n      add\n        /* \"@openzeppelin/contracts/token/ERC1155/ERC1155.sol\":14290:14321   */\n      swap1\n      swap3\n      mstore\n        /* \"@openzeppelin/contracts/token/ERC1155/ERC1155.sol\":13776:13787   */\n      swap1\n        /* \"@openzeppelin/contracts/token/ERC1155/ERC1155.sol\":8368:8423   */\n      tag_293\n        /* \"@openzeppelin/contracts/token/ERC1155/ERC1155.sol\":8395:8399   */\n      dup8\n        /* \"@openzeppelin/contracts/token/ERC1155/ERC1155.sol\":8401:8403   */\n      dup8\n        /* \"@openzeppelin/contracts/token/ERC1155/ERC1155.sol\":13776:13787   */\n      dup5\n        /* \"@openzeppelin/contracts/token/ERC1155/ERC1155.sol\":14100:14117   */\n      dup5\n        /* \"@openzeppelin/contracts/token/ERC1155/ERC1155.sol\":8418:8422   */\n      dup8\n        /* \"@openzeppelin/contracts/token/ERC1155/ERC1155.sol\":8368:8394   */\n      tag_271\n        /* \"@openzeppelin/contracts/token/ERC1155/ERC1155.sol\":8368:8423   */\n      jump\t// in\n    tag_293:\n        /* \"@openzeppelin/contracts/token/ERC1155/ERC1155.sol\":8075:8430   */\n      pop\n      pop\n        /* \"@openzeppelin/contracts/token/ERC1155/ERC1155.sol\":7967:8430   */\n      pop\n      pop\n      pop\n      pop\n      pop\n      jump\t// out\n        /* \"@openzeppelin/contracts/token/ERC1155/ERC1155.sol\":1345:1650   */\n    tag_255:\n        /* \"@openzeppelin/contracts/token/ERC1155/ERC1155.sol\":1447:1451   */\n      0x00\n      not(sub(shl(0xe0, 0x01), 0x01))\n        /* \"@openzeppelin/contracts/token/ERC1155/ERC1155.sol\":1482:1523   */\n      dup3\n      and\n      shl(0xe1, 0x6cdb3d13)\n      eq\n      dup1\n        /* \"@openzeppelin/contracts/token/ERC1155/ERC1155.sol\":1482:1591   */\n      tag_295\n      jumpi\n      pop\n      not(sub(shl(0xe0, 0x01), 0x01))\n        /* \"@openzeppelin/contracts/token/ERC1155/ERC1155.sol\":1539:1591   */\n      dup3\n      and\n      shl(0xe2, 0x03a24d07)\n      eq\n        /* \"@openzeppelin/contracts/token/ERC1155/ERC1155.sol\":1482:1591   */\n    tag_295:\n        /* \"@openzeppelin/contracts/token/ERC1155/ERC1155.sol\":1482:1643   */\n      dup1\n      tag_136\n      jumpi\n      pop\n      shl(0xe0, 0x01ffc9a7)\n      not(sub(shl(0xe0, 0x01), 0x01))\n        /* \"@openzeppelin/contracts/utils/introspection/ERC165.sol\":829:869   */\n      dup4\n      and\n      eq\n        /* \"@openzeppelin/contracts/token/ERC1155/ERC1155.sol\":1607:1643   */\n      tag_136\n        /* \"@openzeppelin/contracts/utils/introspection/ERC165.sol\":730:876   */\n      jump\n        /* \"@openzeppelin/contracts/token/ERC1155/ERC1155.sol\":6810:7510   */\n    tag_271:\n        /* \"@openzeppelin/contracts/token/ERC1155/ERC1155.sol\":7011:7041   */\n      tag_301\n        /* \"@openzeppelin/contracts/token/ERC1155/ERC1155.sol\":7019:7023   */\n      dup6\n        /* \"@openzeppelin/contracts/token/ERC1155/ERC1155.sol\":7025:7027   */\n      dup6\n        /* \"@openzeppelin/contracts/token/ERC1155/ERC1155.sol\":7029:7032   */\n      dup6\n        /* \"@openzeppelin/contracts/token/ERC1155/ERC1155.sol\":7034:7040   */\n      dup6\n        /* \"@openzeppelin/contracts/token/ERC1155/ERC1155.sol\":7011:7018   */\n      tag_302\n        /* \"@openzeppelin/contracts/token/ERC1155/ERC1155.sol\":7011:7041   */\n      jump\t// in\n    tag_301:\n      sub(shl(0xa0, 0x01), 0x01)\n        /* \"@openzeppelin/contracts/token/ERC1155/ERC1155.sol\":7055:7071   */\n      dup5\n      and\n      iszero\n        /* \"@openzeppelin/contracts/token/ERC1155/ERC1155.sol\":7051:7504   */\n      tag_279\n      jumpi\n        /* \"@openzeppelin/contracts/token/ERC1155/ERC1155.sol\":7136:7146   */\n      dup3\n      mload\n        /* \"@openzeppelin/contracts/utils/Context.sol\":735:745   */\n      caller\n      swap1\n        /* \"@openzeppelin/contracts/token/ERC1155/ERC1155.sol\":7150:7151   */\n      0x01\n        /* \"@openzeppelin/contracts/token/ERC1155/ERC1155.sol\":7136:7151   */\n      sub\n        /* \"@openzeppelin/contracts/token/ERC1155/ERC1155.sol\":7132:7494   */\n      tag_305\n      jumpi\n        /* \"@openzeppelin/contracts/utils/Arrays.sol\":17259:17263   */\n      0x20\n        /* \"@openzeppelin/contracts/utils/Arrays.sol\":17230:17265   */\n      dup5\n      dup2\n      add\n        /* \"@openzeppelin/contracts/utils/Arrays.sol\":17224:17266   */\n      mload\n        /* \"@openzeppelin/contracts/utils/Arrays.sol\":17230:17265   */\n      swap1\n      dup5\n      add\n        /* \"@openzeppelin/contracts/utils/Arrays.sol\":17224:17266   */\n      mload\n        /* \"@openzeppelin/contracts/token/ERC1155/ERC1155.sol\":7289:7361   */\n      tag_308\n        /* \"@openzeppelin/contracts/token/ERC1155/ERC1155.sol\":7325:7333   */\n      dup4\n        /* \"@openzeppelin/contracts/token/ERC1155/ERC1155.sol\":7335:7339   */\n      dup10\n        /* \"@openzeppelin/contracts/token/ERC1155/ERC1155.sol\":7341:7343   */\n      dup10\n        /* \"@openzeppelin/contracts/utils/Arrays.sol\":17224:17266   */\n      dup6\n      dup6\n        /* \"@openzeppelin/contracts/token/ERC1155/ERC1155.sol\":7356:7360   */\n      dup10\n        /* \"@openzeppelin/contracts/token/ERC1155/ERC1155.sol\":7289:7324   */\n      tag_309\n        /* \"@openzeppelin/contracts/token/ERC1155/ERC1155.sol\":7289:7361   */\n      jump\t// in\n    tag_308:\n        /* \"@openzeppelin/contracts/token/ERC1155/ERC1155.sol\":7153:7376   */\n      pop\n      pop\n        /* \"@openzeppelin/contracts/token/ERC1155/ERC1155.sol\":7132:7494   */\n      jump(tag_187)\n    tag_305:\n        /* \"@openzeppelin/contracts/token/ERC1155/ERC1155.sol\":7400:7479   */\n      tag_187\n        /* \"@openzeppelin/contracts/token/ERC1155/ERC1155.sol\":7441:7449   */\n      dup2\n        /* \"@openzeppelin/contracts/token/ERC1155/ERC1155.sol\":7451:7455   */\n      dup8\n        /* \"@openzeppelin/contracts/token/ERC1155/ERC1155.sol\":7457:7459   */\n      dup8\n        /* \"@openzeppelin/contracts/token/ERC1155/ERC1155.sol\":7461:7464   */\n      dup8\n        /* \"@openzeppelin/contracts/token/ERC1155/ERC1155.sol\":7466:7472   */\n      dup8\n        /* \"@openzeppelin/contracts/token/ERC1155/ERC1155.sol\":7474:7478   */\n      dup8\n        /* \"@openzeppelin/contracts/token/ERC1155/ERC1155.sol\":7400:7440   */\n      tag_312\n        /* \"@openzeppelin/contracts/token/ERC1155/ERC1155.sol\":7400:7479   */\n      jump\t// in\n        /* \"@openzeppelin/contracts/token/ERC1155/ERC1155.sol\":4950:6231   */\n    tag_302:\n        /* \"@openzeppelin/contracts/token/ERC1155/ERC1155.sol\":5085:5091   */\n      dup1\n        /* \"@openzeppelin/contracts/token/ERC1155/ERC1155.sol\":5085:5098   */\n      mload\n        /* \"@openzeppelin/contracts/token/ERC1155/ERC1155.sol\":5071:5074   */\n      dup3\n        /* \"@openzeppelin/contracts/token/ERC1155/ERC1155.sol\":5071:5081   */\n      mload\n        /* \"@openzeppelin/contracts/token/ERC1155/ERC1155.sol\":5071:5098   */\n      eq\n        /* \"@openzeppelin/contracts/token/ERC1155/ERC1155.sol\":5067:5184   */\n      tag_315\n      jumpi\n        /* \"@openzeppelin/contracts/token/ERC1155/ERC1155.sol\":5147:5157   */\n      dup2\n      mload\n        /* \"@openzeppelin/contracts/token/ERC1155/ERC1155.sol\":5159:5172   */\n      dup2\n      mload\n        /* \"@openzeppelin/contracts/token/ERC1155/ERC1155.sol\":5121:5173   */\n      mload(0x40)\n      shl(0xe0, 0x5b059991)\n      dup2\n      mstore\n      0x04\n      dup2\n      add\n        /* \"#utility.yul\":12713:12738   */\n      swap3\n      swap1\n      swap3\n      mstore\n        /* \"#utility.yul\":12754:12772   */\n      0x24\n      dup3\n      add\n        /* \"#utility.yul\":12747:12781   */\n      mstore\n        /* \"#utility.yul\":12686:12704   */\n      0x44\n      add\n        /* \"@openzeppelin/contracts/token/ERC1155/ERC1155.sol\":5121:5173   */\n      tag_162\n        /* \"#utility.yul\":12539:12787   */\n      jump\n        /* \"@openzeppelin/contracts/token/ERC1155/ERC1155.sol\":5067:5184   */\n    tag_315:\n        /* \"@openzeppelin/contracts/utils/Context.sol\":735:745   */\n      caller\n        /* \"@openzeppelin/contracts/token/ERC1155/ERC1155.sol\":5194:5210   */\n      0x00\n        /* \"@openzeppelin/contracts/token/ERC1155/ERC1155.sol\":5236:5927   */\n    tag_318:\n        /* \"@openzeppelin/contracts/token/ERC1155/ERC1155.sol\":5260:5263   */\n      dup4\n        /* \"@openzeppelin/contracts/token/ERC1155/ERC1155.sol\":5260:5270   */\n      mload\n        /* \"@openzeppelin/contracts/token/ERC1155/ERC1155.sol\":5256:5257   */\n      dup2\n        /* \"@openzeppelin/contracts/token/ERC1155/ERC1155.sol\":5256:5270   */\n      lt\n        /* \"@openzeppelin/contracts/token/ERC1155/ERC1155.sol\":5236:5927   */\n      iszero\n      tag_319\n      jumpi\n        /* \"@openzeppelin/contracts/utils/Arrays.sol\":17259:17263   */\n      0x20\n        /* \"@openzeppelin/contracts/utils/Arrays.sol\":17250:17264   */\n      dup2\n      dup2\n      mul\n        /* \"@openzeppelin/contracts/utils/Arrays.sol\":17230:17265   */\n      dup6\n      dup2\n      add\n      dup3\n      add\n        /* \"@openzeppelin/contracts/utils/Arrays.sol\":17224:17266   */\n      mload\n        /* \"@openzeppelin/contracts/utils/Arrays.sol\":17230:17265   */\n      swap1\n      dup6\n      add\n      swap1\n      swap2\n      add\n        /* \"@openzeppelin/contracts/utils/Arrays.sol\":17224:17266   */\n      mload\n      sub(shl(0xa0, 0x01), 0x01)\n        /* \"@openzeppelin/contracts/token/ERC1155/ERC1155.sol\":5406:5424   */\n      dup9\n      and\n      iszero\n        /* \"@openzeppelin/contracts/token/ERC1155/ERC1155.sol\":5402:5822   */\n      tag_323\n      jumpi\n        /* \"@openzeppelin/contracts/token/ERC1155/ERC1155.sol\":5444:5463   */\n      0x00\n        /* \"@openzeppelin/contracts/token/ERC1155/ERC1155.sol\":5466:5479   */\n      dup3\n      dup2\n      mstore\n      0x20\n      dup2\n      dup2\n      mstore\n      0x40\n      dup1\n      dup4\n      keccak256\n      sub(shl(0xa0, 0x01), 0x01)\n        /* \"@openzeppelin/contracts/token/ERC1155/ERC1155.sol\":5466:5485   */\n      dup13\n      and\n      dup5\n      mstore\n      swap1\n      swap2\n      mstore\n      swap1\n      keccak256\n      sload\n        /* \"@openzeppelin/contracts/token/ERC1155/ERC1155.sol\":5507:5526   */\n      dup2\n      dup2\n      lt\n        /* \"@openzeppelin/contracts/token/ERC1155/ERC1155.sol\":5503:5632   */\n      iszero\n      tag_324\n      jumpi\n        /* \"@openzeppelin/contracts/token/ERC1155/ERC1155.sol\":5557:5613   */\n      mload(0x40)\n      shl(0xe0, 0x03dee4c5)\n      dup2\n      mstore\n      sub(shl(0xa0, 0x01), 0x01)\n        /* \"#utility.yul\":15343:15398   */\n      dup11\n      and\n        /* \"@openzeppelin/contracts/token/ERC1155/ERC1155.sol\":5557:5613   */\n      0x04\n      dup3\n      add\n        /* \"#utility.yul\":15325:15399   */\n      mstore\n        /* \"#utility.yul\":15415:15433   */\n      0x24\n      dup2\n      add\n        /* \"#utility.yul\":15408:15442   */\n      dup3\n      swap1\n      mstore\n        /* \"#utility.yul\":15458:15476   */\n      0x44\n      dup2\n      add\n        /* \"#utility.yul\":15451:15485   */\n      dup4\n      swap1\n      mstore\n        /* \"#utility.yul\":15501:15519   */\n      0x64\n      dup2\n      add\n        /* \"#utility.yul\":15494:15528   */\n      dup5\n      swap1\n      mstore\n        /* \"#utility.yul\":15297:15316   */\n      0x84\n      add\n        /* \"@openzeppelin/contracts/token/ERC1155/ERC1155.sol\":5557:5613   */\n      tag_162\n        /* \"#utility.yul\":15094:15534   */\n      jump\n        /* \"@openzeppelin/contracts/token/ERC1155/ERC1155.sol\":5503:5632   */\n    tag_324:\n        /* \"@openzeppelin/contracts/token/ERC1155/ERC1155.sol\":5748:5757   */\n      0x00\n        /* \"@openzeppelin/contracts/token/ERC1155/ERC1155.sol\":5748:5761   */\n      dup4\n      dup2\n      mstore\n      0x20\n      dup2\n      dup2\n      mstore\n      0x40\n      dup1\n      dup4\n      keccak256\n      sub(shl(0xa0, 0x01), 0x01)\n        /* \"@openzeppelin/contracts/token/ERC1155/ERC1155.sol\":5748:5767   */\n      dup14\n      and\n      dup5\n      mstore\n      swap1\n      swap2\n      mstore\n      swap1\n      keccak256\n        /* \"@openzeppelin/contracts/token/ERC1155/ERC1155.sol\":5770:5789   */\n      swap1\n      dup3\n      swap1\n      sub\n        /* \"@openzeppelin/contracts/token/ERC1155/ERC1155.sol\":5748:5789   */\n      swap1\n      sstore\n        /* \"@openzeppelin/contracts/token/ERC1155/ERC1155.sol\":5402:5822   */\n    tag_323:\n      sub(shl(0xa0, 0x01), 0x01)\n        /* \"@openzeppelin/contracts/token/ERC1155/ERC1155.sol\":5840:5856   */\n      dup8\n      and\n      iszero\n        /* \"@openzeppelin/contracts/token/ERC1155/ERC1155.sol\":5836:5917   */\n      tag_327\n      jumpi\n        /* \"@openzeppelin/contracts/token/ERC1155/ERC1155.sol\":5876:5885   */\n      0x00\n        /* \"@openzeppelin/contracts/token/ERC1155/ERC1155.sol\":5876:5889   */\n      dup3\n      dup2\n      mstore\n      0x20\n      dup2\n      dup2\n      mstore\n      0x40\n      dup1\n      dup4\n      keccak256\n      sub(shl(0xa0, 0x01), 0x01)\n        /* \"@openzeppelin/contracts/token/ERC1155/ERC1155.sol\":5876:5893   */\n      dup12\n      and\n      dup5\n      mstore\n      swap1\n      swap2\n      mstore\n      dup2\n      keccak256\n        /* \"@openzeppelin/contracts/token/ERC1155/ERC1155.sol\":5876:5902   */\n      dup1\n      sload\n        /* \"@openzeppelin/contracts/token/ERC1155/ERC1155.sol\":5897:5902   */\n      dup4\n      swap3\n        /* \"@openzeppelin/contracts/token/ERC1155/ERC1155.sol\":5876:5885   */\n      swap1\n        /* \"@openzeppelin/contracts/token/ERC1155/ERC1155.sol\":5876:5902   */\n      tag_328\n      swap1\n        /* \"@openzeppelin/contracts/token/ERC1155/ERC1155.sol\":5897:5902   */\n      dup5\n      swap1\n        /* \"@openzeppelin/contracts/token/ERC1155/ERC1155.sol\":5876:5902   */\n      tag_165\n      jump\t// in\n    tag_328:\n      swap1\n      swap2\n      sstore\n      pop\n      pop\n        /* \"@openzeppelin/contracts/token/ERC1155/ERC1155.sol\":5836:5917   */\n    tag_327:\n      pop\n      pop\n        /* \"@openzeppelin/contracts/token/ERC1155/ERC1155.sol\":5272:5275   */\n      0x01\n      add\n        /* \"@openzeppelin/contracts/token/ERC1155/ERC1155.sol\":5236:5927   */\n      jump(tag_318)\n    tag_319:\n      pop\n        /* \"@openzeppelin/contracts/token/ERC1155/ERC1155.sol\":5941:5944   */\n      dup3\n        /* \"@openzeppelin/contracts/token/ERC1155/ERC1155.sol\":5941:5951   */\n      mload\n        /* \"@openzeppelin/contracts/token/ERC1155/ERC1155.sol\":5955:5956   */\n      0x01\n        /* \"@openzeppelin/contracts/token/ERC1155/ERC1155.sol\":5941:5956   */\n      sub\n        /* \"@openzeppelin/contracts/token/ERC1155/ERC1155.sol\":5937:6225   */\n      tag_329\n      jumpi\n        /* \"@openzeppelin/contracts/utils/Arrays.sol\":17259:17263   */\n      0x20\n        /* \"@openzeppelin/contracts/utils/Arrays.sol\":17230:17265   */\n      dup4\n      add\n        /* \"@openzeppelin/contracts/utils/Arrays.sol\":17224:17266   */\n      mload\n        /* \"@openzeppelin/contracts/token/ERC1155/ERC1155.sol\":5972:5982   */\n      0x00\n      swap1\n        /* \"@openzeppelin/contracts/utils/Arrays.sol\":17259:17263   */\n      0x20\n        /* \"@openzeppelin/contracts/utils/Arrays.sol\":17230:17265   */\n      dup5\n      add\n        /* \"@openzeppelin/contracts/utils/Arrays.sol\":17224:17266   */\n      mload\n        /* \"@openzeppelin/contracts/token/ERC1155/ERC1155.sol\":5972:6010   */\n      swap1\n      swap2\n      pop\n        /* \"@openzeppelin/contracts/token/ERC1155/ERC1155.sol\":6118:6120   */\n      dup6\n      sub(shl(0xa0, 0x01), 0x01)\n        /* \"@openzeppelin/contracts/token/ERC1155/ERC1155.sol\":6087:6132   */\n      and\n        /* \"@openzeppelin/contracts/token/ERC1155/ERC1155.sol\":6112:6116   */\n      dup8\n      sub(shl(0xa0, 0x01), 0x01)\n        /* \"@openzeppelin/contracts/token/ERC1155/ERC1155.sol\":6087:6132   */\n      and\n        /* \"@openzeppelin/contracts/token/ERC1155/ERC1155.sol\":6102:6110   */\n      dup5\n      sub(shl(0xa0, 0x01), 0x01)\n        /* \"@openzeppelin/contracts/token/ERC1155/ERC1155.sol\":6087:6132   */\n      and\n      0xc3d58168c5ae7397731d063d5bbf3d657854427343f4c083240f7aacaa2d0f62\n        /* \"@openzeppelin/contracts/token/ERC1155/ERC1155.sol\":6122:6124   */\n      dup6\n        /* \"@openzeppelin/contracts/token/ERC1155/ERC1155.sol\":6126:6131   */\n      dup6\n        /* \"@openzeppelin/contracts/token/ERC1155/ERC1155.sol\":6087:6132   */\n      mload(0x40)\n      tag_332\n      swap3\n      swap2\n      swap1\n        /* \"#utility.yul\":12713:12738   */\n      swap2\n      dup3\n      mstore\n        /* \"#utility.yul\":12769:12771   */\n      0x20\n        /* \"#utility.yul\":12754:12772   */\n      dup3\n      add\n        /* \"#utility.yul\":12747:12781   */\n      mstore\n        /* \"#utility.yul\":12701:12703   */\n      0x40\n        /* \"#utility.yul\":12686:12704   */\n      add\n      swap1\n        /* \"#utility.yul\":12539:12787   */\n      jump\n        /* \"@openzeppelin/contracts/token/ERC1155/ERC1155.sol\":6087:6132   */\n    tag_332:\n      mload(0x40)\n      dup1\n      swap2\n      sub\n      swap1\n      log4\n        /* \"@openzeppelin/contracts/token/ERC1155/ERC1155.sol\":5958:6143   */\n      pop\n      pop\n        /* \"@openzeppelin/contracts/token/ERC1155/ERC1155.sol\":5937:6225   */\n      jump(tag_279)\n    tag_329:\n        /* \"@openzeppelin/contracts/token/ERC1155/ERC1155.sol\":6198:6200   */\n      dup4\n      sub(shl(0xa0, 0x01), 0x01)\n        /* \"@openzeppelin/contracts/token/ERC1155/ERC1155.sol\":6168:6214   */\n      and\n        /* \"@openzeppelin/contracts/token/ERC1155/ERC1155.sol\":6192:6196   */\n      dup6\n      sub(shl(0xa0, 0x01), 0x01)\n        /* \"@openzeppelin/contracts/token/ERC1155/ERC1155.sol\":6168:6214   */\n      and\n        /* \"@openzeppelin/contracts/token/ERC1155/ERC1155.sol\":6182:6190   */\n      dup3\n      sub(shl(0xa0, 0x01), 0x01)\n        /* \"@openzeppelin/contracts/token/ERC1155/ERC1155.sol\":6168:6214   */\n      and\n      0x4a39dc06d4c0dbc64b70af90fd698a233a518aa5d07e595d983b8c0526c8f7fb\n        /* \"@openzeppelin/contracts/token/ERC1155/ERC1155.sol\":6202:6205   */\n      dup7\n        /* \"@openzeppelin/contracts/token/ERC1155/ERC1155.sol\":6207:6213   */\n      dup7\n        /* \"@openzeppelin/contracts/token/ERC1155/ERC1155.sol\":6168:6214   */\n      mload(0x40)\n      tag_334\n      swap3\n      swap2\n      swap1\n      tag_335\n      jump\t// in\n    tag_334:\n      mload(0x40)\n      dup1\n      swap2\n      sub\n      swap1\n      log4\n        /* \"@openzeppelin/contracts/token/ERC1155/ERC1155.sol\":5057:6231   */\n      pop\n        /* \"@openzeppelin/contracts/token/ERC1155/ERC1155.sol\":4950:6231   */\n      pop\n      pop\n      pop\n      pop\n      jump\t// out\n        /* \"@openzeppelin/contracts/token/ERC1155/utils/ERC1155Utils.sol\":1006:1967   */\n    tag_309:\n      sub(shl(0xa0, 0x01), 0x01)\n        /* \"@openzeppelin/contracts/token/ERC1155/utils/ERC1155Utils.sol\":1205:1219   */\n      dup5\n      and\n      extcodesize\n        /* \"@openzeppelin/contracts/token/ERC1155/utils/ERC1155Utils.sol\":1205:1223   */\n      iszero\n        /* \"@openzeppelin/contracts/token/ERC1155/utils/ERC1155Utils.sol\":1201:1961   */\n      tag_187\n      jumpi\n        /* \"@openzeppelin/contracts/token/ERC1155/utils/ERC1155Utils.sol\":1243:1314   */\n      mload(0x40)\n      shl(0xe0, 0xf23a6e61)\n      dup2\n      mstore\n      sub(shl(0xa0, 0x01), 0x01)\n        /* \"@openzeppelin/contracts/token/ERC1155/utils/ERC1155Utils.sol\":1243:1281   */\n      dup6\n      and\n      swap1\n      0xf23a6e61\n      swap1\n        /* \"@openzeppelin/contracts/token/ERC1155/utils/ERC1155Utils.sol\":1243:1314   */\n      tag_338\n      swap1\n        /* \"@openzeppelin/contracts/token/ERC1155/utils/ERC1155Utils.sol\":1282:1290   */\n      dup10\n      swap1\n        /* \"@openzeppelin/contracts/token/ERC1155/utils/ERC1155Utils.sol\":1292:1296   */\n      dup10\n      swap1\n        /* \"@openzeppelin/contracts/token/ERC1155/utils/ERC1155Utils.sol\":1298:1300   */\n      dup9\n      swap1\n        /* \"@openzeppelin/contracts/token/ERC1155/utils/ERC1155Utils.sol\":1302:1307   */\n      dup9\n      swap1\n        /* \"@openzeppelin/contracts/token/ERC1155/utils/ERC1155Utils.sol\":1309:1313   */\n      dup9\n      swap1\n        /* \"@openzeppelin/contracts/token/ERC1155/utils/ERC1155Utils.sol\":1243:1314   */\n      0x04\n      add\n      tag_339\n      jump\t// in\n    tag_338:\n      0x20\n      mload(0x40)\n      dup1\n      dup4\n      sub\n      dup2\n      0x00\n      dup8\n      gas\n      call\n      swap3\n      pop\n      pop\n      pop\n      dup1\n      iszero\n      tag_340\n      jumpi\n      pop\n      0x40\n      dup1\n      mload\n      0x1f\n      returndatasize\n      swap1\n      dup2\n      add\n      not(0x1f)\n      and\n      dup3\n      add\n      swap1\n      swap3\n      mstore\n      tag_341\n      swap2\n      dup2\n      add\n      swap1\n      tag_342\n      jump\t// in\n    tag_341:\n      0x01\n    tag_340:\n        /* \"@openzeppelin/contracts/token/ERC1155/utils/ERC1155Utils.sol\":1239:1951   */\n      tag_343\n      jumpi\n      returndatasize\n      dup1\n      dup1\n      iszero\n      tag_348\n      jumpi\n      mload(0x40)\n      swap2\n      pop\n      and(add(returndatasize, 0x3f), not(0x1f))\n      dup3\n      add\n      0x40\n      mstore\n      returndatasize\n      dup3\n      mstore\n      returndatasize\n      0x00\n      0x20\n      dup5\n      add\n      returndatacopy\n      jump(tag_347)\n    tag_348:\n      0x60\n      swap2\n      pop\n    tag_347:\n      pop\n        /* \"@openzeppelin/contracts/token/ERC1155/utils/ERC1155Utils.sol\":1613:1619   */\n      dup1\n        /* \"@openzeppelin/contracts/token/ERC1155/utils/ERC1155Utils.sol\":1613:1626   */\n      mload\n        /* \"@openzeppelin/contracts/token/ERC1155/utils/ERC1155Utils.sol\":1630:1631   */\n      0x00\n        /* \"@openzeppelin/contracts/token/ERC1155/utils/ERC1155Utils.sol\":1613:1631   */\n      sub\n        /* \"@openzeppelin/contracts/token/ERC1155/utils/ERC1155Utils.sol\":1609:1937   */\n      tag_349\n      jumpi\n        /* \"@openzeppelin/contracts/token/ERC1155/utils/ERC1155Utils.sol\":1718:1759   */\n      mload(0x40)\n      shl(0xe1, 0x2bfa23e7)\n      dup2\n      mstore\n      sub(shl(0xa0, 0x01), 0x01)\n        /* \"#utility.yul\":7849:7904   */\n      dup7\n      and\n        /* \"@openzeppelin/contracts/token/ERC1155/utils/ERC1155Utils.sol\":1718:1759   */\n      0x04\n      dup3\n      add\n        /* \"#utility.yul\":7831:7905   */\n      mstore\n        /* \"#utility.yul\":7804:7822   */\n      0x24\n      add\n        /* \"@openzeppelin/contracts/token/ERC1155/utils/ERC1155Utils.sol\":1718:1759   */\n      tag_162\n        /* \"#utility.yul\":7669:7911   */\n      jump\n        /* \"@openzeppelin/contracts/token/ERC1155/utils/ERC1155Utils.sol\":1609:1937   */\n    tag_349:\n        /* \"@openzeppelin/contracts/token/ERC1155/utils/ERC1155Utils.sol\":1889:1895   */\n      dup1\n        /* \"@openzeppelin/contracts/token/ERC1155/utils/ERC1155Utils.sol\":1883:1896   */\n      mload\n        /* \"@openzeppelin/contracts/token/ERC1155/utils/ERC1155Utils.sol\":1876:1880   */\n      0x20\n        /* \"@openzeppelin/contracts/token/ERC1155/utils/ERC1155Utils.sol\":1868:1874   */\n      dup3\n        /* \"@openzeppelin/contracts/token/ERC1155/utils/ERC1155Utils.sol\":1864:1881   */\n      add\n        /* \"@openzeppelin/contracts/token/ERC1155/utils/ERC1155Utils.sol\":1857:1897   */\n      revert\n        /* \"@openzeppelin/contracts/token/ERC1155/utils/ERC1155Utils.sol\":1239:1951   */\n    tag_343:\n      not(sub(shl(0xe0, 0x01), 0x01))\n        /* \"@openzeppelin/contracts/token/ERC1155/utils/ERC1155Utils.sol\":1363:1418   */\n      dup2\n      and\n      shl(0xe0, 0xf23a6e61)\n      eq\n        /* \"@openzeppelin/contracts/token/ERC1155/utils/ERC1155Utils.sol\":1359:1548   */\n      tag_293\n      jumpi\n        /* \"@openzeppelin/contracts/token/ERC1155/utils/ERC1155Utils.sol\":1488:1529   */\n      mload(0x40)\n      shl(0xe1, 0x2bfa23e7)\n      dup2\n      mstore\n      sub(shl(0xa0, 0x01), 0x01)\n        /* \"#utility.yul\":7849:7904   */\n      dup7\n      and\n        /* \"@openzeppelin/contracts/token/ERC1155/utils/ERC1155Utils.sol\":1488:1529   */\n      0x04\n      dup3\n      add\n        /* \"#utility.yul\":7831:7905   */\n      mstore\n        /* \"#utility.yul\":7804:7822   */\n      0x24\n      add\n        /* \"@openzeppelin/contracts/token/ERC1155/utils/ERC1155Utils.sol\":1488:1529   */\n      tag_162\n        /* \"#utility.yul\":7669:7911   */\n      jump\n        /* \"@openzeppelin/contracts/token/ERC1155/utils/ERC1155Utils.sol\":2523:3551   */\n    tag_312:\n      sub(shl(0xa0, 0x01), 0x01)\n        /* \"@openzeppelin/contracts/token/ERC1155/utils/ERC1155Utils.sol\":2747:2761   */\n      dup5\n      and\n      extcodesize\n        /* \"@openzeppelin/contracts/token/ERC1155/utils/ERC1155Utils.sol\":2747:2765   */\n      iszero\n        /* \"@openzeppelin/contracts/token/ERC1155/utils/ERC1155Utils.sol\":2743:3545   */\n      tag_187\n      jumpi\n        /* \"@openzeppelin/contracts/token/ERC1155/utils/ERC1155Utils.sol\":2785:2863   */\n      mload(0x40)\n      shl(0xe0, 0xbc197c81)\n      dup2\n      mstore\n      sub(shl(0xa0, 0x01), 0x01)\n        /* \"@openzeppelin/contracts/token/ERC1155/utils/ERC1155Utils.sol\":2785:2828   */\n      dup6\n      and\n      swap1\n      0xbc197c81\n      swap1\n        /* \"@openzeppelin/contracts/token/ERC1155/utils/ERC1155Utils.sol\":2785:2863   */\n      tag_357\n      swap1\n        /* \"@openzeppelin/contracts/token/ERC1155/utils/ERC1155Utils.sol\":2829:2837   */\n      dup10\n      swap1\n        /* \"@openzeppelin/contracts/token/ERC1155/utils/ERC1155Utils.sol\":2839:2843   */\n      dup10\n      swap1\n        /* \"@openzeppelin/contracts/token/ERC1155/utils/ERC1155Utils.sol\":2845:2848   */\n      dup9\n      swap1\n        /* \"@openzeppelin/contracts/token/ERC1155/utils/ERC1155Utils.sol\":2850:2856   */\n      dup9\n      swap1\n        /* \"@openzeppelin/contracts/token/ERC1155/utils/ERC1155Utils.sol\":2858:2862   */\n      dup9\n      swap1\n        /* \"@openzeppelin/contracts/token/ERC1155/utils/ERC1155Utils.sol\":2785:2863   */\n      0x04\n      add\n      tag_358\n      jump\t// in\n    tag_357:\n      0x20\n      mload(0x40)\n      dup1\n      dup4\n      sub\n      dup2\n      0x00\n      dup8\n      gas\n      call\n      swap3\n      pop\n      pop\n      pop\n      dup1\n      iszero\n      tag_359\n      jumpi\n      pop\n      0x40\n      dup1\n      mload\n      0x1f\n      returndatasize\n      swap1\n      dup2\n      add\n      not(0x1f)\n      and\n      dup3\n      add\n      swap1\n      swap3\n      mstore\n      tag_360\n      swap2\n      dup2\n      add\n      swap1\n      tag_342\n      jump\t// in\n    tag_360:\n      0x01\n    tag_359:\n        /* \"@openzeppelin/contracts/token/ERC1155/utils/ERC1155Utils.sol\":2781:3535   */\n      tag_361\n      jumpi\n      returndatasize\n      dup1\n      dup1\n      iszero\n      tag_348\n      jumpi\n      mload(0x40)\n      swap2\n      pop\n      and(add(returndatasize, 0x3f), not(0x1f))\n      dup3\n      add\n      0x40\n      mstore\n      returndatasize\n      dup3\n      mstore\n      returndatasize\n      0x00\n      0x20\n      dup5\n      add\n      returndatacopy\n      jump(tag_347)\n    tag_361:\n      not(sub(shl(0xe0, 0x01), 0x01))\n        /* \"@openzeppelin/contracts/token/ERC1155/utils/ERC1155Utils.sol\":2942:3002   */\n      dup2\n      and\n      shl(0xe0, 0xbc197c81)\n      eq\n        /* \"@openzeppelin/contracts/token/ERC1155/utils/ERC1155Utils.sol\":2938:3132   */\n      tag_293\n      jumpi\n        /* \"@openzeppelin/contracts/token/ERC1155/utils/ERC1155Utils.sol\":3072:3113   */\n      mload(0x40)\n      shl(0xe1, 0x2bfa23e7)\n      dup2\n      mstore\n      sub(shl(0xa0, 0x01), 0x01)\n        /* \"#utility.yul\":7849:7904   */\n      dup7\n      and\n        /* \"@openzeppelin/contracts/token/ERC1155/utils/ERC1155Utils.sol\":3072:3113   */\n      0x04\n      dup3\n      add\n        /* \"#utility.yul\":7831:7905   */\n      mstore\n        /* \"#utility.yul\":7804:7822   */\n      0x24\n      add\n        /* \"@openzeppelin/contracts/token/ERC1155/utils/ERC1155Utils.sol\":3072:3113   */\n      tag_162\n        /* \"#utility.yul\":7669:7911   */\n      jump\n        /* \"#utility.yul\":14:210   */\n    tag_373:\n        /* \"#utility.yul\":82:102   */\n      dup1\n      calldataload\n      sub(shl(0xa0, 0x01), 0x01)\n        /* \"#utility.yul\":131:185   */\n      dup2\n      and\n        /* \"#utility.yul\":121:186   */\n      dup2\n      eq\n        /* \"#utility.yul\":111:204   */\n      tag_388\n      jumpi\n        /* \"#utility.yul\":200:201   */\n      0x00\n        /* \"#utility.yul\":197:198   */\n      dup1\n        /* \"#utility.yul\":190:202   */\n      revert\n        /* \"#utility.yul\":111:204   */\n    tag_388:\n        /* \"#utility.yul\":14:210   */\n      swap2\n      swap1\n      pop\n      jump\t// out\n        /* \"#utility.yul\":215:469   */\n    tag_33:\n        /* \"#utility.yul\":283:289   */\n      0x00\n        /* \"#utility.yul\":291:297   */\n      dup1\n        /* \"#utility.yul\":344:346   */\n      0x40\n        /* \"#utility.yul\":332:341   */\n      dup4\n        /* \"#utility.yul\":323:330   */\n      dup6\n        /* \"#utility.yul\":319:342   */\n      sub\n        /* \"#utility.yul\":315:347   */\n      slt\n        /* \"#utility.yul\":312:364   */\n      iszero\n      tag_390\n      jumpi\n        /* \"#utility.yul\":360:361   */\n      0x00\n        /* \"#utility.yul\":357:358   */\n      dup1\n        /* \"#utility.yul\":350:362   */\n      revert\n        /* \"#utility.yul\":312:364   */\n    tag_390:\n        /* \"#utility.yul\":383:412   */\n      tag_391\n        /* \"#utility.yul\":402:411   */\n      dup4\n        /* \"#utility.yul\":383:412   */\n      tag_373\n      jump\t// in\n    tag_391:\n        /* \"#utility.yul\":373:412   */\n      swap5\n        /* \"#utility.yul\":459:461   */\n      0x20\n        /* \"#utility.yul\":444:462   */\n      swap4\n      swap1\n      swap4\n      add\n        /* \"#utility.yul\":431:463   */\n      calldataload\n      swap4\n      pop\n      pop\n      pop\n        /* \"#utility.yul\":215:469   */\n      jump\t// out\n        /* \"#utility.yul\":656:787   */\n    tag_374:\n      not(sub(shl(0xe0, 0x01), 0x01))\n        /* \"#utility.yul\":730:762   */\n      dup2\n      and\n        /* \"#utility.yul\":720:763   */\n      dup2\n      eq\n        /* \"#utility.yul\":710:781   */\n      tag_144\n      jumpi\n        /* \"#utility.yul\":777:778   */\n      0x00\n        /* \"#utility.yul\":774:775   */\n      dup1\n        /* \"#utility.yul\":767:779   */\n      revert\n        /* \"#utility.yul\":792:1037   */\n    tag_40:\n        /* \"#utility.yul\":850:856   */\n      0x00\n        /* \"#utility.yul\":903:905   */\n      0x20\n        /* \"#utility.yul\":891:900   */\n      dup3\n        /* \"#utility.yul\":882:889   */\n      dup5\n        /* \"#utility.yul\":878:901   */\n      sub\n        /* \"#utility.yul\":874:906   */\n      slt\n        /* \"#utility.yul\":871:923   */\n      iszero\n      tag_396\n      jumpi\n        /* \"#utility.yul\":919:920   */\n      0x00\n        /* \"#utility.yul\":916:917   */\n      dup1\n        /* \"#utility.yul\":909:921   */\n      revert\n        /* \"#utility.yul\":871:923   */\n    tag_396:\n        /* \"#utility.yul\":958:967   */\n      dup2\n        /* \"#utility.yul\":945:968   */\n      calldataload\n        /* \"#utility.yul\":977:1007   */\n      tag_397\n        /* \"#utility.yul\":1001:1006   */\n      dup2\n        /* \"#utility.yul\":977:1007   */\n      tag_374\n      jump\t// in\n    tag_397:\n        /* \"#utility.yul\":1026:1031   */\n      swap4\n        /* \"#utility.yul\":792:1037   */\n      swap3\n      pop\n      pop\n      pop\n      jump\t// out\n        /* \"#utility.yul\":1234:1361   */\n    tag_209:\n        /* \"#utility.yul\":1295:1305   */\n      0x4e487b71\n        /* \"#utility.yul\":1290:1293   */\n      0xe0\n        /* \"#utility.yul\":1286:1306   */\n      shl\n        /* \"#utility.yul\":1283:1284   */\n      0x00\n        /* \"#utility.yul\":1276:1307   */\n      mstore\n        /* \"#utility.yul\":1326:1330   */\n      0x41\n        /* \"#utility.yul\":1323:1324   */\n      0x04\n        /* \"#utility.yul\":1316:1331   */\n      mstore\n        /* \"#utility.yul\":1350:1354   */\n      0x24\n        /* \"#utility.yul\":1347:1348   */\n      0x00\n        /* \"#utility.yul\":1340:1355   */\n      revert\n        /* \"#utility.yul\":1366:1641   */\n    tag_375:\n        /* \"#utility.yul\":1437:1439   */\n      0x40\n        /* \"#utility.yul\":1431:1440   */\n      mload\n        /* \"#utility.yul\":1502:1504   */\n      0x1f\n        /* \"#utility.yul\":1483:1496   */\n      dup3\n      add\n      not(0x1f)\n        /* \"#utility.yul\":1479:1506   */\n      and\n        /* \"#utility.yul\":1467:1507   */\n      dup2\n      add\n        /* \"#utility.yul\":1537:1555   */\n      0xffffffffffffffff\n        /* \"#utility.yul\":1522:1556   */\n      dup2\n      gt\n        /* \"#utility.yul\":1558:1580   */\n      dup3\n      dup3\n      lt\n        /* \"#utility.yul\":1519:1581   */\n      or\n        /* \"#utility.yul\":1516:1604   */\n      iszero\n      tag_402\n      jumpi\n        /* \"#utility.yul\":1584:1602   */\n      tag_402\n      tag_209\n      jump\t// in\n    tag_402:\n        /* \"#utility.yul\":1620:1622   */\n      0x40\n        /* \"#utility.yul\":1613:1635   */\n      mstore\n        /* \"#utility.yul\":1366:1641   */\n      swap2\n      swap1\n      pop\n      jump\t// out\n        /* \"#utility.yul\":1646:2053   */\n    tag_376:\n        /* \"#utility.yul\":1711:1716   */\n      0x00\n        /* \"#utility.yul\":1745:1763   */\n      0xffffffffffffffff\n        /* \"#utility.yul\":1737:1743   */\n      dup4\n        /* \"#utility.yul\":1734:1764   */\n      gt\n        /* \"#utility.yul\":1731:1787   */\n      iszero\n      tag_405\n      jumpi\n        /* \"#utility.yul\":1767:1785   */\n      tag_405\n      tag_209\n      jump\t// in\n    tag_405:\n        /* \"#utility.yul\":1805:1862   */\n      tag_406\n        /* \"#utility.yul\":1850:1852   */\n      0x1f\n        /* \"#utility.yul\":1829:1844   */\n      dup5\n      add\n      not(0x1f)\n        /* \"#utility.yul\":1825:1854   */\n      and\n        /* \"#utility.yul\":1856:1860   */\n      0x20\n        /* \"#utility.yul\":1821:1861   */\n      add\n        /* \"#utility.yul\":1805:1862   */\n      tag_375\n      jump\t// in\n    tag_406:\n        /* \"#utility.yul\":1796:1862   */\n      swap1\n      pop\n        /* \"#utility.yul\":1885:1891   */\n      dup3\n        /* \"#utility.yul\":1878:1883   */\n      dup2\n        /* \"#utility.yul\":1871:1892   */\n      mstore\n        /* \"#utility.yul\":1925:1928   */\n      dup4\n        /* \"#utility.yul\":1916:1922   */\n      dup4\n        /* \"#utility.yul\":1911:1914   */\n      dup4\n        /* \"#utility.yul\":1907:1923   */\n      add\n        /* \"#utility.yul\":1904:1929   */\n      gt\n        /* \"#utility.yul\":1901:1946   */\n      iszero\n      tag_407\n      jumpi\n        /* \"#utility.yul\":1942:1943   */\n      0x00\n        /* \"#utility.yul\":1939:1940   */\n      dup1\n        /* \"#utility.yul\":1932:1944   */\n      revert\n        /* \"#utility.yul\":1901:1946   */\n    tag_407:\n        /* \"#utility.yul\":1991:1997   */\n      dup3\n        /* \"#utility.yul\":1986:1989   */\n      dup3\n        /* \"#utility.yul\":1979:1983   */\n      0x20\n        /* \"#utility.yul\":1972:1977   */\n      dup4\n        /* \"#utility.yul\":1968:1984   */\n      add\n        /* \"#utility.yul\":1955:1998   */\n      calldatacopy\n        /* \"#utility.yul\":2045:2046   */\n      0x00\n        /* \"#utility.yul\":2038:2042   */\n      0x20\n        /* \"#utility.yul\":2029:2035   */\n      dup5\n        /* \"#utility.yul\":2022:2027   */\n      dup4\n        /* \"#utility.yul\":2018:2036   */\n      add\n        /* \"#utility.yul\":2014:2043   */\n      add\n        /* \"#utility.yul\":2007:2047   */\n      mstore\n        /* \"#utility.yul\":1646:2053   */\n      swap4\n      swap3\n      pop\n      pop\n      pop\n      jump\t// out\n        /* \"#utility.yul\":2058:2509   */\n    tag_47:\n        /* \"#utility.yul\":2127:2133   */\n      0x00\n        /* \"#utility.yul\":2180:2182   */\n      0x20\n        /* \"#utility.yul\":2168:2177   */\n      dup3\n        /* \"#utility.yul\":2159:2166   */\n      dup5\n        /* \"#utility.yul\":2155:2178   */\n      sub\n        /* \"#utility.yul\":2151:2183   */\n      slt\n        /* \"#utility.yul\":2148:2200   */\n      iszero\n      tag_409\n      jumpi\n        /* \"#utility.yul\":2196:2197   */\n      0x00\n        /* \"#utility.yul\":2193:2194   */\n      dup1\n        /* \"#utility.yul\":2186:2198   */\n      revert\n        /* \"#utility.yul\":2148:2200   */\n    tag_409:\n        /* \"#utility.yul\":2236:2245   */\n      dup2\n        /* \"#utility.yul\":2223:2246   */\n      calldataload\n        /* \"#utility.yul\":2269:2287   */\n      0xffffffffffffffff\n        /* \"#utility.yul\":2261:2267   */\n      dup2\n        /* \"#utility.yul\":2258:2288   */\n      gt\n        /* \"#utility.yul\":2255:2305   */\n      iszero\n      tag_410\n      jumpi\n        /* \"#utility.yul\":2301:2302   */\n      0x00\n        /* \"#utility.yul\":2298:2299   */\n      dup1\n        /* \"#utility.yul\":2291:2303   */\n      revert\n        /* \"#utility.yul\":2255:2305   */\n    tag_410:\n        /* \"#utility.yul\":2324:2346   */\n      dup3\n      add\n        /* \"#utility.yul\":2377:2381   */\n      0x1f\n        /* \"#utility.yul\":2369:2382   */\n      dup2\n      add\n        /* \"#utility.yul\":2365:2392   */\n      dup5\n      sgt\n        /* \"#utility.yul\":2355:2410   */\n      tag_411\n      jumpi\n        /* \"#utility.yul\":2406:2407   */\n      0x00\n        /* \"#utility.yul\":2403:2404   */\n      dup1\n        /* \"#utility.yul\":2396:2408   */\n      revert\n        /* \"#utility.yul\":2355:2410   */\n    tag_411:\n        /* \"#utility.yul\":2429:2503   */\n      tag_412\n        /* \"#utility.yul\":2495:2502   */\n      dup5\n        /* \"#utility.yul\":2490:2492   */\n      dup3\n        /* \"#utility.yul\":2477:2493   */\n      calldataload\n        /* \"#utility.yul\":2472:2474   */\n      0x20\n        /* \"#utility.yul\":2468:2470   */\n      dup5\n        /* \"#utility.yul\":2464:2475   */\n      add\n        /* \"#utility.yul\":2429:2503   */\n      tag_376\n      jump\t// in\n    tag_412:\n        /* \"#utility.yul\":2419:2503   */\n      swap5\n        /* \"#utility.yul\":2058:2509   */\n      swap4\n      pop\n      pop\n      pop\n      pop\n      jump\t// out\n        /* \"#utility.yul\":2514:2803   */\n    tag_377:\n        /* \"#utility.yul\":2556:2559   */\n      0x00\n        /* \"#utility.yul\":2594:2599   */\n      dup2\n        /* \"#utility.yul\":2588:2600   */\n      mload\n        /* \"#utility.yul\":2621:2627   */\n      dup1\n        /* \"#utility.yul\":2616:2619   */\n      dup5\n        /* \"#utility.yul\":2609:2628   */\n      mstore\n        /* \"#utility.yul\":2677:2683   */\n      dup1\n        /* \"#utility.yul\":2670:2674   */\n      0x20\n        /* \"#utility.yul\":2663:2668   */\n      dup5\n        /* \"#utility.yul\":2659:2675   */\n      add\n        /* \"#utility.yul\":2652:2656   */\n      0x20\n        /* \"#utility.yul\":2647:2650   */\n      dup7\n        /* \"#utility.yul\":2643:2657   */\n      add\n        /* \"#utility.yul\":2637:2684   */\n      mcopy\n        /* \"#utility.yul\":2729:2730   */\n      0x00\n        /* \"#utility.yul\":2722:2726   */\n      0x20\n        /* \"#utility.yul\":2713:2719   */\n      dup3\n        /* \"#utility.yul\":2708:2711   */\n      dup7\n        /* \"#utility.yul\":2704:2720   */\n      add\n        /* \"#utility.yul\":2700:2727   */\n      add\n        /* \"#utility.yul\":2693:2731   */\n      mstore\n        /* \"#utility.yul\":2792:2796   */\n      0x20\n        /* \"#utility.yul\":2785:2787   */\n      0x1f\n        /* \"#utility.yul\":2781:2788   */\n      not\n        /* \"#utility.yul\":2776:2778   */\n      0x1f\n        /* \"#utility.yul\":2768:2774   */\n      dup4\n        /* \"#utility.yul\":2764:2779   */\n      add\n        /* \"#utility.yul\":2760:2789   */\n      and\n        /* \"#utility.yul\":2755:2758   */\n      dup6\n        /* \"#utility.yul\":2751:2790   */\n      add\n        /* \"#utility.yul\":2747:2797   */\n      add\n        /* \"#utility.yul\":2740:2797   */\n      swap2\n      pop\n      pop\n        /* \"#utility.yul\":2514:2803   */\n      swap3\n      swap2\n      pop\n      pop\n      jump\t// out\n        /* \"#utility.yul\":2808:3028   */\n    tag_53:\n        /* \"#utility.yul\":2957:2959   */\n      0x20\n        /* \"#utility.yul\":2946:2955   */\n      dup2\n        /* \"#utility.yul\":2939:2960   */\n      mstore\n        /* \"#utility.yul\":2920:2924   */\n      0x00\n        /* \"#utility.yul\":2977:3022   */\n      tag_397\n        /* \"#utility.yul\":3018:3020   */\n      0x20\n        /* \"#utility.yul\":3007:3016   */\n      dup4\n        /* \"#utility.yul\":3003:3021   */\n      add\n        /* \"#utility.yul\":2995:3001   */\n      dup5\n        /* \"#utility.yul\":2977:3022   */\n      tag_377\n      jump\t// in\n        /* \"#utility.yul\":3033:3213   */\n    tag_57:\n        /* \"#utility.yul\":3092:3098   */\n      0x00\n        /* \"#utility.yul\":3145:3147   */\n      0x20\n        /* \"#utility.yul\":3133:3142   */\n      dup3\n        /* \"#utility.yul\":3124:3131   */\n      dup5\n        /* \"#utility.yul\":3120:3143   */\n      sub\n        /* \"#utility.yul\":3116:3148   */\n      slt\n        /* \"#utility.yul\":3113:3165   */\n      iszero\n      tag_417\n      jumpi\n        /* \"#utility.yul\":3161:3162   */\n      0x00\n        /* \"#utility.yul\":3158:3159   */\n      dup1\n        /* \"#utility.yul\":3151:3163   */\n      revert\n        /* \"#utility.yul\":3113:3165   */\n    tag_417:\n      pop\n        /* \"#utility.yul\":3184:3207   */\n      calldataload\n      swap2\n        /* \"#utility.yul\":3033:3213   */\n      swap1\n      pop\n      jump\t// out\n        /* \"#utility.yul\":3218:3466   */\n    tag_62:\n        /* \"#utility.yul\":3286:3292   */\n      0x00\n        /* \"#utility.yul\":3294:3300   */\n      dup1\n        /* \"#utility.yul\":3347:3349   */\n      0x40\n        /* \"#utility.yul\":3335:3344   */\n      dup4\n        /* \"#utility.yul\":3326:3333   */\n      dup6\n        /* \"#utility.yul\":3322:3345   */\n      sub\n        /* \"#utility.yul\":3318:3350   */\n      slt\n        /* \"#utility.yul\":3315:3367   */\n      iszero\n      tag_419\n      jumpi\n        /* \"#utility.yul\":3363:3364   */\n      0x00\n        /* \"#utility.yul\":3360:3361   */\n      dup1\n        /* \"#utility.yul\":3353:3365   */\n      revert\n        /* \"#utility.yul\":3315:3367   */\n    tag_419:\n      pop\n      pop\n        /* \"#utility.yul\":3386:3409   */\n      dup1\n      calldataload\n      swap3\n        /* \"#utility.yul\":3456:3458   */\n      0x20\n        /* \"#utility.yul\":3441:3459   */\n      swap1\n      swap2\n      add\n        /* \"#utility.yul\":3428:3460   */\n      calldataload\n      swap2\n      pop\n        /* \"#utility.yul\":3218:3466   */\n      jump\t// out\n        /* \"#utility.yul\":3773:3956   */\n    tag_378:\n        /* \"#utility.yul\":3833:3837   */\n      0x00\n        /* \"#utility.yul\":3866:3884   */\n      0xffffffffffffffff\n        /* \"#utility.yul\":3858:3864   */\n      dup3\n        /* \"#utility.yul\":3855:3885   */\n      gt\n        /* \"#utility.yul\":3852:3908   */\n      iszero\n      tag_423\n      jumpi\n        /* \"#utility.yul\":3888:3906   */\n      tag_423\n      tag_209\n      jump\t// in\n    tag_423:\n      pop\n        /* \"#utility.yul\":3933:3934   */\n      0x05\n        /* \"#utility.yul\":3929:3943   */\n      shl\n        /* \"#utility.yul\":3945:3949   */\n      0x20\n        /* \"#utility.yul\":3925:3950   */\n      add\n      swap1\n        /* \"#utility.yul\":3773:3956   */\n      jump\t// out\n        /* \"#utility.yul\":3961:4629   */\n    tag_379:\n        /* \"#utility.yul\":4015:4020   */\n      0x00\n        /* \"#utility.yul\":4068:4071   */\n      dup3\n        /* \"#utility.yul\":4061:4065   */\n      0x1f\n        /* \"#utility.yul\":4053:4059   */\n      dup4\n        /* \"#utility.yul\":4049:4066   */\n      add\n        /* \"#utility.yul\":4045:4072   */\n      slt\n        /* \"#utility.yul\":4035:4090   */\n      tag_425\n      jumpi\n        /* \"#utility.yul\":4086:4087   */\n      0x00\n        /* \"#utility.yul\":4083:4084   */\n      dup1\n        /* \"#utility.yul\":4076:4088   */\n      revert\n        /* \"#utility.yul\":4035:4090   */\n    tag_425:\n        /* \"#utility.yul\":4122:4128   */\n      dup2\n        /* \"#utility.yul\":4109:4129   */\n      calldataload\n        /* \"#utility.yul\":4148:4152   */\n      0x20\n        /* \"#utility.yul\":4172:4232   */\n      tag_426\n        /* \"#utility.yul\":4188:4231   */\n      tag_427\n        /* \"#utility.yul\":4228:4230   */\n      dup4\n        /* \"#utility.yul\":4188:4231   */\n      tag_378\n      jump\t// in\n    tag_427:\n        /* \"#utility.yul\":4172:4232   */\n      tag_375\n      jump\t// in\n    tag_426:\n        /* \"#utility.yul\":4254:4257   */\n      dup1\n        /* \"#utility.yul\":4278:4280   */\n      dup4\n        /* \"#utility.yul\":4273:4276   */\n      dup3\n        /* \"#utility.yul\":4266:4281   */\n      mstore\n        /* \"#utility.yul\":4306:4310   */\n      0x20\n        /* \"#utility.yul\":4301:4304   */\n      dup3\n        /* \"#utility.yul\":4297:4311   */\n      add\n        /* \"#utility.yul\":4290:4311   */\n      swap2\n      pop\n        /* \"#utility.yul\":4363:4367   */\n      0x20\n        /* \"#utility.yul\":4357:4359   */\n      dup5\n        /* \"#utility.yul\":4354:4355   */\n      0x05\n        /* \"#utility.yul\":4350:4360   */\n      shl\n        /* \"#utility.yul\":4342:4348   */\n      dup8\n        /* \"#utility.yul\":4338:4361   */\n      add\n        /* \"#utility.yul\":4334:4368   */\n      add\n        /* \"#utility.yul\":4320:4368   */\n      swap4\n      pop\n        /* \"#utility.yul\":4391:4394   */\n      dup7\n        /* \"#utility.yul\":4383:4389   */\n      dup5\n        /* \"#utility.yul\":4380:4395   */\n      gt\n        /* \"#utility.yul\":4377:4412   */\n      iszero\n      tag_428\n      jumpi\n        /* \"#utility.yul\":4408:4409   */\n      0x00\n        /* \"#utility.yul\":4405:4406   */\n      dup1\n        /* \"#utility.yul\":4398:4410   */\n      revert\n        /* \"#utility.yul\":4377:4412   */\n    tag_428:\n        /* \"#utility.yul\":4444:4448   */\n      0x20\n        /* \"#utility.yul\":4436:4442   */\n      dup7\n        /* \"#utility.yul\":4432:4449   */\n      add\n        /* \"#utility.yul\":4458:4600   */\n    tag_429:\n        /* \"#utility.yul\":4474:4480   */\n      dup5\n        /* \"#utility.yul\":4469:4472   */\n      dup2\n        /* \"#utility.yul\":4466:4481   */\n      lt\n        /* \"#utility.yul\":4458:4600   */\n      iszero\n      tag_431\n      jumpi\n        /* \"#utility.yul\":4540:4557   */\n      dup1\n      calldataload\n        /* \"#utility.yul\":4528:4558   */\n      dup4\n      mstore\n        /* \"#utility.yul\":4578:4590   */\n      swap2\n      dup4\n      add\n      swap2\n        /* \"#utility.yul\":4491:4503   */\n      dup4\n      add\n        /* \"#utility.yul\":4458:4600   */\n      jump(tag_429)\n    tag_431:\n      pop\n        /* \"#utility.yul\":4618:4623   */\n      swap7\n        /* \"#utility.yul\":3961:4629   */\n      swap6\n      pop\n      pop\n      pop\n      pop\n      pop\n      pop\n      jump\t// out\n        /* \"#utility.yul\":4634:4855   */\n    tag_380:\n        /* \"#utility.yul\":4676:4681   */\n      0x00\n        /* \"#utility.yul\":4729:4732   */\n      dup3\n        /* \"#utility.yul\":4722:4726   */\n      0x1f\n        /* \"#utility.yul\":4714:4720   */\n      dup4\n        /* \"#utility.yul\":4710:4727   */\n      add\n        /* \"#utility.yul\":4706:4733   */\n      slt\n        /* \"#utility.yul\":4696:4751   */\n      tag_433\n      jumpi\n        /* \"#utility.yul\":4747:4748   */\n      0x00\n        /* \"#utility.yul\":4744:4745   */\n      dup1\n        /* \"#utility.yul\":4737:4749   */\n      revert\n        /* \"#utility.yul\":4696:4751   */\n    tag_433:\n        /* \"#utility.yul\":4769:4849   */\n      tag_397\n        /* \"#utility.yul\":4845:4848   */\n      dup4\n        /* \"#utility.yul\":4836:4842   */\n      dup4\n        /* \"#utility.yul\":4823:4843   */\n      calldataload\n        /* \"#utility.yul\":4816:4820   */\n      0x20\n        /* \"#utility.yul\":4808:4814   */\n      dup6\n        /* \"#utility.yul\":4804:4821   */\n      add\n        /* \"#utility.yul\":4769:4849   */\n      tag_376\n      jump\t// in\n        /* \"#utility.yul\":4860:5803   */\n    tag_73:\n        /* \"#utility.yul\":5014:5020   */\n      0x00\n        /* \"#utility.yul\":5022:5028   */\n      dup1\n        /* \"#utility.yul\":5030:5036   */\n      0x00\n        /* \"#utility.yul\":5038:5044   */\n      dup1\n        /* \"#utility.yul\":5046:5052   */\n      0x00\n        /* \"#utility.yul\":5099:5102   */\n      0xa0\n        /* \"#utility.yul\":5087:5096   */\n      dup7\n        /* \"#utility.yul\":5078:5085   */\n      dup9\n        /* \"#utility.yul\":5074:5097   */\n      sub\n        /* \"#utility.yul\":5070:5103   */\n      slt\n        /* \"#utility.yul\":5067:5120   */\n      iszero\n      tag_436\n      jumpi\n        /* \"#utility.yul\":5116:5117   */\n      0x00\n        /* \"#utility.yul\":5113:5114   */\n      dup1\n        /* \"#utility.yul\":5106:5118   */\n      revert\n        /* \"#utility.yul\":5067:5120   */\n    tag_436:\n        /* \"#utility.yul\":5139:5168   */\n      tag_437\n        /* \"#utility.yul\":5158:5167   */\n      dup7\n        /* \"#utility.yul\":5139:5168   */\n      tag_373\n      jump\t// in\n    tag_437:\n        /* \"#utility.yul\":5129:5168   */\n      swap5\n      pop\n        /* \"#utility.yul\":5187:5225   */\n      tag_438\n        /* \"#utility.yul\":5221:5223   */\n      0x20\n        /* \"#utility.yul\":5210:5219   */\n      dup8\n        /* \"#utility.yul\":5206:5224   */\n      add\n        /* \"#utility.yul\":5187:5225   */\n      tag_373\n      jump\t// in\n    tag_438:\n        /* \"#utility.yul\":5177:5225   */\n      swap4\n      pop\n        /* \"#utility.yul\":5276:5278   */\n      0x40\n        /* \"#utility.yul\":5265:5274   */\n      dup7\n        /* \"#utility.yul\":5261:5279   */\n      add\n        /* \"#utility.yul\":5248:5280   */\n      calldataload\n        /* \"#utility.yul\":5299:5317   */\n      0xffffffffffffffff\n        /* \"#utility.yul\":5340:5342   */\n      dup1\n        /* \"#utility.yul\":5332:5338   */\n      dup3\n        /* \"#utility.yul\":5329:5343   */\n      gt\n        /* \"#utility.yul\":5326:5360   */\n      iszero\n      tag_439\n      jumpi\n        /* \"#utility.yul\":5356:5357   */\n      0x00\n        /* \"#utility.yul\":5353:5354   */\n      dup1\n        /* \"#utility.yul\":5346:5358   */\n      revert\n        /* \"#utility.yul\":5326:5360   */\n    tag_439:\n        /* \"#utility.yul\":5379:5440   */\n      tag_440\n        /* \"#utility.yul\":5432:5439   */\n      dup10\n        /* \"#utility.yul\":5423:5429   */\n      dup4\n        /* \"#utility.yul\":5412:5421   */\n      dup11\n        /* \"#utility.yul\":5408:5430   */\n      add\n        /* \"#utility.yul\":5379:5440   */\n      tag_379\n      jump\t// in\n    tag_440:\n        /* \"#utility.yul\":5369:5440   */\n      swap5\n      pop\n        /* \"#utility.yul\":5493:5495   */\n      0x60\n        /* \"#utility.yul\":5482:5491   */\n      dup9\n        /* \"#utility.yul\":5478:5496   */\n      add\n        /* \"#utility.yul\":5465:5497   */\n      calldataload\n        /* \"#utility.yul\":5449:5497   */\n      swap2\n      pop\n        /* \"#utility.yul\":5522:5524   */\n      dup1\n        /* \"#utility.yul\":5512:5520   */\n      dup3\n        /* \"#utility.yul\":5509:5525   */\n      gt\n        /* \"#utility.yul\":5506:5542   */\n      iszero\n      tag_441\n      jumpi\n        /* \"#utility.yul\":5538:5539   */\n      0x00\n        /* \"#utility.yul\":5535:5536   */\n      dup1\n        /* \"#utility.yul\":5528:5540   */\n      revert\n        /* \"#utility.yul\":5506:5542   */\n    tag_441:\n        /* \"#utility.yul\":5561:5624   */\n      tag_442\n        /* \"#utility.yul\":5616:5623   */\n      dup10\n        /* \"#utility.yul\":5605:5613   */\n      dup4\n        /* \"#utility.yul\":5594:5603   */\n      dup11\n        /* \"#utility.yul\":5590:5614   */\n      add\n        /* \"#utility.yul\":5561:5624   */\n      tag_379\n      jump\t// in\n    tag_442:\n        /* \"#utility.yul\":5551:5624   */\n      swap4\n      pop\n        /* \"#utility.yul\":5677:5680   */\n      0x80\n        /* \"#utility.yul\":5666:5675   */\n      dup9\n        /* \"#utility.yul\":5662:5681   */\n      add\n        /* \"#utility.yul\":5649:5682   */\n      calldataload\n        /* \"#utility.yul\":5633:5682   */\n      swap2\n      pop\n        /* \"#utility.yul\":5707:5709   */\n      dup1\n        /* \"#utility.yul\":5697:5705   */\n      dup3\n        /* \"#utility.yul\":5694:5710   */\n      gt\n        /* \"#utility.yul\":5691:5727   */\n      iszero\n      tag_443\n      jumpi\n        /* \"#utility.yul\":5723:5724   */\n      0x00\n        /* \"#utility.yul\":5720:5721   */\n      dup1\n        /* \"#utility.yul\":5713:5725   */\n      revert\n        /* \"#utility.yul\":5691:5727   */\n    tag_443:\n      pop\n        /* \"#utility.yul\":5746:5797   */\n      tag_444\n        /* \"#utility.yul\":5789:5796   */\n      dup9\n        /* \"#utility.yul\":5778:5786   */\n      dup3\n        /* \"#utility.yul\":5767:5776   */\n      dup10\n        /* \"#utility.yul\":5763:5787   */\n      add\n        /* \"#utility.yul\":5746:5797   */\n      tag_380\n      jump\t// in\n    tag_444:\n        /* \"#utility.yul\":5736:5797   */\n      swap2\n      pop\n      pop\n        /* \"#utility.yul\":4860:5803   */\n      swap3\n      swap6\n      pop\n      swap3\n      swap6\n      swap1\n      swap4\n      pop\n      jump\t// out\n        /* \"#utility.yul\":5808:6954   */\n    tag_85:\n        /* \"#utility.yul\":5926:5932   */\n      0x00\n        /* \"#utility.yul\":5934:5940   */\n      dup1\n        /* \"#utility.yul\":5987:5989   */\n      0x40\n        /* \"#utility.yul\":5975:5984   */\n      dup4\n        /* \"#utility.yul\":5966:5973   */\n      dup6\n        /* \"#utility.yul\":5962:5985   */\n      sub\n        /* \"#utility.yul\":5958:5990   */\n      slt\n        /* \"#utility.yul\":5955:6007   */\n      iszero\n      tag_446\n      jumpi\n        /* \"#utility.yul\":6003:6004   */\n      0x00\n        /* \"#utility.yul\":6000:6001   */\n      dup1\n        /* \"#utility.yul\":5993:6005   */\n      revert\n        /* \"#utility.yul\":5955:6007   */\n    tag_446:\n        /* \"#utility.yul\":6043:6052   */\n      dup3\n        /* \"#utility.yul\":6030:6053   */\n      calldataload\n        /* \"#utility.yul\":6072:6090   */\n      0xffffffffffffffff\n        /* \"#utility.yul\":6113:6115   */\n      dup1\n        /* \"#utility.yul\":6105:6111   */\n      dup3\n        /* \"#utility.yul\":6102:6116   */\n      gt\n        /* \"#utility.yul\":6099:6133   */\n      iszero\n      tag_447\n      jumpi\n        /* \"#utility.yul\":6129:6130   */\n      0x00\n        /* \"#utility.yul\":6126:6127   */\n      dup1\n        /* \"#utility.yul\":6119:6131   */\n      revert\n        /* \"#utility.yul\":6099:6133   */\n    tag_447:\n        /* \"#utility.yul\":6167:6173   */\n      dup2\n        /* \"#utility.yul\":6156:6165   */\n      dup6\n        /* \"#utility.yul\":6152:6174   */\n      add\n        /* \"#utility.yul\":6142:6174   */\n      swap2\n      pop\n        /* \"#utility.yul\":6212:6219   */\n      dup6\n        /* \"#utility.yul\":6205:6209   */\n      0x1f\n        /* \"#utility.yul\":6201:6203   */\n      dup4\n        /* \"#utility.yul\":6197:6210   */\n      add\n        /* \"#utility.yul\":6193:6220   */\n      slt\n        /* \"#utility.yul\":6183:6238   */\n      tag_448\n      jumpi\n        /* \"#utility.yul\":6234:6235   */\n      0x00\n        /* \"#utility.yul\":6231:6232   */\n      dup1\n        /* \"#utility.yul\":6224:6236   */\n      revert\n        /* \"#utility.yul\":6183:6238   */\n    tag_448:\n        /* \"#utility.yul\":6270:6272   */\n      dup2\n        /* \"#utility.yul\":6257:6273   */\n      calldataload\n        /* \"#utility.yul\":6292:6296   */\n      0x20\n        /* \"#utility.yul\":6316:6376   */\n      tag_449\n        /* \"#utility.yul\":6332:6375   */\n      tag_427\n        /* \"#utility.yul\":6372:6374   */\n      dup4\n        /* \"#utility.yul\":6332:6375   */\n      tag_378\n      jump\t// in\n        /* \"#utility.yul\":6316:6376   */\n    tag_449:\n        /* \"#utility.yul\":6410:6425   */\n      dup3\n      dup2\n      mstore\n        /* \"#utility.yul\":6492:6493   */\n      0x05\n        /* \"#utility.yul\":6488:6498   */\n      swap3\n      swap1\n      swap3\n      shl\n        /* \"#utility.yul\":6480:6499   */\n      dup5\n      add\n        /* \"#utility.yul\":6476:6504   */\n      dup2\n      add\n      swap2\n        /* \"#utility.yul\":6441:6453   */\n      dup2\n      dup2\n      add\n      swap1\n        /* \"#utility.yul\":6516:6535   */\n      dup10\n      dup5\n      gt\n        /* \"#utility.yul\":6513:6552   */\n      iszero\n      tag_451\n      jumpi\n        /* \"#utility.yul\":6548:6549   */\n      0x00\n        /* \"#utility.yul\":6545:6546   */\n      dup1\n        /* \"#utility.yul\":6538:6550   */\n      revert\n        /* \"#utility.yul\":6513:6552   */\n    tag_451:\n        /* \"#utility.yul\":6572:6583   */\n      swap5\n      dup3\n      add\n      swap5\n        /* \"#utility.yul\":6592:6740   */\n    tag_452:\n        /* \"#utility.yul\":6608:6614   */\n      dup4\n        /* \"#utility.yul\":6603:6606   */\n      dup7\n        /* \"#utility.yul\":6600:6615   */\n      lt\n        /* \"#utility.yul\":6592:6740   */\n      iszero\n      tag_454\n      jumpi\n        /* \"#utility.yul\":6674:6697   */\n      tag_455\n        /* \"#utility.yul\":6693:6696   */\n      dup7\n        /* \"#utility.yul\":6674:6697   */\n      tag_373\n      jump\t// in\n    tag_455:\n        /* \"#utility.yul\":6662:6698   */\n      dup3\n      mstore\n        /* \"#utility.yul\":6625:6637   */\n      swap5\n      dup3\n      add\n      swap5\n        /* \"#utility.yul\":6718:6730   */\n      swap1\n      dup3\n      add\n      swap1\n        /* \"#utility.yul\":6592:6740   */\n      jump(tag_452)\n    tag_454:\n        /* \"#utility.yul\":6759:6764   */\n      swap7\n      pop\n      pop\n        /* \"#utility.yul\":6802:6820   */\n      dup7\n      add\n        /* \"#utility.yul\":6789:6821   */\n      calldataload\n      swap3\n      pop\n      pop\n        /* \"#utility.yul\":6833:6849   */\n      dup1\n      dup3\n      gt\n        /* \"#utility.yul\":6830:6866   */\n      iszero\n      tag_456\n      jumpi\n        /* \"#utility.yul\":6862:6863   */\n      0x00\n        /* \"#utility.yul\":6859:6860   */\n      dup1\n        /* \"#utility.yul\":6852:6864   */\n      revert\n        /* \"#utility.yul\":6830:6866   */\n    tag_456:\n      pop\n        /* \"#utility.yul\":6885:6948   */\n      tag_457\n        /* \"#utility.yul\":6940:6947   */\n      dup6\n        /* \"#utility.yul\":6929:6937   */\n      dup3\n        /* \"#utility.yul\":6918:6927   */\n      dup7\n        /* \"#utility.yul\":6914:6938   */\n      add\n        /* \"#utility.yul\":6885:6948   */\n      tag_379\n      jump\t// in\n    tag_457:\n        /* \"#utility.yul\":6875:6948   */\n      swap2\n      pop\n      pop\n        /* \"#utility.yul\":5808:6954   */\n      swap3\n      pop\n      swap3\n      swap1\n      pop\n      jump\t// out\n        /* \"#utility.yul\":6959:7398   */\n    tag_381:\n        /* \"#utility.yul\":7012:7015   */\n      0x00\n        /* \"#utility.yul\":7050:7055   */\n      dup2\n        /* \"#utility.yul\":7044:7056   */\n      mload\n        /* \"#utility.yul\":7077:7083   */\n      dup1\n        /* \"#utility.yul\":7072:7075   */\n      dup5\n        /* \"#utility.yul\":7065:7084   */\n      mstore\n        /* \"#utility.yul\":7103:7107   */\n      0x20\n        /* \"#utility.yul\":7132:7136   */\n      dup1\n        /* \"#utility.yul\":7127:7130   */\n      dup6\n        /* \"#utility.yul\":7123:7137   */\n      add\n        /* \"#utility.yul\":7116:7137   */\n      swap5\n      pop\n        /* \"#utility.yul\":7171:7175   */\n      0x20\n        /* \"#utility.yul\":7164:7169   */\n      dup5\n        /* \"#utility.yul\":7160:7176   */\n      add\n        /* \"#utility.yul\":7194:7195   */\n      0x00\n        /* \"#utility.yul\":7204:7373   */\n    tag_459:\n        /* \"#utility.yul\":7218:7224   */\n      dup4\n        /* \"#utility.yul\":7215:7216   */\n      dup2\n        /* \"#utility.yul\":7212:7225   */\n      lt\n        /* \"#utility.yul\":7204:7373   */\n      iszero\n      tag_461\n      jumpi\n        /* \"#utility.yul\":7279:7292   */\n      dup2\n      mload\n        /* \"#utility.yul\":7267:7293   */\n      dup8\n      mstore\n        /* \"#utility.yul\":7313:7325   */\n      swap6\n      dup3\n      add\n      swap6\n        /* \"#utility.yul\":7348:7363   */\n      swap1\n      dup3\n      add\n      swap1\n        /* \"#utility.yul\":7240:7241   */\n      0x01\n        /* \"#utility.yul\":7233:7242   */\n      add\n        /* \"#utility.yul\":7204:7373   */\n      jump(tag_459)\n    tag_461:\n      pop\n        /* \"#utility.yul\":7389:7392   */\n      swap5\n      swap6\n        /* \"#utility.yul\":6959:7398   */\n      swap5\n      pop\n      pop\n      pop\n      pop\n      pop\n      jump\t// out\n        /* \"#utility.yul\":7403:7664   */\n    tag_88:\n        /* \"#utility.yul\":7582:7584   */\n      0x20\n        /* \"#utility.yul\":7571:7580   */\n      dup2\n        /* \"#utility.yul\":7564:7585   */\n      mstore\n        /* \"#utility.yul\":7545:7549   */\n      0x00\n        /* \"#utility.yul\":7602:7658   */\n      tag_397\n        /* \"#utility.yul\":7654:7656   */\n      0x20\n        /* \"#utility.yul\":7643:7652   */\n      dup4\n        /* \"#utility.yul\":7639:7657   */\n      add\n        /* \"#utility.yul\":7631:7637   */\n      dup5\n        /* \"#utility.yul\":7602:7658   */\n      tag_381\n      jump\t// in\n        /* \"#utility.yul\":8147:8494   */\n    tag_109:\n        /* \"#utility.yul\":8212:8218   */\n      0x00\n        /* \"#utility.yul\":8220:8226   */\n      dup1\n        /* \"#utility.yul\":8273:8275   */\n      0x40\n        /* \"#utility.yul\":8261:8270   */\n      dup4\n        /* \"#utility.yul\":8252:8259   */\n      dup6\n        /* \"#utility.yul\":8248:8271   */\n      sub\n        /* \"#utility.yul\":8244:8276   */\n      slt\n        /* \"#utility.yul\":8241:8293   */\n      iszero\n      tag_467\n      jumpi\n        /* \"#utility.yul\":8289:8290   */\n      0x00\n        /* \"#utility.yul\":8286:8287   */\n      dup1\n        /* \"#utility.yul\":8279:8291   */\n      revert\n        /* \"#utility.yul\":8241:8293   */\n    tag_467:\n        /* \"#utility.yul\":8312:8341   */\n      tag_468\n        /* \"#utility.yul\":8331:8340   */\n      dup4\n        /* \"#utility.yul\":8312:8341   */\n      tag_373\n      jump\t// in\n    tag_468:\n        /* \"#utility.yul\":8302:8341   */\n      swap2\n      pop\n        /* \"#utility.yul\":8391:8393   */\n      0x20\n        /* \"#utility.yul\":8380:8389   */\n      dup4\n        /* \"#utility.yul\":8376:8394   */\n      add\n        /* \"#utility.yul\":8363:8395   */\n      calldataload\n        /* \"#utility.yul\":8438:8443   */\n      dup1\n        /* \"#utility.yul\":8431:8444   */\n      iszero\n        /* \"#utility.yul\":8424:8445   */\n      iszero\n        /* \"#utility.yul\":8417:8422   */\n      dup2\n        /* \"#utility.yul\":8414:8446   */\n      eq\n        /* \"#utility.yul\":8404:8464   */\n      tag_469\n      jumpi\n        /* \"#utility.yul\":8460:8461   */\n      0x00\n        /* \"#utility.yul\":8457:8458   */\n      dup1\n        /* \"#utility.yul\":8450:8462   */\n      revert\n        /* \"#utility.yul\":8404:8464   */\n    tag_469:\n        /* \"#utility.yul\":8483:8488   */\n      dup1\n        /* \"#utility.yul\":8473:8488   */\n      swap2\n      pop\n      pop\n        /* \"#utility.yul\":8147:8494   */\n      swap3\n      pop\n      swap3\n      swap1\n      pop\n      jump\t// out\n        /* \"#utility.yul\":8499:8759   */\n    tag_123:\n        /* \"#utility.yul\":8567:8573   */\n      0x00\n        /* \"#utility.yul\":8575:8581   */\n      dup1\n        /* \"#utility.yul\":8628:8630   */\n      0x40\n        /* \"#utility.yul\":8616:8625   */\n      dup4\n        /* \"#utility.yul\":8607:8614   */\n      dup6\n        /* \"#utility.yul\":8603:8626   */\n      sub\n        /* \"#utility.yul\":8599:8631   */\n      slt\n        /* \"#utility.yul\":8596:8648   */\n      iszero\n      tag_471\n      jumpi\n        /* \"#utility.yul\":8644:8645   */\n      0x00\n        /* \"#utility.yul\":8641:8642   */\n      dup1\n        /* \"#utility.yul\":8634:8646   */\n      revert\n        /* \"#utility.yul\":8596:8648   */\n    tag_471:\n        /* \"#utility.yul\":8667:8696   */\n      tag_472\n        /* \"#utility.yul\":8686:8695   */\n      dup4\n        /* \"#utility.yul\":8667:8696   */\n      tag_373\n      jump\t// in\n    tag_472:\n        /* \"#utility.yul\":8657:8696   */\n      swap2\n      pop\n        /* \"#utility.yul\":8715:8753   */\n      tag_473\n        /* \"#utility.yul\":8749:8751   */\n      0x20\n        /* \"#utility.yul\":8738:8747   */\n      dup5\n        /* \"#utility.yul\":8734:8752   */\n      add\n        /* \"#utility.yul\":8715:8753   */\n      tag_373\n      jump\t// in\n    tag_473:\n        /* \"#utility.yul\":8705:8753   */\n      swap1\n      pop\n        /* \"#utility.yul\":8499:8759   */\n      swap3\n      pop\n      swap3\n      swap1\n      pop\n      jump\t// out\n        /* \"#utility.yul\":8764:9370   */\n    tag_129:\n        /* \"#utility.yul\":8868:8874   */\n      0x00\n        /* \"#utility.yul\":8876:8882   */\n      dup1\n        /* \"#utility.yul\":8884:8890   */\n      0x00\n        /* \"#utility.yul\":8892:8898   */\n      dup1\n        /* \"#utility.yul\":8900:8906   */\n      0x00\n        /* \"#utility.yul\":8953:8956   */\n      0xa0\n        /* \"#utility.yul\":8941:8950   */\n      dup7\n        /* \"#utility.yul\":8932:8939   */\n      dup9\n        /* \"#utility.yul\":8928:8951   */\n      sub\n        /* \"#utility.yul\":8924:8957   */\n      slt\n        /* \"#utility.yul\":8921:8974   */\n      iszero\n      tag_475\n      jumpi\n        /* \"#utility.yul\":8970:8971   */\n      0x00\n        /* \"#utility.yul\":8967:8968   */\n      dup1\n        /* \"#utility.yul\":8960:8972   */\n      revert\n        /* \"#utility.yul\":8921:8974   */\n    tag_475:\n        /* \"#utility.yul\":8993:9022   */\n      tag_476\n        /* \"#utility.yul\":9012:9021   */\n      dup7\n        /* \"#utility.yul\":8993:9022   */\n      tag_373\n      jump\t// in\n    tag_476:\n        /* \"#utility.yul\":8983:9022   */\n      swap5\n      pop\n        /* \"#utility.yul\":9041:9079   */\n      tag_477\n        /* \"#utility.yul\":9075:9077   */\n      0x20\n        /* \"#utility.yul\":9064:9073   */\n      dup8\n        /* \"#utility.yul\":9060:9078   */\n      add\n        /* \"#utility.yul\":9041:9079   */\n      tag_373\n      jump\t// in\n    tag_477:\n        /* \"#utility.yul\":9031:9079   */\n      swap4\n      pop\n        /* \"#utility.yul\":9126:9128   */\n      0x40\n        /* \"#utility.yul\":9115:9124   */\n      dup7\n        /* \"#utility.yul\":9111:9129   */\n      add\n        /* \"#utility.yul\":9098:9130   */\n      calldataload\n        /* \"#utility.yul\":9088:9130   */\n      swap3\n      pop\n        /* \"#utility.yul\":9177:9179   */\n      0x60\n        /* \"#utility.yul\":9166:9175   */\n      dup7\n        /* \"#utility.yul\":9162:9180   */\n      add\n        /* \"#utility.yul\":9149:9181   */\n      calldataload\n        /* \"#utility.yul\":9139:9181   */\n      swap2\n      pop\n        /* \"#utility.yul\":9232:9235   */\n      0x80\n        /* \"#utility.yul\":9221:9230   */\n      dup7\n        /* \"#utility.yul\":9217:9236   */\n      add\n        /* \"#utility.yul\":9204:9237   */\n      calldataload\n        /* \"#utility.yul\":9260:9278   */\n      0xffffffffffffffff\n        /* \"#utility.yul\":9252:9258   */\n      dup2\n        /* \"#utility.yul\":9249:9279   */\n      gt\n        /* \"#utility.yul\":9246:9296   */\n      iszero\n      tag_478\n      jumpi\n        /* \"#utility.yul\":9292:9293   */\n      0x00\n        /* \"#utility.yul\":9289:9290   */\n      dup1\n        /* \"#utility.yul\":9282:9294   */\n      revert\n        /* \"#utility.yul\":9246:9296   */\n    tag_478:\n        /* \"#utility.yul\":9315:9364   */\n      tag_444\n        /* \"#utility.yul\":9356:9363   */\n      dup9\n        /* \"#utility.yul\":9347:9353   */\n      dup3\n        /* \"#utility.yul\":9336:9345   */\n      dup10\n        /* \"#utility.yul\":9332:9354   */\n      add\n        /* \"#utility.yul\":9315:9364   */\n      tag_380\n      jump\t// in\n        /* \"#utility.yul\":9375:9561   */\n    tag_134:\n        /* \"#utility.yul\":9434:9440   */\n      0x00\n        /* \"#utility.yul\":9487:9489   */\n      0x20\n        /* \"#utility.yul\":9475:9484   */\n      dup3\n        /* \"#utility.yul\":9466:9473   */\n      dup5\n        /* \"#utility.yul\":9462:9485   */\n      sub\n        /* \"#utility.yul\":9458:9490   */\n      slt\n        /* \"#utility.yul\":9455:9507   */\n      iszero\n      tag_481\n      jumpi\n        /* \"#utility.yul\":9503:9504   */\n      0x00\n        /* \"#utility.yul\":9500:9501   */\n      dup1\n        /* \"#utility.yul\":9493:9505   */\n      revert\n        /* \"#utility.yul\":9455:9507   */\n    tag_481:\n        /* \"#utility.yul\":9526:9555   */\n      tag_397\n        /* \"#utility.yul\":9545:9554   */\n      dup3\n        /* \"#utility.yul\":9526:9555   */\n      tag_373\n      jump\t// in\n        /* \"#utility.yul\":9566:9946   */\n    tag_147:\n        /* \"#utility.yul\":9645:9646   */\n      0x01\n        /* \"#utility.yul\":9641:9653   */\n      dup2\n      dup2\n      shr\n      swap1\n        /* \"#utility.yul\":9688:9700   */\n      dup3\n      and\n      dup1\n        /* \"#utility.yul\":9709:9770   */\n      tag_484\n      jumpi\n        /* \"#utility.yul\":9763:9767   */\n      0x7f\n        /* \"#utility.yul\":9755:9761   */\n      dup3\n        /* \"#utility.yul\":9751:9768   */\n      and\n        /* \"#utility.yul\":9741:9768   */\n      swap2\n      pop\n        /* \"#utility.yul\":9709:9770   */\n    tag_484:\n        /* \"#utility.yul\":9816:9818   */\n      0x20\n        /* \"#utility.yul\":9808:9814   */\n      dup3\n        /* \"#utility.yul\":9805:9819   */\n      lt\n        /* \"#utility.yul\":9785:9803   */\n      dup2\n        /* \"#utility.yul\":9782:9820   */\n      sub\n        /* \"#utility.yul\":9779:9940   */\n      tag_485\n      jumpi\n        /* \"#utility.yul\":9862:9872   */\n      0x4e487b71\n        /* \"#utility.yul\":9857:9860   */\n      0xe0\n        /* \"#utility.yul\":9853:9873   */\n      shl\n        /* \"#utility.yul\":9850:9851   */\n      0x00\n        /* \"#utility.yul\":9843:9874   */\n      mstore\n        /* \"#utility.yul\":9897:9901   */\n      0x22\n        /* \"#utility.yul\":9894:9895   */\n      0x04\n        /* \"#utility.yul\":9887:9902   */\n      mstore\n        /* \"#utility.yul\":9925:9929   */\n      0x24\n        /* \"#utility.yul\":9922:9923   */\n      0x00\n        /* \"#utility.yul\":9915:9930   */\n      revert\n        /* \"#utility.yul\":9779:9940   */\n    tag_485:\n      pop\n        /* \"#utility.yul\":9566:9946   */\n      swap2\n      swap1\n      pop\n      jump\t// out\n        /* \"#utility.yul\":9951:10078   */\n    tag_382:\n        /* \"#utility.yul\":10012:10022   */\n      0x4e487b71\n        /* \"#utility.yul\":10007:10010   */\n      0xe0\n        /* \"#utility.yul\":10003:10023   */\n      shl\n        /* \"#utility.yul\":10000:10001   */\n      0x00\n        /* \"#utility.yul\":9993:10024   */\n      mstore\n        /* \"#utility.yul\":10043:10047   */\n      0x11\n        /* \"#utility.yul\":10040:10041   */\n      0x04\n        /* \"#utility.yul\":10033:10048   */\n      mstore\n        /* \"#utility.yul\":10067:10071   */\n      0x24\n        /* \"#utility.yul\":10064:10065   */\n      0x00\n        /* \"#utility.yul\":10057:10072   */\n      revert\n        /* \"#utility.yul\":10083:10251   */\n    tag_160:\n        /* \"#utility.yul\":10156:10165   */\n      dup1\n      dup3\n      mul\n        /* \"#utility.yul\":10187:10196   */\n      dup2\n      iszero\n        /* \"#utility.yul\":10204:10219   */\n      dup3\n      dup3\n      div\n        /* \"#utility.yul\":10198:10220   */\n      dup5\n      eq\n        /* \"#utility.yul\":10184:10221   */\n      or\n        /* \"#utility.yul\":10174:10245   */\n      tag_136\n      jumpi\n        /* \"#utility.yul\":10225:10243   */\n      tag_136\n      tag_382\n      jump\t// in\n        /* \"#utility.yul\":10605:10730   */\n    tag_165:\n        /* \"#utility.yul\":10670:10679   */\n      dup1\n      dup3\n      add\n        /* \"#utility.yul\":10691:10701   */\n      dup1\n      dup3\n      gt\n        /* \"#utility.yul\":10688:10724   */\n      iszero\n      tag_136\n      jumpi\n        /* \"#utility.yul\":10704:10722   */\n      tag_136\n      tag_382\n      jump\t// in\n        /* \"#utility.yul\":11082:11299   */\n    tag_178:\n        /* \"#utility.yul\":11122:11123   */\n      0x00\n        /* \"#utility.yul\":11148:11149   */\n      dup3\n        /* \"#utility.yul\":11138:11270   */\n      tag_496\n      jumpi\n        /* \"#utility.yul\":11192:11202   */\n      0x4e487b71\n        /* \"#utility.yul\":11187:11190   */\n      0xe0\n        /* \"#utility.yul\":11183:11203   */\n      shl\n        /* \"#utility.yul\":11180:11181   */\n      0x00\n        /* \"#utility.yul\":11173:11204   */\n      mstore\n        /* \"#utility.yul\":11227:11231   */\n      0x12\n        /* \"#utility.yul\":11224:11225   */\n      0x04\n        /* \"#utility.yul\":11217:11232   */\n      mstore\n        /* \"#utility.yul\":11255:11259   */\n      0x24\n        /* \"#utility.yul\":11252:11253   */\n      0x00\n        /* \"#utility.yul\":11245:11260   */\n      revert\n        /* \"#utility.yul\":11138:11270   */\n    tag_496:\n      pop\n        /* \"#utility.yul\":11284:11293   */\n      div\n      swap1\n        /* \"#utility.yul\":11082:11299   */\n      jump\t// out\n        /* \"#utility.yul\":12792:12919   */\n    tag_221:\n        /* \"#utility.yul\":12853:12863   */\n      0x4e487b71\n        /* \"#utility.yul\":12848:12851   */\n      0xe0\n        /* \"#utility.yul\":12844:12864   */\n      shl\n        /* \"#utility.yul\":12841:12842   */\n      0x00\n        /* \"#utility.yul\":12834:12865   */\n      mstore\n        /* \"#utility.yul\":12884:12888   */\n      0x32\n        /* \"#utility.yul\":12881:12882   */\n      0x04\n        /* \"#utility.yul\":12874:12889   */\n      mstore\n        /* \"#utility.yul\":12908:12912   */\n      0x24\n        /* \"#utility.yul\":12905:12906   */\n      0x00\n        /* \"#utility.yul\":12898:12913   */\n      revert\n        /* \"#utility.yul\":13050:13568   */\n    tag_384:\n        /* \"#utility.yul\":13152:13154   */\n      0x1f\n        /* \"#utility.yul\":13147:13150   */\n      dup3\n        /* \"#utility.yul\":13144:13155   */\n      gt\n        /* \"#utility.yul\":13141:13562   */\n      iszero\n      tag_505\n      jumpi\n        /* \"#utility.yul\":13188:13193   */\n      dup1\n        /* \"#utility.yul\":13185:13186   */\n      0x00\n        /* \"#utility.yul\":13178:13194   */\n      mstore\n        /* \"#utility.yul\":13232:13236   */\n      0x20\n        /* \"#utility.yul\":13229:13230   */\n      0x00\n        /* \"#utility.yul\":13219:13237   */\n      keccak256\n        /* \"#utility.yul\":13302:13304   */\n      0x1f\n        /* \"#utility.yul\":13290:13300   */\n      dup5\n        /* \"#utility.yul\":13286:13305   */\n      add\n        /* \"#utility.yul\":13283:13284   */\n      0x05\n        /* \"#utility.yul\":13279:13306   */\n      shr\n        /* \"#utility.yul\":13273:13277   */\n      dup2\n        /* \"#utility.yul\":13269:13307   */\n      add\n        /* \"#utility.yul\":13338:13342   */\n      0x20\n        /* \"#utility.yul\":13326:13336   */\n      dup6\n        /* \"#utility.yul\":13323:13343   */\n      lt\n        /* \"#utility.yul\":13320:13367   */\n      iszero\n      tag_506\n      jumpi\n      pop\n        /* \"#utility.yul\":13361:13365   */\n      dup1\n        /* \"#utility.yul\":13320:13367   */\n    tag_506:\n        /* \"#utility.yul\":13416:13418   */\n      0x1f\n        /* \"#utility.yul\":13411:13414   */\n      dup5\n        /* \"#utility.yul\":13407:13419   */\n      add\n        /* \"#utility.yul\":13404:13405   */\n      0x05\n        /* \"#utility.yul\":13400:13420   */\n      shr\n        /* \"#utility.yul\":13394:13398   */\n      dup3\n        /* \"#utility.yul\":13390:13421   */\n      add\n        /* \"#utility.yul\":13380:13421   */\n      swap2\n      pop\n        /* \"#utility.yul\":13471:13552   */\n    tag_507:\n        /* \"#utility.yul\":13489:13491   */\n      dup2\n        /* \"#utility.yul\":13482:13487   */\n      dup2\n        /* \"#utility.yul\":13479:13492   */\n      lt\n        /* \"#utility.yul\":13471:13552   */\n      iszero\n      tag_279\n      jumpi\n        /* \"#utility.yul\":13548:13549   */\n      0x00\n        /* \"#utility.yul\":13534:13550   */\n      dup2\n      sstore\n        /* \"#utility.yul\":13515:13516   */\n      0x01\n        /* \"#utility.yul\":13504:13517   */\n      add\n        /* \"#utility.yul\":13471:13552   */\n      jump(tag_507)\n        /* \"#utility.yul\":13141:13562   */\n    tag_505:\n        /* \"#utility.yul\":13050:13568   */\n      pop\n      pop\n      pop\n      jump\t// out\n        /* \"#utility.yul\":13744:15089   */\n    tag_264:\n        /* \"#utility.yul\":13870:13873   */\n      dup2\n        /* \"#utility.yul\":13864:13874   */\n      mload\n        /* \"#utility.yul\":13897:13915   */\n      0xffffffffffffffff\n        /* \"#utility.yul\":13889:13895   */\n      dup2\n        /* \"#utility.yul\":13886:13916   */\n      gt\n        /* \"#utility.yul\":13883:13939   */\n      iszero\n      tag_513\n      jumpi\n        /* \"#utility.yul\":13919:13937   */\n      tag_513\n      tag_209\n      jump\t// in\n    tag_513:\n        /* \"#utility.yul\":13948:14045   */\n      tag_514\n        /* \"#utility.yul\":14038:14044   */\n      dup2\n        /* \"#utility.yul\":13998:14036   */\n      tag_515\n        /* \"#utility.yul\":14030:14034   */\n      dup5\n        /* \"#utility.yul\":14024:14035   */\n      sload\n        /* \"#utility.yul\":13998:14036   */\n      tag_147\n      jump\t// in\n    tag_515:\n        /* \"#utility.yul\":13992:13996   */\n      dup5\n        /* \"#utility.yul\":13948:14045   */\n      tag_384\n      jump\t// in\n    tag_514:\n        /* \"#utility.yul\":14100:14104   */\n      0x20\n      dup1\n        /* \"#utility.yul\":14157:14159   */\n      0x1f\n        /* \"#utility.yul\":14146:14160   */\n      dup4\n      gt\n        /* \"#utility.yul\":14174:14175   */\n      0x01\n        /* \"#utility.yul\":14169:14832   */\n      dup2\n      eq\n      tag_517\n      jumpi\n        /* \"#utility.yul\":14876:14877   */\n      0x00\n        /* \"#utility.yul\":14893:14899   */\n      dup5\n        /* \"#utility.yul\":14890:14979   */\n      iszero\n      tag_518\n      jumpi\n      pop\n        /* \"#utility.yul\":14945:14964   */\n      dup6\n      dup4\n      add\n        /* \"#utility.yul\":14939:14965   */\n      mload\n        /* \"#utility.yul\":14890:14979   */\n    tag_518:\n      not(0x00)\n        /* \"#utility.yul\":13701:13702   */\n      0x03\n        /* \"#utility.yul\":13697:13708   */\n      dup7\n      swap1\n      shl\n        /* \"#utility.yul\":13693:13717   */\n      shr\n        /* \"#utility.yul\":13689:13718   */\n      not\n        /* \"#utility.yul\":13679:13719   */\n      and\n        /* \"#utility.yul\":13725:13726   */\n      0x01\n        /* \"#utility.yul\":13721:13732   */\n      dup6\n      swap1\n      shl\n        /* \"#utility.yul\":13676:13733   */\n      or\n        /* \"#utility.yul\":14992:15073   */\n      dup6\n      sstore\n        /* \"#utility.yul\":14139:15083   */\n      jump(tag_187)\n        /* \"#utility.yul\":14169:14832   */\n    tag_517:\n        /* \"#utility.yul\":12997:12998   */\n      0x00\n        /* \"#utility.yul\":12990:13004   */\n      dup6\n      dup2\n      mstore\n        /* \"#utility.yul\":13034:13038   */\n      0x20\n        /* \"#utility.yul\":13021:13039   */\n      dup2\n      keccak256\n      not(0x1f)\n        /* \"#utility.yul\":14205:14225   */\n      dup7\n      and\n      swap2\n        /* \"#utility.yul\":14323:14559   */\n    tag_521:\n        /* \"#utility.yul\":14337:14344   */\n      dup3\n        /* \"#utility.yul\":14334:14335   */\n      dup2\n        /* \"#utility.yul\":14331:14345   */\n      lt\n        /* \"#utility.yul\":14323:14559   */\n      iszero\n      tag_523\n      jumpi\n        /* \"#utility.yul\":14426:14445   */\n      dup9\n      dup7\n      add\n        /* \"#utility.yul\":14420:14446   */\n      mload\n        /* \"#utility.yul\":14405:14447   */\n      dup3\n      sstore\n        /* \"#utility.yul\":14518:14545   */\n      swap5\n      dup5\n      add\n      swap5\n        /* \"#utility.yul\":14486:14487   */\n      0x01\n        /* \"#utility.yul\":14474:14488   */\n      swap1\n      swap2\n      add\n      swap1\n        /* \"#utility.yul\":14353:14372   */\n      dup5\n      add\n        /* \"#utility.yul\":14323:14559   */\n      jump(tag_521)\n    tag_523:\n        /* \"#utility.yul\":14327:14330   */\n      pop\n        /* \"#utility.yul\":14587:14593   */\n      dup6\n        /* \"#utility.yul\":14578:14585   */\n      dup3\n        /* \"#utility.yul\":14575:14594   */\n      lt\n        /* \"#utility.yul\":14572:14773   */\n      iszero\n      tag_524\n      jumpi\n        /* \"#utility.yul\":14648:14667   */\n      dup8\n      dup6\n      add\n        /* \"#utility.yul\":14642:14668   */\n      mload\n      not(0x00)\n        /* \"#utility.yul\":14731:14732   */\n      0x03\n        /* \"#utility.yul\":14727:14741   */\n      dup9\n      swap1\n      shl\n        /* \"#utility.yul\":14743:14746   */\n      0xf8\n        /* \"#utility.yul\":14723:14747   */\n      and\n        /* \"#utility.yul\":14719:14756   */\n      shr\n        /* \"#utility.yul\":14715:14757   */\n      not\n        /* \"#utility.yul\":14700:14758   */\n      and\n        /* \"#utility.yul\":14685:14759   */\n      dup2\n      sstore\n        /* \"#utility.yul\":14572:14773   */\n    tag_524:\n      pop\n      pop\n      pop\n      pop\n      pop\n        /* \"#utility.yul\":14819:14820   */\n      0x01\n        /* \"#utility.yul\":14803:14817   */\n      swap1\n      dup2\n      shl\n        /* \"#utility.yul\":14799:14821   */\n      add\n        /* \"#utility.yul\":14786:14822   */\n      swap1\n      sstore\n      pop\n        /* \"#utility.yul\":13744:15089   */\n      jump\t// out\n        /* \"#utility.yul\":15539:16004   */\n    tag_335:\n        /* \"#utility.yul\":15796:15798   */\n      0x40\n        /* \"#utility.yul\":15785:15794   */\n      dup2\n        /* \"#utility.yul\":15778:15799   */\n      mstore\n        /* \"#utility.yul\":15759:15763   */\n      0x00\n        /* \"#utility.yul\":15822:15878   */\n      tag_527\n        /* \"#utility.yul\":15874:15876   */\n      0x40\n        /* \"#utility.yul\":15863:15872   */\n      dup4\n        /* \"#utility.yul\":15859:15877   */\n      add\n        /* \"#utility.yul\":15851:15857   */\n      dup6\n        /* \"#utility.yul\":15822:15878   */\n      tag_381\n      jump\t// in\n    tag_527:\n        /* \"#utility.yul\":15926:15935   */\n      dup3\n        /* \"#utility.yul\":15918:15924   */\n      dup2\n        /* \"#utility.yul\":15914:15936   */\n      sub\n        /* \"#utility.yul\":15909:15911   */\n      0x20\n        /* \"#utility.yul\":15898:15907   */\n      dup5\n        /* \"#utility.yul\":15894:15912   */\n      add\n        /* \"#utility.yul\":15887:15937   */\n      mstore\n        /* \"#utility.yul\":15954:15998   */\n      tag_528\n        /* \"#utility.yul\":15991:15997   */\n      dup2\n        /* \"#utility.yul\":15983:15989   */\n      dup6\n        /* \"#utility.yul\":15954:15998   */\n      tag_381\n      jump\t// in\n    tag_528:\n        /* \"#utility.yul\":15946:15998   */\n      swap6\n        /* \"#utility.yul\":15539:16004   */\n      swap5\n      pop\n      pop\n      pop\n      pop\n      pop\n      jump\t// out\n        /* \"#utility.yul\":16009:16593   */\n    tag_339:\n        /* \"#utility.yul\":16231:16235   */\n      0x00\n      sub(shl(0xa0, 0x01), 0x01)\n        /* \"#utility.yul\":16341:16343   */\n      dup1\n        /* \"#utility.yul\":16333:16339   */\n      dup9\n        /* \"#utility.yul\":16329:16344   */\n      and\n        /* \"#utility.yul\":16318:16327   */\n      dup4\n        /* \"#utility.yul\":16311:16345   */\n      mstore\n        /* \"#utility.yul\":16393:16395   */\n      dup1\n        /* \"#utility.yul\":16385:16391   */\n      dup8\n        /* \"#utility.yul\":16381:16396   */\n      and\n        /* \"#utility.yul\":16376:16378   */\n      0x20\n        /* \"#utility.yul\":16365:16374   */\n      dup5\n        /* \"#utility.yul\":16361:16379   */\n      add\n        /* \"#utility.yul\":16354:16397   */\n      mstore\n      pop\n        /* \"#utility.yul\":16433:16439   */\n      dup5\n        /* \"#utility.yul\":16428:16430   */\n      0x40\n        /* \"#utility.yul\":16417:16426   */\n      dup4\n        /* \"#utility.yul\":16413:16431   */\n      add\n        /* \"#utility.yul\":16406:16440   */\n      mstore\n        /* \"#utility.yul\":16476:16482   */\n      dup4\n        /* \"#utility.yul\":16471:16473   */\n      0x60\n        /* \"#utility.yul\":16460:16469   */\n      dup4\n        /* \"#utility.yul\":16456:16474   */\n      add\n        /* \"#utility.yul\":16449:16483   */\n      mstore\n        /* \"#utility.yul\":16520:16523   */\n      0xa0\n        /* \"#utility.yul\":16514:16517   */\n      0x80\n        /* \"#utility.yul\":16503:16512   */\n      dup4\n        /* \"#utility.yul\":16499:16518   */\n      add\n        /* \"#utility.yul\":16492:16524   */\n      mstore\n        /* \"#utility.yul\":16541:16587   */\n      tag_530\n        /* \"#utility.yul\":16582:16585   */\n      0xa0\n        /* \"#utility.yul\":16571:16580   */\n      dup4\n        /* \"#utility.yul\":16567:16586   */\n      add\n        /* \"#utility.yul\":16559:16565   */\n      dup5\n        /* \"#utility.yul\":16541:16587   */\n      tag_377\n      jump\t// in\n    tag_530:\n        /* \"#utility.yul\":16533:16587   */\n      swap8\n        /* \"#utility.yul\":16009:16593   */\n      swap7\n      pop\n      pop\n      pop\n      pop\n      pop\n      pop\n      pop\n      jump\t// out\n        /* \"#utility.yul\":16598:16847   */\n    tag_342:\n        /* \"#utility.yul\":16667:16673   */\n      0x00\n        /* \"#utility.yul\":16720:16722   */\n      0x20\n        /* \"#utility.yul\":16708:16717   */\n      dup3\n        /* \"#utility.yul\":16699:16706   */\n      dup5\n        /* \"#utility.yul\":16695:16718   */\n      sub\n        /* \"#utility.yul\":16691:16723   */\n      slt\n        /* \"#utility.yul\":16688:16740   */\n      iszero\n      tag_532\n      jumpi\n        /* \"#utility.yul\":16736:16737   */\n      0x00\n        /* \"#utility.yul\":16733:16734   */\n      dup1\n        /* \"#utility.yul\":16726:16738   */\n      revert\n        /* \"#utility.yul\":16688:16740   */\n    tag_532:\n        /* \"#utility.yul\":16768:16777   */\n      dup2\n        /* \"#utility.yul\":16762:16778   */\n      mload\n        /* \"#utility.yul\":16787:16817   */\n      tag_397\n        /* \"#utility.yul\":16811:16816   */\n      dup2\n        /* \"#utility.yul\":16787:16817   */\n      tag_374\n      jump\t// in\n        /* \"#utility.yul\":16852:17702   */\n    tag_358:\n        /* \"#utility.yul\":17174:17178   */\n      0x00\n      sub(shl(0xa0, 0x01), 0x01)\n        /* \"#utility.yul\":17284:17286   */\n      dup1\n        /* \"#utility.yul\":17276:17282   */\n      dup9\n        /* \"#utility.yul\":17272:17287   */\n      and\n        /* \"#utility.yul\":17261:17270   */\n      dup4\n        /* \"#utility.yul\":17254:17288   */\n      mstore\n        /* \"#utility.yul\":17336:17338   */\n      dup1\n        /* \"#utility.yul\":17328:17334   */\n      dup8\n        /* \"#utility.yul\":17324:17339   */\n      and\n        /* \"#utility.yul\":17319:17321   */\n      0x20\n        /* \"#utility.yul\":17308:17317   */\n      dup5\n        /* \"#utility.yul\":17304:17322   */\n      add\n        /* \"#utility.yul\":17297:17340   */\n      mstore\n      pop\n        /* \"#utility.yul\":17376:17379   */\n      0xa0\n        /* \"#utility.yul\":17371:17373   */\n      0x40\n        /* \"#utility.yul\":17360:17369   */\n      dup4\n        /* \"#utility.yul\":17356:17374   */\n      add\n        /* \"#utility.yul\":17349:17380   */\n      mstore\n        /* \"#utility.yul\":17403:17460   */\n      tag_535\n        /* \"#utility.yul\":17455:17458   */\n      0xa0\n        /* \"#utility.yul\":17444:17453   */\n      dup4\n        /* \"#utility.yul\":17440:17459   */\n      add\n        /* \"#utility.yul\":17432:17438   */\n      dup7\n        /* \"#utility.yul\":17403:17460   */\n      tag_381\n      jump\t// in\n    tag_535:\n        /* \"#utility.yul\":17508:17517   */\n      dup3\n        /* \"#utility.yul\":17500:17506   */\n      dup2\n        /* \"#utility.yul\":17496:17518   */\n      sub\n        /* \"#utility.yul\":17491:17493   */\n      0x60\n        /* \"#utility.yul\":17480:17489   */\n      dup5\n        /* \"#utility.yul\":17476:17494   */\n      add\n        /* \"#utility.yul\":17469:17519   */\n      mstore\n        /* \"#utility.yul\":17542:17586   */\n      tag_536\n        /* \"#utility.yul\":17579:17585   */\n      dup2\n        /* \"#utility.yul\":17571:17577   */\n      dup7\n        /* \"#utility.yul\":17542:17586   */\n      tag_381\n      jump\t// in\n    tag_536:\n        /* \"#utility.yul\":17528:17586   */\n      swap1\n      pop\n        /* \"#utility.yul\":17635:17644   */\n      dup3\n        /* \"#utility.yul\":17627:17633   */\n      dup2\n        /* \"#utility.yul\":17623:17645   */\n      sub\n        /* \"#utility.yul\":17617:17620   */\n      0x80\n        /* \"#utility.yul\":17606:17615   */\n      dup5\n        /* \"#utility.yul\":17602:17621   */\n      add\n        /* \"#utility.yul\":17595:17646   */\n      mstore\n        /* \"#utility.yul\":17663:17696   */\n      tag_537\n        /* \"#utility.yul\":17689:17695   */\n      dup2\n        /* \"#utility.yul\":17681:17687   */\n      dup6\n        /* \"#utility.yul\":17663:17696   */\n      tag_377\n      jump\t// in\n    tag_537:\n        /* \"#utility.yul\":17655:17696   */\n      swap9\n        /* \"#utility.yul\":16852:17702   */\n      swap8\n      pop\n      pop\n      pop\n      pop\n      pop\n      pop\n      pop\n      pop\n      jump\t// out\n\n    auxdata: 0xa26469706673582212200749dab68ab86773c5462fa1fa817c605ee12e2a9c882255bcc2104d46bfe63164736f6c63430008190033\n}\n",
    "bytecode": {
      "linkReferences": {},
      "object": "60c0604052601460809081527f54696d6543617073756c652045646974696f6e7300000000000000000000000060a05260069061003c90826102ab565b5060408051808201909152600381526254434560e81b602082015260079061006490826102ab565b50600880546001600160a01b03191673ada0fe15a97da69c1b0dd5aab21efd20840f5c72179055348015610096575f80fd5b5033604051806060016040528060298152602001611d30602991396100ba81610110565b506001600160a01b0381166100e957604051631e4fbdf760e01b81525f60048201526024015b60405180910390fd5b6100f281610120565b5060085461010b906001600160a01b03166101f4610171565b61036a565b600261011c82826102ab565b5050565b600380546001600160a01b038381166001600160a01b0319831681179093556040519116919082907f8be0079c531659141344cd1fd0a4f28419497f9722a3daafe3b4186f6b6457e0905f90a35050565b6127106001600160601b0382168110156101b057604051636f483d0960e01b81526001600160601b0383166004820152602481018290526044016100e0565b6001600160a01b0383166101d957604051635b6cc80560e11b81525f60048201526024016100e0565b50604080518082019091526001600160a01b039092168083526001600160601b039091166020909201829052600160a01b90910217600455565b634e487b7160e01b5f52604160045260245ffd5b600181811c9082168061023b57607f821691505b60208210810361025957634e487b7160e01b5f52602260045260245ffd5b50919050565b601f8211156102a657805f5260205f20601f840160051c810160208510156102845750805b601f840160051c820191505b818110156102a3575f8155600101610290565b50505b505050565b81516001600160401b038111156102c4576102c4610213565b6102d8816102d28454610227565b8461025f565b602080601f83116001811461030b575f84156102f45750858301515b5f19600386901b1c1916600185901b178555610362565b5f85815260208120601f198616915b828110156103395788860151825594840194600190910190840161031a565b508582101561035657878501515f19600388901b60f8161c191681555b505060018460011b0185555b505050505050565b6119b9806103775f395ff3fe608060405260043610610161575f3560e01c80634e1273f4116100c6578063a22cb4651161007c578063e985e9c511610057578063e985e9c5146103cb578063f242432a14610412578063f2fde38b14610431575f80fd5b8063a22cb46514610367578063bd85b03914610386578063c002d23d146103b1575f80fd5b8063715018a6116100ac578063715018a6146103225780638da5cb5b1461033657806395d89b4114610353575f80fd5b80634e1273f4146102bf57806361d027b3146102eb575f80fd5b80631b2ef1ca1161011b5780632eb2c2d6116101015780632eb2c2d61461027857806332cb6b0c146102975780633ccfd60b146102ab575f80fd5b80631b2ef1ca146102275780632a55205a1461023a575f80fd5b806302fe53051161014b57806302fe5305146101c657806306fdde03146101e75780630e89341c14610208575f80fd5b8062fdd58e1461016557806301ffc9a714610197575b5f80fd5b348015610170575f80fd5b5061018461017f3660046111f8565b610450565b6040519081526020015b60405180910390f35b3480156101a2575f80fd5b506101b66101b1366004611235565b610477565b604051901515815260200161018e565b3480156101d1575f80fd5b506101e56101e03660046112f1565b610481565b005b3480156101f2575f80fd5b506101fb610495565b60405161018e919061136c565b348015610213575f80fd5b506101fb61022236600461137e565b610521565b6101e5610235366004611395565b6105b3565b348015610245575f80fd5b50610259610254366004611395565b6106c4565b604080516001600160a01b03909316835260208301919091520161018e565b348015610283575f80fd5b506101e5610292366004611462565b610756565b3480156102a2575f80fd5b50610184606481565b3480156102b6575f80fd5b506101e56107db565b3480156102ca575f80fd5b506102de6102d9366004611505565b6108d1565b60405161018e91906115f9565b3480156102f6575f80fd5b5060085461030a906001600160a01b031681565b6040516001600160a01b03909116815260200161018e565b34801561032d575f80fd5b506101e561099c565b348015610341575f80fd5b506003546001600160a01b031661030a565b34801561035e575f80fd5b506101fb6109af565b348015610372575f80fd5b506101e561038136600461160b565b6109bc565b348015610391575f80fd5b506101846103a036600461137e565b60096020525f908152604090205481565b3480156103bc575f80fd5b506101846602c2ad68fd900081565b3480156103d6575f80fd5b506101b66103e5366004611644565b6001600160a01b039182165f90815260016020908152604080832093909416825291909152205460ff1690565b34801561041d575f80fd5b506101e561042c366004611675565b6109c7565b34801561043c575f80fd5b506101e561044b3660046116d5565b610a44565b5f818152602081815260408083206001600160a01b03861684529091529020545b92915050565b5f61047182610a7e565b610489610aa2565b61049281610acf565b50565b600680546104a2906116ee565b80601f01602080910402602001604051908101604052809291908181526020018280546104ce906116ee565b80156105195780601f106104f057610100808354040283529160200191610519565b820191905f5260205f20905b8154815290600101906020018083116104fc57829003601f168201915b505050505081565b606060028054610530906116ee565b80601f016020809104026020016040519081016040528092919081815260200182805461055c906116ee565b80156105a75780601f1061057e576101008083540402835291602001916105a7565b820191905f5260205f20905b81548152906001019060200180831161058a57829003601f168201915b50505050509050919050565b6105c4816602c2ad68fd900061173a565b3410156106185760405162461bcd60e51b815260206004820152601460248201527f496e73756666696369656e74207061796d656e7400000000000000000000000060448201526064015b60405180910390fd5b5f82815260096020526040902054606490610634908390611751565b11156106825760405162461bcd60e51b815260206004820152601260248201527f45786365656473206d617820737570706c790000000000000000000000000000604482015260640161060f565b5f828152600960205260408120805483929061069f908490611751565b925050819055506106c033838360405180602001604052805f815250610adb565b5050565b5f82815260056020526040812080548291906001600160a01b03811690600160a01b90046bffffffffffffffffffffffff16816107215750506004546001600160a01b03811690600160a01b90046bffffffffffffffffffffffff165b5f61271061073d6bffffffffffffffffffffffff84168961173a565b6107479190611764565b92989297509195505050505050565b336001600160a01b038616811480159061079557506001600160a01b038087165f9081526001602090815260408083209385168352929052205460ff16155b156107c65760405163711bec9160e11b81526001600160a01b0380831660048301528716602482015260440161060f565b6107d38686868686610b36565b505050505050565b6107e3610aa2565b47806108315760405162461bcd60e51b815260206004820152601460248201527f4e6f2066756e647320746f207769746864726177000000000000000000000000604482015260640161060f565b6008546040515f916001600160a01b03169083908381818185875af1925050503d805f811461087b576040519150601f19603f3d011682016040523d82523d5f602084013e610880565b606091505b50509050806106c05760405162461bcd60e51b815260206004820152600f60248201527f5472616e73666572206661696c65640000000000000000000000000000000000604482015260640161060f565b606081518351146109025781518351604051635b05999160e01b81526004810192909252602482015260440161060f565b5f835167ffffffffffffffff81111561091d5761091d611257565b604051908082528060200260200182016040528015610946578160200160208202803683370190505b5090505f5b84518110156109945760208082028601015161096f90602080840287010151610450565b82828151811061098157610981611783565b602090810291909101015260010161094b565b509392505050565b6109a4610aa2565b6109ad5f610b9b565b565b600780546104a2906116ee565b6106c0338383610c04565b336001600160a01b0386168114801590610a0657506001600160a01b038087165f9081526001602090815260408083209385168352929052205460ff16155b15610a375760405163711bec9160e11b81526001600160a01b0380831660048301528716602482015260440161060f565b6107d38686868686610c98565b610a4c610aa2565b6001600160a01b038116610a7557604051631e4fbdf760e01b81525f600482015260240161060f565b61049281610b9b565b5f6001600160e01b0319821663152a902d60e11b1480610471575061047182610d24565b6003546001600160a01b031633146109ad5760405163118cdaa760e01b815233600482015260240161060f565b60026106c082826117e0565b6001600160a01b038416610b0457604051632bfa23e760e11b81525f600482015260240161060f565b604080516001808252602082018690528183019081526060820185905260808201909252906107d35f87848487610d73565b6001600160a01b038416610b5f57604051632bfa23e760e11b81525f600482015260240161060f565b6001600160a01b038516610b8757604051626a0d4560e21b81525f600482015260240161060f565b610b948585858585610d73565b5050505050565b600380546001600160a01b038381167fffffffffffffffffffffffff0000000000000000000000000000000000000000831681179093556040519116919082907f8be0079c531659141344cd1fd0a4f28419497f9722a3daafe3b4186f6b6457e0905f90a35050565b6001600160a01b038216610c2c5760405162ced3e160e81b81525f600482015260240161060f565b6001600160a01b038381165f81815260016020908152604080832094871680845294825291829020805460ff191686151590811790915591519182527f17307eab39ab6107e8899845ad3d59bd9653f200f220920489ca2b5937696c31910160405180910390a3505050565b6001600160a01b038416610cc157604051632bfa23e760e11b81525f600482015260240161060f565b6001600160a01b038516610ce957604051626a0d4560e21b81525f600482015260240161060f565b60408051600180825260208201869052818301908152606082018590526080820190925290610d1b8787848487610d73565b50505050505050565b5f6001600160e01b03198216636cdb3d1360e11b1480610d5457506001600160e01b031982166303a24d0760e21b145b8061047157506301ffc9a760e01b6001600160e01b0319831614610471565b610d7f85858585610dc6565b6001600160a01b03841615610b945782513390600103610db85760208481015190840151610db1838989858589610fd5565b50506107d3565b6107d38187878787876110f6565b8051825114610df55781518151604051635b05999160e01b81526004810192909252602482015260440161060f565b335f5b8351811015610ef7576020818102858101820151908501909101516001600160a01b03881615610ea9575f828152602081815260408083206001600160a01b038c16845290915290205481811015610e83576040516303dee4c560e01b81526001600160a01b038a16600482015260248101829052604481018390526064810184905260840161060f565b5f838152602081815260408083206001600160a01b038d16845290915290209082900390555b6001600160a01b03871615610eed575f828152602081815260408083206001600160a01b038b16845290915281208054839290610ee7908490611751565b90915550505b5050600101610df8565b508251600103610f775760208301515f906020840151909150856001600160a01b0316876001600160a01b0316846001600160a01b03167fc3d58168c5ae7397731d063d5bbf3d657854427343f4c083240f7aacaa2d0f628585604051610f68929190918252602082015260400190565b60405180910390a45050610b94565b836001600160a01b0316856001600160a01b0316826001600160a01b03167f4a39dc06d4c0dbc64b70af90fd698a233a518aa5d07e595d983b8c0526c8f7fb8686604051610fc692919061189c565b60405180910390a45050505050565b6001600160a01b0384163b156107d35760405163f23a6e6160e01b81526001600160a01b0385169063f23a6e619061101990899089908890889088906004016118c9565b6020604051808303815f875af1925050508015611053575060408051601f3d908101601f191682019092526110509181019061190b565b60015b6110ba573d808015611080576040519150601f19603f3d011682016040523d82523d5f602084013e611085565b606091505b5080515f036110b257604051632bfa23e760e11b81526001600160a01b038616600482015260240161060f565b805160208201fd5b6001600160e01b0319811663f23a6e6160e01b14610d1b57604051632bfa23e760e11b81526001600160a01b038616600482015260240161060f565b6001600160a01b0384163b156107d35760405163bc197c8160e01b81526001600160a01b0385169063bc197c819061113a9089908990889088908890600401611926565b6020604051808303815f875af1925050508015611174575060408051601f3d908101601f191682019092526111719181019061190b565b60015b6111a1573d808015611080576040519150601f19603f3d011682016040523d82523d5f602084013e611085565b6001600160e01b0319811663bc197c8160e01b14610d1b57604051632bfa23e760e11b81526001600160a01b038616600482015260240161060f565b80356001600160a01b03811681146111f3575f80fd5b919050565b5f8060408385031215611209575f80fd5b611212836111dd565b946020939093013593505050565b6001600160e01b031981168114610492575f80fd5b5f60208284031215611245575f80fd5b813561125081611220565b9392505050565b634e487b7160e01b5f52604160045260245ffd5b604051601f8201601f1916810167ffffffffffffffff8111828210171561129457611294611257565b604052919050565b5f67ffffffffffffffff8311156112b5576112b5611257565b6112c8601f8401601f191660200161126b565b90508281528383830111156112db575f80fd5b828260208301375f602084830101529392505050565b5f60208284031215611301575f80fd5b813567ffffffffffffffff811115611317575f80fd5b8201601f81018413611327575f80fd5b6113368482356020840161129c565b949350505050565b5f81518084528060208401602086015e5f602082860101526020601f19601f83011685010191505092915050565b602081525f611250602083018461133e565b5f6020828403121561138e575f80fd5b5035919050565b5f80604083850312156113a6575f80fd5b50508035926020909101359150565b5f67ffffffffffffffff8211156113ce576113ce611257565b5060051b60200190565b5f82601f8301126113e7575f80fd5b813560206113fc6113f7836113b5565b61126b565b8083825260208201915060208460051b87010193508684111561141d575f80fd5b602086015b848110156114395780358352918301918301611422565b509695505050505050565b5f82601f830112611453575f80fd5b6112508383356020850161129c565b5f805f805f60a08688031215611476575f80fd5b61147f866111dd565b945061148d602087016111dd565b9350604086013567ffffffffffffffff808211156114a9575f80fd5b6114b589838a016113d8565b945060608801359150808211156114ca575f80fd5b6114d689838a016113d8565b935060808801359150808211156114eb575f80fd5b506114f888828901611444565b9150509295509295909350565b5f8060408385031215611516575f80fd5b823567ffffffffffffffff8082111561152d575f80fd5b818501915085601f830112611540575f80fd5b813560206115506113f7836113b5565b82815260059290921b8401810191818101908984111561156e575f80fd5b948201945b8386101561159357611584866111dd565b82529482019490820190611573565b965050860135925050808211156115a8575f80fd5b506115b5858286016113d8565b9150509250929050565b5f815180845260208085019450602084015f5b838110156115ee578151875295820195908201906001016115d2565b509495945050505050565b602081525f61125060208301846115bf565b5f806040838503121561161c575f80fd5b611625836111dd565b915060208301358015158114611639575f80fd5b809150509250929050565b5f8060408385031215611655575f80fd5b61165e836111dd565b915061166c602084016111dd565b90509250929050565b5f805f805f60a08688031215611689575f80fd5b611692866111dd565b94506116a0602087016111dd565b93506040860135925060608601359150608086013567ffffffffffffffff8111156116c9575f80fd5b6114f888828901611444565b5f602082840312156116e5575f80fd5b611250826111dd565b600181811c9082168061170257607f821691505b60208210810361172057634e487b7160e01b5f52602260045260245ffd5b50919050565b634e487b7160e01b5f52601160045260245ffd5b808202811582820484141761047157610471611726565b8082018082111561047157610471611726565b5f8261177e57634e487b7160e01b5f52601260045260245ffd5b500490565b634e487b7160e01b5f52603260045260245ffd5b601f8211156117db57805f5260205f20601f840160051c810160208510156117bc5750805b601f840160051c820191505b81811015610b94575f81556001016117c8565b505050565b815167ffffffffffffffff8111156117fa576117fa611257565b61180e8161180884546116ee565b84611797565b602080601f831160018114611841575f841561182a5750858301515b5f19600386901b1c1916600185901b1785556107d3565b5f85815260208120601f198616915b8281101561186f57888601518255948401946001909101908401611850565b508582101561188c57878501515f19600388901b60f8161c191681555b5050505050600190811b01905550565b604081525f6118ae60408301856115bf565b82810360208401526118c081856115bf565b95945050505050565b5f6001600160a01b03808816835280871660208401525084604083015283606083015260a0608083015261190060a083018461133e565b979650505050505050565b5f6020828403121561191b575f80fd5b815161125081611220565b5f6001600160a01b03808816835280871660208401525060a0604083015261195160a08301866115bf565b828103606084015261196381866115bf565b90508281036080840152611977818561133e565b9897505050505050505056fea26469706673582212200749dab68ab86773c5462fa1fa817c605ee12e2a9c882255bcc2104d46bfe63164736f6c6343000819003368747470733a2f2f6170692e74696d6563617073756c652e636f6d2f6d657461646174612f7b69647d",
      "opcodes": "PUSH1 0xC0 PUSH1 0x40 MSTORE PUSH1 0x14 PUSH1 0x80 SWAP1 DUP2 MSTORE PUSH32 0x54696D6543617073756C652045646974696F6E73000000000000000000000000 PUSH1 0xA0 MSTORE PUSH1 0x6 SWAP1 PUSH2 0x3C SWAP1 DUP3 PUSH2 0x2AB JUMP JUMPDEST POP PUSH1 0x40 DUP1 MLOAD DUP1 DUP3 ADD SWAP1 SWAP2 MSTORE PUSH1 0x3 DUP2 MSTORE PUSH3 0x544345 PUSH1 0xE8 SHL PUSH1 0x20 DUP3 ADD MSTORE PUSH1 0x7 SWAP1 PUSH2 0x64 SWAP1 DUP3 PUSH2 0x2AB JUMP JUMPDEST POP PUSH1 0x8 DUP1 SLOAD PUSH1 0x1 PUSH1 0x1 PUSH1 0xA0 SHL SUB NOT AND PUSH20 0xADA0FE15A97DA69C1B0DD5AAB21EFD20840F5C72 OR SWAP1 SSTORE CALLVALUE DUP1 ISZERO PUSH2 0x96 JUMPI PUSH0 DUP1 REVERT JUMPDEST POP CALLER PUSH1 0x40 MLOAD DUP1 PUSH1 0x60 ADD PUSH1 0x40 MSTORE DUP1 PUSH1 0x29 DUP2 MSTORE PUSH1 0x20 ADD PUSH2 0x1D30 PUSH1 0x29 SWAP2 CODECOPY PUSH2 0xBA DUP2 PUSH2 0x110 JUMP JUMPDEST POP PUSH1 0x1 PUSH1 0x1 PUSH1 0xA0 SHL SUB DUP2 AND PUSH2 0xE9 JUMPI PUSH1 0x40 MLOAD PUSH4 0x1E4FBDF7 PUSH1 0xE0 SHL DUP2 MSTORE PUSH0 PUSH1 0x4 DUP3 ADD MSTORE PUSH1 0x24 ADD JUMPDEST PUSH1 0x40 MLOAD DUP1 SWAP2 SUB SWAP1 REVERT JUMPDEST PUSH2 0xF2 DUP2 PUSH2 0x120 JUMP JUMPDEST POP PUSH1 0x8 SLOAD PUSH2 0x10B SWAP1 PUSH1 0x1 PUSH1 0x1 PUSH1 0xA0 SHL SUB AND PUSH2 0x1F4 PUSH2 0x171 JUMP JUMPDEST PUSH2 0x36A JUMP JUMPDEST PUSH1 0x2 PUSH2 0x11C DUP3 DUP3 PUSH2 0x2AB JUMP JUMPDEST POP POP JUMP JUMPDEST PUSH1 0x3 DUP1 SLOAD PUSH1 0x1 PUSH1 0x1 PUSH1 0xA0 SHL SUB DUP4 DUP2 AND PUSH1 0x1 PUSH1 0x1 PUSH1 0xA0 SHL SUB NOT DUP4 AND DUP2 OR SWAP1 SWAP4 SSTORE PUSH1 0x40 MLOAD SWAP2 AND SWAP2 SWAP1 DUP3 SWAP1 PUSH32 0x8BE0079C531659141344CD1FD0A4F28419497F9722A3DAAFE3B4186F6B6457E0 SWAP1 PUSH0 SWAP1 LOG3 POP POP JUMP JUMPDEST PUSH2 0x2710 PUSH1 0x1 PUSH1 0x1 PUSH1 0x60 SHL SUB DUP3 AND DUP2 LT ISZERO PUSH2 0x1B0 JUMPI PUSH1 0x40 MLOAD PUSH4 0x6F483D09 PUSH1 0xE0 SHL DUP2 MSTORE PUSH1 0x1 PUSH1 0x1 PUSH1 0x60 SHL SUB DUP4 AND PUSH1 0x4 DUP3 ADD MSTORE PUSH1 0x24 DUP2 ADD DUP3 SWAP1 MSTORE PUSH1 0x44 ADD PUSH2 0xE0 JUMP JUMPDEST PUSH1 0x1 PUSH1 0x1 PUSH1 0xA0 SHL SUB DUP4 AND PUSH2 0x1D9 JUMPI PUSH1 0x40 MLOAD PUSH4 0x5B6CC805 PUSH1 0xE1 SHL DUP2 MSTORE PUSH0 PUSH1 0x4 DUP3 ADD MSTORE PUSH1 0x24 ADD PUSH2 0xE0 JUMP JUMPDEST POP PUSH1 0x40 DUP1 MLOAD DUP1 DUP3 ADD SWAP1 SWAP2 MSTORE PUSH1 0x1 PUSH1 0x1 PUSH1 0xA0 SHL SUB SWAP1 SWAP3 AND DUP1 DUP4 MSTORE PUSH1 0x1 PUSH1 0x1 PUSH1 0x60 SHL SUB SWAP1 SWAP2 AND PUSH1 0x20 SWAP1 SWAP3 ADD DUP3 SWAP1 MSTORE PUSH1 0x1 PUSH1 0xA0 SHL SWAP1 SWAP2 MUL OR PUSH1 0x4 SSTORE JUMP JUMPDEST PUSH4 0x4E487B71 PUSH1 0xE0 SHL PUSH0 MSTORE PUSH1 0x41 PUSH1 0x4 MSTORE PUSH1 0x24 PUSH0 REVERT JUMPDEST PUSH1 0x1 DUP2 DUP2 SHR SWAP1 DUP3 AND DUP1 PUSH2 0x23B JUMPI PUSH1 0x7F DUP3 AND SWAP2 POP JUMPDEST PUSH1 0x20 DUP3 LT DUP2 SUB PUSH2 0x259 JUMPI PUSH4 0x4E487B71 PUSH1 0xE0 SHL PUSH0 MSTORE PUSH1 0x22 PUSH1 0x4 MSTORE PUSH1 0x24 PUSH0 REVERT JUMPDEST POP SWAP2 SWAP1 POP JUMP JUMPDEST PUSH1 0x1F DUP3 GT ISZERO PUSH2 0x2A6 JUMPI DUP1 PUSH0 MSTORE PUSH1 0x20 PUSH0 KECCAK256 PUSH1 0x1F DUP5 ADD PUSH1 0x5 SHR DUP2 ADD PUSH1 0x20 DUP6 LT ISZERO PUSH2 0x284 JUMPI POP DUP1 JUMPDEST PUSH1 0x1F DUP5 ADD PUSH1 0x5 SHR DUP3 ADD SWAP2 POP JUMPDEST DUP2 DUP2 LT ISZERO PUSH2 0x2A3 JUMPI PUSH0 DUP2 SSTORE PUSH1 0x1 ADD PUSH2 0x290 JUMP JUMPDEST POP POP JUMPDEST POP POP POP JUMP JUMPDEST DUP2 MLOAD PUSH1 0x1 PUSH1 0x1 PUSH1 0x40 SHL SUB DUP2 GT ISZERO PUSH2 0x2C4 JUMPI PUSH2 0x2C4 PUSH2 0x213 JUMP JUMPDEST PUSH2 0x2D8 DUP2 PUSH2 0x2D2 DUP5 SLOAD PUSH2 0x227 JUMP JUMPDEST DUP5 PUSH2 0x25F JUMP JUMPDEST PUSH1 0x20 DUP1 PUSH1 0x1F DUP4 GT PUSH1 0x1 DUP2 EQ PUSH2 0x30B JUMPI PUSH0 DUP5 ISZERO PUSH2 0x2F4 JUMPI POP DUP6 DUP4 ADD MLOAD JUMPDEST PUSH0 NOT PUSH1 0x3 DUP7 SWAP1 SHL SHR NOT AND PUSH1 0x1 DUP6 SWAP1 SHL OR DUP6 SSTORE PUSH2 0x362 JUMP JUMPDEST PUSH0 DUP6 DUP2 MSTORE PUSH1 0x20 DUP2 KECCAK256 PUSH1 0x1F NOT DUP7 AND SWAP2 JUMPDEST DUP3 DUP2 LT ISZERO PUSH2 0x339 JUMPI DUP9 DUP7 ADD MLOAD DUP3 SSTORE SWAP5 DUP5 ADD SWAP5 PUSH1 0x1 SWAP1 SWAP2 ADD SWAP1 DUP5 ADD PUSH2 0x31A JUMP JUMPDEST POP DUP6 DUP3 LT ISZERO PUSH2 0x356 JUMPI DUP8 DUP6 ADD MLOAD PUSH0 NOT PUSH1 0x3 DUP9 SWAP1 SHL PUSH1 0xF8 AND SHR NOT AND DUP2 SSTORE JUMPDEST POP POP PUSH1 0x1 DUP5 PUSH1 0x1 SHL ADD DUP6 SSTORE JUMPDEST POP POP POP POP POP POP JUMP JUMPDEST PUSH2 0x19B9 DUP1 PUSH2 0x377 PUSH0 CODECOPY PUSH0 RETURN INVALID PUSH1 0x80 PUSH1 0x40 MSTORE PUSH1 0x4 CALLDATASIZE LT PUSH2 0x161 JUMPI PUSH0 CALLDATALOAD PUSH1 0xE0 SHR DUP1 PUSH4 0x4E1273F4 GT PUSH2 0xC6 JUMPI DUP1 PUSH4 0xA22CB465 GT PUSH2 0x7C JUMPI DUP1 PUSH4 0xE985E9C5 GT PUSH2 0x57 JUMPI DUP1 PUSH4 0xE985E9C5 EQ PUSH2 0x3CB JUMPI DUP1 PUSH4 0xF242432A EQ PUSH2 0x412 JUMPI DUP1 PUSH4 0xF2FDE38B EQ PUSH2 0x431 JUMPI PUSH0 DUP1 REVERT JUMPDEST DUP1 PUSH4 0xA22CB465 EQ PUSH2 0x367 JUMPI DUP1 PUSH4 0xBD85B039 EQ PUSH2 0x386 JUMPI DUP1 PUSH4 0xC002D23D EQ PUSH2 0x3B1 JUMPI PUSH0 DUP1 REVERT JUMPDEST DUP1 PUSH4 0x715018A6 GT PUSH2 0xAC JUMPI DUP1 PUSH4 0x715018A6 EQ PUSH2 0x322 JUMPI DUP1 PUSH4 0x8DA5CB5B EQ PUSH2 0x336 JUMPI DUP1 PUSH4 0x95D89B41 EQ PUSH2 0x353 JUMPI PUSH0 DUP1 REVERT JUMPDEST DUP1 PUSH4 0x4E1273F4 EQ PUSH2 0x2BF JUMPI DUP1 PUSH4 0x61D027B3 EQ PUSH2 0x2EB JUMPI PUSH0 DUP1 REVERT JUMPDEST DUP1 PUSH4 0x1B2EF1CA GT PUSH2 0x11B JUMPI DUP1 PUSH4 0x2EB2C2D6 GT PUSH2 0x101 JUMPI DUP1 PUSH4 0x2EB2C2D6 EQ PUSH2 0x278 JUMPI DUP1 PUSH4 0x32CB6B0C EQ PUSH2 0x297 JUMPI DUP1 PUSH4 0x3CCFD60B EQ PUSH2 0x2AB JUMPI PUSH0 DUP1 REVERT JUMPDEST DUP1 PUSH4 0x1B2EF1CA EQ PUSH2 0x227 JUMPI DUP1 PUSH4 0x2A55205A EQ PUSH2 0x23A JUMPI PUSH0 DUP1 REVERT JUMPDEST DUP1 PUSH4 0x2FE5305 GT PUSH2 0x14B JUMPI DUP1 PUSH4 0x2FE5305 EQ PUSH2 0x1C6 JUMPI DUP1 PUSH4 0x6FDDE03 EQ PUSH2 0x1E7 JUMPI DUP1 PUSH4 0xE89341C EQ PUSH2 0x208 JUMPI PUSH0 DUP1 REVERT JUMPDEST DUP1 PUSH3 0xFDD58E EQ PUSH2 0x165 JUMPI DUP1 PUSH4 0x1FFC9A7 EQ PUSH2 0x197 JUMPI JUMPDEST PUSH0 DUP1 REVERT JUMPDEST CALLVALUE DUP1 ISZERO PUSH2 0x170 JUMPI PUSH0 DUP1 REVERT JUMPDEST POP PUSH2 0x184 PUSH2 0x17F CALLDATASIZE PUSH1 0x4 PUSH2 0x11F8 JUMP JUMPDEST PUSH2 0x450 JUMP JUMPDEST PUSH1 0x40 MLOAD SWAP1 DUP2 MSTORE PUSH1 0x20 ADD JUMPDEST PUSH1 0x40 MLOAD DUP1 SWAP2 SUB SWAP1 RETURN JUMPDEST CALLVALUE DUP1 ISZERO PUSH2 0x1A2 JUMPI PUSH0 DUP1 REVERT JUMPDEST POP PUSH2 0x1B6 PUSH2 0x1B1 CALLDATASIZE PUSH1 0x4 PUSH2 0x1235 JUMP JUMPDEST PUSH2 0x477 JUMP JUMPDEST PUSH1 0x40 MLOAD SWAP1 ISZERO ISZERO DUP2 MSTORE PUSH1 0x20 ADD PUSH2 0x18E JUMP JUMPDEST CALLVALUE DUP1 ISZERO PUSH2 0x1D1 JUMPI PUSH0 DUP1 REVERT JUMPDEST POP PUSH2 0x1E5 PUSH2 0x1E0 CALLDATASIZE PUSH1 0x4 PUSH2 0x12F1 JUMP JUMPDEST PUSH2 0x481 JUMP JUMPDEST STOP JUMPDEST CALLVALUE DUP1 ISZERO PUSH2 0x1F2 JUMPI PUSH0 DUP1 REVERT JUMPDEST POP PUSH2 0x1FB PUSH2 0x495 JUMP JUMPDEST PUSH1 0x40 MLOAD PUSH2 0x18E SWAP2 SWAP1 PUSH2 0x136C JUMP JUMPDEST CALLVALUE DUP1 ISZERO PUSH2 0x213 JUMPI PUSH0 DUP1 REVERT JUMPDEST POP PUSH2 0x1FB PUSH2 0x222 CALLDATASIZE PUSH1 0x4 PUSH2 0x137E JUMP JUMPDEST PUSH2 0x521 JUMP JUMPDEST PUSH2 0x1E5 PUSH2 0x235 CALLDATASIZE PUSH1 0x4 PUSH2 0x1395 JUMP JUMPDEST PUSH2 0x5B3 JUMP JUMPDEST CALLVALUE DUP1 ISZERO PUSH2 0x245 JUMPI PUSH0 DUP1 REVERT JUMPDEST POP PUSH2 0x259 PUSH2 0x254 CALLDATASIZE PUSH1 0x4 PUSH2 0x1395 JUMP JUMPDEST PUSH2 0x6C4 JUMP JUMPDEST PUSH1 0x40 DUP1 MLOAD PUSH1 0x1 PUSH1 0x1 PUSH1 0xA0 SHL SUB SWAP1 SWAP4 AND DUP4 MSTORE PUSH1 0x20 DUP4 ADD SWAP2 SWAP1 SWAP2 MSTORE ADD PUSH2 0x18E JUMP JUMPDEST CALLVALUE DUP1 ISZERO PUSH2 0x283 JUMPI PUSH0 DUP1 REVERT JUMPDEST POP PUSH2 0x1E5 PUSH2 0x292 CALLDATASIZE PUSH1 0x4 PUSH2 0x1462 JUMP JUMPDEST PUSH2 0x756 JUMP JUMPDEST CALLVALUE DUP1 ISZERO PUSH2 0x2A2 JUMPI PUSH0 DUP1 REVERT JUMPDEST POP PUSH2 0x184 PUSH1 0x64 DUP2 JUMP JUMPDEST CALLVALUE DUP1 ISZERO PUSH2 0x2B6 JUMPI PUSH0 DUP1 REVERT JUMPDEST POP PUSH2 0x1E5 PUSH2 0x7DB JUMP JUMPDEST CALLVALUE DUP1 ISZERO PUSH2 0x2CA JUMPI PUSH0 DUP1 REVERT JUMPDEST POP PUSH2 0x2DE PUSH2 0x2D9 CALLDATASIZE PUSH1 0x4 PUSH2 0x1505 JUMP JUMPDEST PUSH2 0x8D1 JUMP JUMPDEST PUSH1 0x40 MLOAD PUSH2 0x18E SWAP2 SWAP1 PUSH2 0x15F9 JUMP JUMPDEST CALLVALUE DUP1 ISZERO PUSH2 0x2F6 JUMPI PUSH0 DUP1 REVERT JUMPDEST POP PUSH1 0x8 SLOAD PUSH2 0x30A SWAP1 PUSH1 0x1 PUSH1 0x1 PUSH1 0xA0 SHL SUB AND DUP2 JUMP JUMPDEST PUSH1 0x40 MLOAD PUSH1 0x1 PUSH1 0x1 PUSH1 0xA0 SHL SUB SWAP1 SWAP2 AND DUP2 MSTORE PUSH1 0x20 ADD PUSH2 0x18E JUMP JUMPDEST CALLVALUE DUP1 ISZERO PUSH2 0x32D JUMPI PUSH0 DUP1 REVERT JUMPDEST POP PUSH2 0x1E5 PUSH2 0x99C JUMP JUMPDEST CALLVALUE DUP1 ISZERO PUSH2 0x341 JUMPI PUSH0 DUP1 REVERT JUMPDEST POP PUSH1 0x3 SLOAD PUSH1 0x1 PUSH1 0x1 PUSH1 0xA0 SHL SUB AND PUSH2 0x30A JUMP JUMPDEST CALLVALUE DUP1 ISZERO PUSH2 0x35E JUMPI PUSH0 DUP1 REVERT JUMPDEST POP PUSH2 0x1FB PUSH2 0x9AF JUMP JUMPDEST CALLVALUE DUP1 ISZERO PUSH2 0x372 JUMPI PUSH0 DUP1 REVERT JUMPDEST POP PUSH2 0x1E5 PUSH2 0x381 CALLDATASIZE PUSH1 0x4 PUSH2 0x160B JUMP JUMPDEST PUSH2 0x9BC JUMP JUMPDEST CALLVALUE DUP1 ISZERO PUSH2 0x391 JUMPI PUSH0 DUP1 REVERT JUMPDEST POP PUSH2 0x184 PUSH2 0x3A0 CALLDATASIZE PUSH1 0x4 PUSH2 0x137E JUMP JUMPDEST PUSH1 0x9 PUSH1 0x20 MSTORE PUSH0 SWAP1 DUP2 MSTORE PUSH1 0x40 SWAP1 KECCAK256 SLOAD DUP2 JUMP JUMPDEST CALLVALUE DUP1 ISZERO PUSH2 0x3BC JUMPI PUSH0 DUP1 REVERT JUMPDEST POP PUSH2 0x184 PUSH7 0x2C2AD68FD9000 DUP2 JUMP JUMPDEST CALLVALUE DUP1 ISZERO PUSH2 0x3D6 JUMPI PUSH0 DUP1 REVERT JUMPDEST POP PUSH2 0x1B6 PUSH2 0x3E5 CALLDATASIZE PUSH1 0x4 PUSH2 0x1644 JUMP JUMPDEST PUSH1 0x1 PUSH1 0x1 PUSH1 0xA0 SHL SUB SWAP2 DUP3 AND PUSH0 SWAP1 DUP2 MSTORE PUSH1 0x1 PUSH1 0x20 SWAP1 DUP2 MSTORE PUSH1 0x40 DUP1 DUP4 KECCAK256 SWAP4 SWAP1 SWAP5 AND DUP3 MSTORE SWAP2 SWAP1 SWAP2 MSTORE KECCAK256 SLOAD PUSH1 0xFF AND SWAP1 JUMP JUMPDEST CALLVALUE DUP1 ISZERO PUSH2 0x41D JUMPI PUSH0 DUP1 REVERT JUMPDEST POP PUSH2 0x1E5 PUSH2 0x42C CALLDATASIZE PUSH1 0x4 PUSH2 0x1675 JUMP JUMPDEST PUSH2 0x9C7 JUMP JUMPDEST CALLVALUE DUP1 ISZERO PUSH2 0x43C JUMPI PUSH0 DUP1 REVERT JUMPDEST POP PUSH2 0x1E5 PUSH2 0x44B CALLDATASIZE PUSH1 0x4 PUSH2 0x16D5 JUMP JUMPDEST PUSH2 0xA44 JUMP JUMPDEST PUSH0 DUP2 DUP2 MSTORE PUSH1 0x20 DUP2 DUP2 MSTORE PUSH1 0x40 DUP1 DUP4 KECCAK256 PUSH1 0x1 PUSH1 0x1 PUSH1 0xA0 SHL SUB DUP7 AND DUP5 MSTORE SWAP1 SWAP2 MSTORE SWAP1 KECCAK256 SLOAD JUMPDEST SWAP3 SWAP2 POP POP JUMP JUMPDEST PUSH0 PUSH2 0x471 DUP3 PUSH2 0xA7E JUMP JUMPDEST PUSH2 0x489 PUSH2 0xAA2 JUMP JUMPDEST PUSH2 0x492 DUP2 PUSH2 0xACF JUMP JUMPDEST POP JUMP JUMPDEST PUSH1 0x6 DUP1 SLOAD PUSH2 0x4A2 SWAP1 PUSH2 0x16EE JUMP JUMPDEST DUP1 PUSH1 0x1F ADD PUSH1 0x20 DUP1 SWAP2 DIV MUL PUSH1 0x20 ADD PUSH1 0x40 MLOAD SWAP1 DUP2 ADD PUSH1 0x40 MSTORE DUP1 SWAP3 SWAP2 SWAP1 DUP2 DUP2 MSTORE PUSH1 0x20 ADD DUP3 DUP1 SLOAD PUSH2 0x4CE SWAP1 PUSH2 0x16EE JUMP JUMPDEST DUP1 ISZERO PUSH2 0x519 JUMPI DUP1 PUSH1 0x1F LT PUSH2 0x4F0 JUMPI PUSH2 0x100 DUP1 DUP4 SLOAD DIV MUL DUP4 MSTORE SWAP2 PUSH1 0x20 ADD SWAP2 PUSH2 0x519 JUMP JUMPDEST DUP3 ADD SWAP2 SWAP1 PUSH0 MSTORE PUSH1 0x20 PUSH0 KECCAK256 SWAP1 JUMPDEST DUP2 SLOAD DUP2 MSTORE SWAP1 PUSH1 0x1 ADD SWAP1 PUSH1 0x20 ADD DUP1 DUP4 GT PUSH2 0x4FC JUMPI DUP3 SWAP1 SUB PUSH1 0x1F AND DUP3 ADD SWAP2 JUMPDEST POP POP POP POP POP DUP2 JUMP JUMPDEST PUSH1 0x60 PUSH1 0x2 DUP1 SLOAD PUSH2 0x530 SWAP1 PUSH2 0x16EE JUMP JUMPDEST DUP1 PUSH1 0x1F ADD PUSH1 0x20 DUP1 SWAP2 DIV MUL PUSH1 0x20 ADD PUSH1 0x40 MLOAD SWAP1 DUP2 ADD PUSH1 0x40 MSTORE DUP1 SWAP3 SWAP2 SWAP1 DUP2 DUP2 MSTORE PUSH1 0x20 ADD DUP3 DUP1 SLOAD PUSH2 0x55C SWAP1 PUSH2 0x16EE JUMP JUMPDEST DUP1 ISZERO PUSH2 0x5A7 JUMPI DUP1 PUSH1 0x1F LT PUSH2 0x57E JUMPI PUSH2 0x100 DUP1 DUP4 SLOAD DIV MUL DUP4 MSTORE SWAP2 PUSH1 0x20 ADD SWAP2 PUSH2 0x5A7 JUMP JUMPDEST DUP3 ADD SWAP2 SWAP1 PUSH0 MSTORE PUSH1 0x20 PUSH0 KECCAK256 SWAP1 JUMPDEST DUP2 SLOAD DUP2 MSTORE SWAP1 PUSH1 0x1 ADD SWAP1 PUSH1 0x20 ADD DUP1 DUP4 GT PUSH2 0x58A JUMPI DUP3 SWAP1 SUB PUSH1 0x1F AND DUP3 ADD SWAP2 JUMPDEST POP POP POP POP POP SWAP1 POP SWAP2 SWAP1 POP JUMP JUMPDEST PUSH2 0x5C4 DUP2 PUSH7 0x2C2AD68FD9000 PUSH2 0x173A JUMP JUMPDEST CALLVALUE LT ISZERO PUSH2 0x618 JUMPI PUSH1 0x40 MLOAD PUSH3 0x461BCD PUSH1 0xE5 SHL DUP2 MSTORE PUSH1 0x20 PUSH1 0x4 DUP3 ADD MSTORE PUSH1 0x14 PUSH1 0x24 DUP3 ADD MSTORE PUSH32 0x496E73756666696369656E74207061796D656E74000000000000000000000000 PUSH1 0x44 DUP3 ADD MSTORE PUSH1 0x64 ADD JUMPDEST PUSH1 0x40 MLOAD DUP1 SWAP2 SUB SWAP1 REVERT JUMPDEST PUSH0 DUP3 DUP2 MSTORE PUSH1 0x9 PUSH1 0x20 MSTORE PUSH1 0x40 SWAP1 KECCAK256 SLOAD PUSH1 0x64 SWAP1 PUSH2 0x634 SWAP1 DUP4 SWAP1 PUSH2 0x1751 JUMP JUMPDEST GT ISZERO PUSH2 0x682 JUMPI PUSH1 0x40 MLOAD PUSH3 0x461BCD PUSH1 0xE5 SHL DUP2 MSTORE PUSH1 0x20 PUSH1 0x4 DUP3 ADD MSTORE PUSH1 0x12 PUSH1 0x24 DUP3 ADD MSTORE PUSH32 0x45786365656473206D617820737570706C790000000000000000000000000000 PUSH1 0x44 DUP3 ADD MSTORE PUSH1 0x64 ADD PUSH2 0x60F JUMP JUMPDEST PUSH0 DUP3 DUP2 MSTORE PUSH1 0x9 PUSH1 0x20 MSTORE PUSH1 0x40 DUP2 KECCAK256 DUP1 SLOAD DUP4 SWAP3 SWAP1 PUSH2 0x69F SWAP1 DUP5 SWAP1 PUSH2 0x1751 JUMP JUMPDEST SWAP3 POP POP DUP2 SWAP1 SSTORE POP PUSH2 0x6C0 CALLER DUP4 DUP4 PUSH1 0x40 MLOAD DUP1 PUSH1 0x20 ADD PUSH1 0x40 MSTORE DUP1 PUSH0 DUP2 MSTORE POP PUSH2 0xADB JUMP JUMPDEST POP POP JUMP JUMPDEST PUSH0 DUP3 DUP2 MSTORE PUSH1 0x5 PUSH1 0x20 MSTORE PUSH1 0x40 DUP2 KECCAK256 DUP1 SLOAD DUP3 SWAP2 SWAP1 PUSH1 0x1 PUSH1 0x1 PUSH1 0xA0 SHL SUB DUP2 AND SWAP1 PUSH1 0x1 PUSH1 0xA0 SHL SWAP1 DIV PUSH12 0xFFFFFFFFFFFFFFFFFFFFFFFF AND DUP2 PUSH2 0x721 JUMPI POP POP PUSH1 0x4 SLOAD PUSH1 0x1 PUSH1 0x1 PUSH1 0xA0 SHL SUB DUP2 AND SWAP1 PUSH1 0x1 PUSH1 0xA0 SHL SWAP1 DIV PUSH12 0xFFFFFFFFFFFFFFFFFFFFFFFF AND JUMPDEST PUSH0 PUSH2 0x2710 PUSH2 0x73D PUSH12 0xFFFFFFFFFFFFFFFFFFFFFFFF DUP5 AND DUP10 PUSH2 0x173A JUMP JUMPDEST PUSH2 0x747 SWAP2 SWAP1 PUSH2 0x1764 JUMP JUMPDEST SWAP3 SWAP9 SWAP3 SWAP8 POP SWAP2 SWAP6 POP POP POP POP POP POP JUMP JUMPDEST CALLER PUSH1 0x1 PUSH1 0x1 PUSH1 0xA0 SHL SUB DUP7 AND DUP2 EQ DUP1 ISZERO SWAP1 PUSH2 0x795 JUMPI POP PUSH1 0x1 PUSH1 0x1 PUSH1 0xA0 SHL SUB DUP1 DUP8 AND PUSH0 SWAP1 DUP2 MSTORE PUSH1 0x1 PUSH1 0x20 SWAP1 DUP2 MSTORE PUSH1 0x40 DUP1 DUP4 KECCAK256 SWAP4 DUP6 AND DUP4 MSTORE SWAP3 SWAP1 MSTORE KECCAK256 SLOAD PUSH1 0xFF AND ISZERO JUMPDEST ISZERO PUSH2 0x7C6 JUMPI PUSH1 0x40 MLOAD PUSH4 0x711BEC91 PUSH1 0xE1 SHL DUP2 MSTORE PUSH1 0x1 PUSH1 0x1 PUSH1 0xA0 SHL SUB DUP1 DUP4 AND PUSH1 0x4 DUP4 ADD MSTORE DUP8 AND PUSH1 0x24 DUP3 ADD MSTORE PUSH1 0x44 ADD PUSH2 0x60F JUMP JUMPDEST PUSH2 0x7D3 DUP7 DUP7 DUP7 DUP7 DUP7 PUSH2 0xB36 JUMP JUMPDEST POP POP POP POP POP POP JUMP JUMPDEST PUSH2 0x7E3 PUSH2 0xAA2 JUMP JUMPDEST SELFBALANCE DUP1 PUSH2 0x831 JUMPI PUSH1 0x40 MLOAD PUSH3 0x461BCD PUSH1 0xE5 SHL DUP2 MSTORE PUSH1 0x20 PUSH1 0x4 DUP3 ADD MSTORE PUSH1 0x14 PUSH1 0x24 DUP3 ADD MSTORE PUSH32 0x4E6F2066756E647320746F207769746864726177000000000000000000000000 PUSH1 0x44 DUP3 ADD MSTORE PUSH1 0x64 ADD PUSH2 0x60F JUMP JUMPDEST PUSH1 0x8 SLOAD PUSH1 0x40 MLOAD PUSH0 SWAP2 PUSH1 0x1 PUSH1 0x1 PUSH1 0xA0 SHL SUB AND SWAP1 DUP4 SWAP1 DUP4 DUP2 DUP2 DUP2 DUP6 DUP8 GAS CALL SWAP3 POP POP POP RETURNDATASIZE DUP1 PUSH0 DUP2 EQ PUSH2 0x87B JUMPI PUSH1 0x40 MLOAD SWAP2 POP PUSH1 0x1F NOT PUSH1 0x3F RETURNDATASIZE ADD AND DUP3 ADD PUSH1 0x40 MSTORE RETURNDATASIZE DUP3 MSTORE RETURNDATASIZE PUSH0 PUSH1 0x20 DUP5 ADD RETURNDATACOPY PUSH2 0x880 JUMP JUMPDEST PUSH1 0x60 SWAP2 POP JUMPDEST POP POP SWAP1 POP DUP1 PUSH2 0x6C0 JUMPI PUSH1 0x40 MLOAD PUSH3 0x461BCD PUSH1 0xE5 SHL DUP2 MSTORE PUSH1 0x20 PUSH1 0x4 DUP3 ADD MSTORE PUSH1 0xF PUSH1 0x24 DUP3 ADD MSTORE PUSH32 0x5472616E73666572206661696C65640000000000000000000000000000000000 PUSH1 0x44 DUP3 ADD MSTORE PUSH1 0x64 ADD PUSH2 0x60F JUMP JUMPDEST PUSH1 0x60 DUP2 MLOAD DUP4 MLOAD EQ PUSH2 0x902 JUMPI DUP2 MLOAD DUP4 MLOAD PUSH1 0x40 MLOAD PUSH4 0x5B059991 PUSH1 0xE0 SHL DUP2 MSTORE PUSH1 0x4 DUP2 ADD SWAP3 SWAP1 SWAP3 MSTORE PUSH1 0x24 DUP3 ADD MSTORE PUSH1 0x44 ADD PUSH2 0x60F JUMP JUMPDEST PUSH0 DUP4 MLOAD PUSH8 0xFFFFFFFFFFFFFFFF DUP2 GT ISZERO PUSH2 0x91D JUMPI PUSH2 0x91D PUSH2 0x1257 JUMP JUMPDEST PUSH1 0x40 MLOAD SWAP1 DUP1 DUP3 MSTORE DUP1 PUSH1 0x20 MUL PUSH1 0x20 ADD DUP3 ADD PUSH1 0x40 MSTORE DUP1 ISZERO PUSH2 0x946 JUMPI DUP2 PUSH1 0x20 ADD PUSH1 0x20 DUP3 MUL DUP1 CALLDATASIZE DUP4 CALLDATACOPY ADD SWAP1 POP JUMPDEST POP SWAP1 POP PUSH0 JUMPDEST DUP5 MLOAD DUP2 LT ISZERO PUSH2 0x994 JUMPI PUSH1 0x20 DUP1 DUP3 MUL DUP7 ADD ADD MLOAD PUSH2 0x96F SWAP1 PUSH1 0x20 DUP1 DUP5 MUL DUP8 ADD ADD MLOAD PUSH2 0x450 JUMP JUMPDEST DUP3 DUP3 DUP2 MLOAD DUP2 LT PUSH2 0x981 JUMPI PUSH2 0x981 PUSH2 0x1783 JUMP JUMPDEST PUSH1 0x20 SWAP1 DUP2 MUL SWAP2 SWAP1 SWAP2 ADD ADD MSTORE PUSH1 0x1 ADD PUSH2 0x94B JUMP JUMPDEST POP SWAP4 SWAP3 POP POP POP JUMP JUMPDEST PUSH2 0x9A4 PUSH2 0xAA2 JUMP JUMPDEST PUSH2 0x9AD PUSH0 PUSH2 0xB9B JUMP JUMPDEST JUMP JUMPDEST PUSH1 0x7 DUP1 SLOAD PUSH2 0x4A2 SWAP1 PUSH2 0x16EE JUMP JUMPDEST PUSH2 0x6C0 CALLER DUP4 DUP4 PUSH2 0xC04 JUMP JUMPDEST CALLER PUSH1 0x1 PUSH1 0x1 PUSH1 0xA0 SHL SUB DUP7 AND DUP2 EQ DUP1 ISZERO SWAP1 PUSH2 0xA06 JUMPI POP PUSH1 0x1 PUSH1 0x1 PUSH1 0xA0 SHL SUB DUP1 DUP8 AND PUSH0 SWAP1 DUP2 MSTORE PUSH1 0x1 PUSH1 0x20 SWAP1 DUP2 MSTORE PUSH1 0x40 DUP1 DUP4 KECCAK256 SWAP4 DUP6 AND DUP4 MSTORE SWAP3 SWAP1 MSTORE KECCAK256 SLOAD PUSH1 0xFF AND ISZERO JUMPDEST ISZERO PUSH2 0xA37 JUMPI PUSH1 0x40 MLOAD PUSH4 0x711BEC91 PUSH1 0xE1 SHL DUP2 MSTORE PUSH1 0x1 PUSH1 0x1 PUSH1 0xA0 SHL SUB DUP1 DUP4 AND PUSH1 0x4 DUP4 ADD MSTORE DUP8 AND PUSH1 0x24 DUP3 ADD MSTORE PUSH1 0x44 ADD PUSH2 0x60F JUMP JUMPDEST PUSH2 0x7D3 DUP7 DUP7 DUP7 DUP7 DUP7 PUSH2 0xC98 JUMP JUMPDEST PUSH2 0xA4C PUSH2 0xAA2 JUMP JUMPDEST PUSH1 0x1 PUSH1 0x1 PUSH1 0xA0 SHL SUB DUP2 AND PUSH2 0xA75 JUMPI PUSH1 0x40 MLOAD PUSH4 0x1E4FBDF7 PUSH1 0xE0 SHL DUP2 MSTORE PUSH0 PUSH1 0x4 DUP3 ADD MSTORE PUSH1 0x24 ADD PUSH2 0x60F JUMP JUMPDEST PUSH2 0x492 DUP2 PUSH2 0xB9B JUMP JUMPDEST PUSH0 PUSH1 0x1 PUSH1 0x1 PUSH1 0xE0 SHL SUB NOT DUP3 AND PUSH4 0x152A902D PUSH1 0xE1 SHL EQ DUP1 PUSH2 0x471 JUMPI POP PUSH2 0x471 DUP3 PUSH2 0xD24 JUMP JUMPDEST PUSH1 0x3 SLOAD PUSH1 0x1 PUSH1 0x1 PUSH1 0xA0 SHL SUB AND CALLER EQ PUSH2 0x9AD JUMPI PUSH1 0x40 MLOAD PUSH4 0x118CDAA7 PUSH1 0xE0 SHL DUP2 MSTORE CALLER PUSH1 0x4 DUP3 ADD MSTORE PUSH1 0x24 ADD PUSH2 0x60F JUMP JUMPDEST PUSH1 0x2 PUSH2 0x6C0 DUP3 DUP3 PUSH2 0x17E0 JUMP JUMPDEST PUSH1 0x1 PUSH1 0x1 PUSH1 0xA0 SHL SUB DUP5 AND PUSH2 0xB04 JUMPI PUSH1 0x40 MLOAD PUSH4 0x2BFA23E7 PUSH1 0xE1 SHL DUP2 MSTORE PUSH0 PUSH1 0x4 DUP3 ADD MSTORE PUSH1 0x24 ADD PUSH2 0x60F JUMP JUMPDEST PUSH1 0x40 DUP1 MLOAD PUSH1 0x1 DUP1 DUP3 MSTORE PUSH1 0x20 DUP3 ADD DUP7 SWAP1 MSTORE DUP2 DUP4 ADD SWAP1 DUP2 MSTORE PUSH1 0x60 DUP3 ADD DUP6 SWAP1 MSTORE PUSH1 0x80 DUP3 ADD SWAP1 SWAP3 MSTORE SWAP1 PUSH2 0x7D3 PUSH0 DUP8 DUP5 DUP5 DUP8 PUSH2 0xD73 JUMP JUMPDEST PUSH1 0x1 PUSH1 0x1 PUSH1 0xA0 SHL SUB DUP5 AND PUSH2 0xB5F JUMPI PUSH1 0x40 MLOAD PUSH4 0x2BFA23E7 PUSH1 0xE1 SHL DUP2 MSTORE PUSH0 PUSH1 0x4 DUP3 ADD MSTORE PUSH1 0x24 ADD PUSH2 0x60F JUMP JUMPDEST PUSH1 0x1 PUSH1 0x1 PUSH1 0xA0 SHL SUB DUP6 AND PUSH2 0xB87 JUMPI PUSH1 0x40 MLOAD PUSH3 0x6A0D45 PUSH1 0xE2 SHL DUP2 MSTORE PUSH0 PUSH1 0x4 DUP3 ADD MSTORE PUSH1 0x24 ADD PUSH2 0x60F JUMP JUMPDEST PUSH2 0xB94 DUP6 DUP6 DUP6 DUP6 DUP6 PUSH2 0xD73 JUMP JUMPDEST POP POP POP POP POP JUMP JUMPDEST PUSH1 0x3 DUP1 SLOAD PUSH1 0x1 PUSH1 0x1 PUSH1 0xA0 SHL SUB DUP4 DUP2 AND PUSH32 0xFFFFFFFFFFFFFFFFFFFFFFFF0000000000000000000000000000000000000000 DUP4 AND DUP2 OR SWAP1 SWAP4 SSTORE PUSH1 0x40 MLOAD SWAP2 AND SWAP2 SWAP1 DUP3 SWAP1 PUSH32 0x8BE0079C531659141344CD1FD0A4F28419497F9722A3DAAFE3B4186F6B6457E0 SWAP1 PUSH0 SWAP1 LOG3 POP POP JUMP JUMPDEST PUSH1 0x1 PUSH1 0x1 PUSH1 0xA0 SHL SUB DUP3 AND PUSH2 0xC2C JUMPI PUSH1 0x40 MLOAD PUSH3 0xCED3E1 PUSH1 0xE8 SHL DUP2 MSTORE PUSH0 PUSH1 0x4 DUP3 ADD MSTORE PUSH1 0x24 ADD PUSH2 0x60F JUMP JUMPDEST PUSH1 0x1 PUSH1 0x1 PUSH1 0xA0 SHL SUB DUP4 DUP2 AND PUSH0 DUP2 DUP2 MSTORE PUSH1 0x1 PUSH1 0x20 SWAP1 DUP2 MSTORE PUSH1 0x40 DUP1 DUP4 KECCAK256 SWAP5 DUP8 AND DUP1 DUP5 MSTORE SWAP5 DUP3 MSTORE SWAP2 DUP3 SWAP1 KECCAK256 DUP1 SLOAD PUSH1 0xFF NOT AND DUP7 ISZERO ISZERO SWAP1 DUP2 OR SWAP1 SWAP2 SSTORE SWAP2 MLOAD SWAP2 DUP3 MSTORE PUSH32 0x17307EAB39AB6107E8899845AD3D59BD9653F200F220920489CA2B5937696C31 SWAP2 ADD PUSH1 0x40 MLOAD DUP1 SWAP2 SUB SWAP1 LOG3 POP POP POP JUMP JUMPDEST PUSH1 0x1 PUSH1 0x1 PUSH1 0xA0 SHL SUB DUP5 AND PUSH2 0xCC1 JUMPI PUSH1 0x40 MLOAD PUSH4 0x2BFA23E7 PUSH1 0xE1 SHL DUP2 MSTORE PUSH0 PUSH1 0x4 DUP3 ADD MSTORE PUSH1 0x24 ADD PUSH2 0x60F JUMP JUMPDEST PUSH1 0x1 PUSH1 0x1 PUSH1 0xA0 SHL SUB DUP6 AND PUSH2 0xCE9 JUMPI PUSH1 0x40 MLOAD PUSH3 0x6A0D45 PUSH1 0xE2 SHL DUP2 MSTORE PUSH0 PUSH1 0x4 DUP3 ADD MSTORE PUSH1 0x24 ADD PUSH2 0x60F JUMP JUMPDEST PUSH1 0x40 DUP1 MLOAD PUSH1 0x1 DUP1 DUP3 MSTORE PUSH1 0x20 DUP3 ADD DUP7 SWAP1 MSTORE DUP2 DUP4 ADD SWAP1 DUP2 MSTORE PUSH1 0x60 DUP3 ADD DUP6 SWAP1 MSTORE PUSH1 0x80 DUP3 ADD SWAP1 SWAP3 MSTORE SWAP1 PUSH2 0xD1B DUP8 DUP8 DUP5 DUP5 DUP8 PUSH2 0xD73 JUMP JUMPDEST POP POP POP POP POP POP POP JUMP JUMPDEST PUSH0 PUSH1 0x1 PUSH1 0x1 PUSH1 0xE0 SHL SUB NOT DUP3 AND PUSH4 0x6CDB3D13 PUSH1 0xE1 SHL EQ DUP1 PUSH2 0xD54 JUMPI POP PUSH1 0x1 PUSH1 0x1 PUSH1 0xE0 SHL SUB NOT DUP3 AND PUSH4 0x3A24D07 PUSH1 0xE2 SHL EQ JUMPDEST DUP1 PUSH2 0x471 JUMPI POP PUSH4 0x1FFC9A7 PUSH1 0xE0 SHL PUSH1 0x1 PUSH1 0x1 PUSH1 0xE0 SHL SUB NOT DUP4 AND EQ PUSH2 0x471 JUMP JUMPDEST PUSH2 0xD7F DUP6 DUP6 DUP6 DUP6 PUSH2 0xDC6 JUMP JUMPDEST PUSH1 0x1 PUSH1 0x1 PUSH1 0xA0 SHL SUB DUP5 AND ISZERO PUSH2 0xB94 JUMPI DUP3 MLOAD CALLER SWAP1 PUSH1 0x1 SUB PUSH2 0xDB8 JUMPI PUSH1 0x20 DUP5 DUP2 ADD MLOAD SWAP1 DUP5 ADD MLOAD PUSH2 0xDB1 DUP4 DUP10 DUP10 DUP6 DUP6 DUP10 PUSH2 0xFD5 JUMP JUMPDEST POP POP PUSH2 0x7D3 JUMP JUMPDEST PUSH2 0x7D3 DUP2 DUP8 DUP8 DUP8 DUP8 DUP8 PUSH2 0x10F6 JUMP JUMPDEST DUP1 MLOAD DUP3 MLOAD EQ PUSH2 0xDF5 JUMPI DUP2 MLOAD DUP2 MLOAD PUSH1 0x40 MLOAD PUSH4 0x5B059991 PUSH1 0xE0 SHL DUP2 MSTORE PUSH1 0x4 DUP2 ADD SWAP3 SWAP1 SWAP3 MSTORE PUSH1 0x24 DUP3 ADD MSTORE PUSH1 0x44 ADD PUSH2 0x60F JUMP JUMPDEST CALLER PUSH0 JUMPDEST DUP4 MLOAD DUP2 LT ISZERO PUSH2 0xEF7 JUMPI PUSH1 0x20 DUP2 DUP2 MUL DUP6 DUP2 ADD DUP3 ADD MLOAD SWAP1 DUP6 ADD SWAP1 SWAP2 ADD MLOAD PUSH1 0x1 PUSH1 0x1 PUSH1 0xA0 SHL SUB DUP9 AND ISZERO PUSH2 0xEA9 JUMPI PUSH0 DUP3 DUP2 MSTORE PUSH1 0x20 DUP2 DUP2 MSTORE PUSH1 0x40 DUP1 DUP4 KECCAK256 PUSH1 0x1 PUSH1 0x1 PUSH1 0xA0 SHL SUB DUP13 AND DUP5 MSTORE SWAP1 SWAP2 MSTORE SWAP1 KECCAK256 SLOAD DUP2 DUP2 LT ISZERO PUSH2 0xE83 JUMPI PUSH1 0x40 MLOAD PUSH4 0x3DEE4C5 PUSH1 0xE0 SHL DUP2 MSTORE PUSH1 0x1 PUSH1 0x1 PUSH1 0xA0 SHL SUB DUP11 AND PUSH1 0x4 DUP3 ADD MSTORE PUSH1 0x24 DUP2 ADD DUP3 SWAP1 MSTORE PUSH1 0x44 DUP2 ADD DUP4 SWAP1 MSTORE PUSH1 0x64 DUP2 ADD DUP5 SWAP1 MSTORE PUSH1 0x84 ADD PUSH2 0x60F JUMP JUMPDEST PUSH0 DUP4 DUP2 MSTORE PUSH1 0x20 DUP2 DUP2 MSTORE PUSH1 0x40 DUP1 DUP4 KECCAK256 PUSH1 0x1 PUSH1 0x1 PUSH1 0xA0 SHL SUB DUP14 AND DUP5 MSTORE SWAP1 SWAP2 MSTORE SWAP1 KECCAK256 SWAP1 DUP3 SWAP1 SUB SWAP1 SSTORE JUMPDEST PUSH1 0x1 PUSH1 0x1 PUSH1 0xA0 SHL SUB DUP8 AND ISZERO PUSH2 0xEED JUMPI PUSH0 DUP3 DUP2 MSTORE PUSH1 0x20 DUP2 DUP2 MSTORE PUSH1 0x40 DUP1 DUP4 KECCAK256 PUSH1 0x1 PUSH1 0x1 PUSH1 0xA0 SHL SUB DUP12 AND DUP5 MSTORE SWAP1 SWAP2 MSTORE DUP2 KECCAK256 DUP1 SLOAD DUP4 SWAP3 SWAP1 PUSH2 0xEE7 SWAP1 DUP5 SWAP1 PUSH2 0x1751 JUMP JUMPDEST SWAP1 SWAP2 SSTORE POP POP JUMPDEST POP POP PUSH1 0x1 ADD PUSH2 0xDF8 JUMP JUMPDEST POP DUP3 MLOAD PUSH1 0x1 SUB PUSH2 0xF77 JUMPI PUSH1 0x20 DUP4 ADD MLOAD PUSH0 SWAP1 PUSH1 0x20 DUP5 ADD MLOAD SWAP1 SWAP2 POP DUP6 PUSH1 0x1 PUSH1 0x1 PUSH1 0xA0 SHL SUB AND DUP8 PUSH1 0x1 PUSH1 0x1 PUSH1 0xA0 SHL SUB AND DUP5 PUSH1 0x1 PUSH1 0x1 PUSH1 0xA0 SHL SUB AND PUSH32 0xC3D58168C5AE7397731D063D5BBF3D657854427343F4C083240F7AACAA2D0F62 DUP6 DUP6 PUSH1 0x40 MLOAD PUSH2 0xF68 SWAP3 SWAP2 SWAP1 SWAP2 DUP3 MSTORE PUSH1 0x20 DUP3 ADD MSTORE PUSH1 0x40 ADD SWAP1 JUMP JUMPDEST PUSH1 0x40 MLOAD DUP1 SWAP2 SUB SWAP1 LOG4 POP POP PUSH2 0xB94 JUMP JUMPDEST DUP4 PUSH1 0x1 PUSH1 0x1 PUSH1 0xA0 SHL SUB AND DUP6 PUSH1 0x1 PUSH1 0x1 PUSH1 0xA0 SHL SUB AND DUP3 PUSH1 0x1 PUSH1 0x1 PUSH1 0xA0 SHL SUB AND PUSH32 0x4A39DC06D4C0DBC64B70AF90FD698A233A518AA5D07E595D983B8C0526C8F7FB DUP7 DUP7 PUSH1 0x40 MLOAD PUSH2 0xFC6 SWAP3 SWAP2 SWAP1 PUSH2 0x189C JUMP JUMPDEST PUSH1 0x40 MLOAD DUP1 SWAP2 SUB SWAP1 LOG4 POP POP POP POP POP JUMP JUMPDEST PUSH1 0x1 PUSH1 0x1 PUSH1 0xA0 SHL SUB DUP5 AND EXTCODESIZE ISZERO PUSH2 0x7D3 JUMPI PUSH1 0x40 MLOAD PUSH4 0xF23A6E61 PUSH1 0xE0 SHL DUP2 MSTORE PUSH1 0x1 PUSH1 0x1 PUSH1 0xA0 SHL SUB DUP6 AND SWAP1 PUSH4 0xF23A6E61 SWAP1 PUSH2 0x1019 SWAP1 DUP10 SWAP1 DUP10 SWAP1 DUP9 SWAP1 DUP9 SWAP1 DUP9 SWAP1 PUSH1 0x4 ADD PUSH2 0x18C9 JUMP JUMPDEST PUSH1 0x20 PUSH1 0x40 MLOAD DUP1 DUP4 SUB DUP2 PUSH0 DUP8 GAS CALL SWAP3 POP POP POP DUP1 ISZERO PUSH2 0x1053 JUMPI POP PUSH1 0x40 DUP1 MLOAD PUSH1 0x1F RETURNDATASIZE SWAP1 DUP2 ADD PUSH1 0x1F NOT AND DUP3 ADD SWAP1 SWAP3 MSTORE PUSH2 0x1050 SWAP2 DUP2 ADD SWAP1 PUSH2 0x190B JUMP JUMPDEST PUSH1 0x1 JUMPDEST PUSH2 0x10BA JUMPI RETURNDATASIZE DUP1 DUP1 ISZERO PUSH2 0x1080 JUMPI PUSH1 0x40 MLOAD SWAP2 POP PUSH1 0x1F NOT PUSH1 0x3F RETURNDATASIZE ADD AND DUP3 ADD PUSH1 0x40 MSTORE RETURNDATASIZE DUP3 MSTORE RETURNDATASIZE PUSH0 PUSH1 0x20 DUP5 ADD RETURNDATACOPY PUSH2 0x1085 JUMP JUMPDEST PUSH1 0x60 SWAP2 POP JUMPDEST POP DUP1 MLOAD PUSH0 SUB PUSH2 0x10B2 JUMPI PUSH1 0x40 MLOAD PUSH4 0x2BFA23E7 PUSH1 0xE1 SHL DUP2 MSTORE PUSH1 0x1 PUSH1 0x1 PUSH1 0xA0 SHL SUB DUP7 AND PUSH1 0x4 DUP3 ADD MSTORE PUSH1 0x24 ADD PUSH2 0x60F JUMP JUMPDEST DUP1 MLOAD PUSH1 0x20 DUP3 ADD REVERT JUMPDEST PUSH1 0x1 PUSH1 0x1 PUSH1 0xE0 SHL SUB NOT DUP2 AND PUSH4 0xF23A6E61 PUSH1 0xE0 SHL EQ PUSH2 0xD1B JUMPI PUSH1 0x40 MLOAD PUSH4 0x2BFA23E7 PUSH1 0xE1 SHL DUP2 MSTORE PUSH1 0x1 PUSH1 0x1 PUSH1 0xA0 SHL SUB DUP7 AND PUSH1 0x4 DUP3 ADD MSTORE PUSH1 0x24 ADD PUSH2 0x60F JUMP JUMPDEST PUSH1 0x1 PUSH1 0x1 PUSH1 0xA0 SHL SUB DUP5 AND EXTCODESIZE ISZERO PUSH2 0x7D3 JUMPI PUSH1 0x40 MLOAD PUSH4 0xBC197C81 PUSH1 0xE0 SHL DUP2 MSTORE PUSH1 0x1 PUSH1 0x1 PUSH1 0xA0 SHL SUB DUP6 AND SWAP1 PUSH4 0xBC197C81 SWAP1 PUSH2 0x113A SWAP1 DUP10 SWAP1 DUP10 SWAP1 DUP9 SWAP1 DUP9 SWAP1 DUP9 SWAP1 PUSH1 0x4 ADD PUSH2 0x1926 JUMP JUMPDEST PUSH1 0x20 PUSH1 0x40 MLOAD DUP1 DUP4 SUB DUP2 PUSH0 DUP8 GAS CALL SWAP3 POP POP POP DUP1 ISZERO PUSH2 0x1174 JUMPI POP PUSH1 0x40 DUP1 MLOAD PUSH1 0x1F RETURNDATASIZE SWAP1 DUP2 ADD PUSH1 0x1F NOT AND DUP3 ADD SWAP1 SWAP3 MSTORE PUSH2 0x1171 SWAP2 DUP2 ADD SWAP1 PUSH2 0x190B JUMP JUMPDEST PUSH1 0x1 JUMPDEST PUSH2 0x11A1 JUMPI RETURNDATASIZE DUP1 DUP1 ISZERO PUSH2 0x1080 JUMPI PUSH1 0x40 MLOAD SWAP2 POP PUSH1 0x1F NOT PUSH1 0x3F RETURNDATASIZE ADD AND DUP3 ADD PUSH1 0x40 MSTORE RETURNDATASIZE DUP3 MSTORE RETURNDATASIZE PUSH0 PUSH1 0x20 DUP5 ADD RETURNDATACOPY PUSH2 0x1085 JUMP JUMPDEST PUSH1 0x1 PUSH1 0x1 PUSH1 0xE0 SHL SUB NOT DUP2 AND PUSH4 0xBC197C81 PUSH1 0xE0 SHL EQ PUSH2 0xD1B JUMPI PUSH1 0x40 MLOAD PUSH4 0x2BFA23E7 PUSH1 0xE1 SHL DUP2 MSTORE PUSH1 0x1 PUSH1 0x1 PUSH1 0xA0 SHL SUB DUP7 AND PUSH1 0x4 DUP3 ADD MSTORE PUSH1 0x24 ADD PUSH2 0x60F JUMP JUMPDEST DUP1 CALLDATALOAD PUSH1 0x1 PUSH1 0x1 PUSH1 0xA0 SHL SUB DUP2 AND DUP2 EQ PUSH2 0x11F3 JUMPI PUSH0 DUP1 REVERT JUMPDEST SWAP2 SWAP1 POP JUMP JUMPDEST PUSH0 DUP1 PUSH1 0x40 DUP4 DUP6 SUB SLT ISZERO PUSH2 0x1209 JUMPI PUSH0 DUP1 REVERT JUMPDEST PUSH2 0x1212 DUP4 PUSH2 0x11DD JUMP JUMPDEST SWAP5 PUSH1 0x20 SWAP4 SWAP1 SWAP4 ADD CALLDATALOAD SWAP4 POP POP POP JUMP JUMPDEST PUSH1 0x1 PUSH1 0x1 PUSH1 0xE0 SHL SUB NOT DUP2 AND DUP2 EQ PUSH2 0x492 JUMPI PUSH0 DUP1 REVERT JUMPDEST PUSH0 PUSH1 0x20 DUP3 DUP5 SUB SLT ISZERO PUSH2 0x1245 JUMPI PUSH0 DUP1 REVERT JUMPDEST DUP2 CALLDATALOAD PUSH2 0x1250 DUP2 PUSH2 0x1220 JUMP JUMPDEST SWAP4 SWAP3 POP POP POP JUMP JUMPDEST PUSH4 0x4E487B71 PUSH1 0xE0 SHL PUSH0 MSTORE PUSH1 0x41 PUSH1 0x4 MSTORE PUSH1 0x24 PUSH0 REVERT JUMPDEST PUSH1 0x40 MLOAD PUSH1 0x1F DUP3 ADD PUSH1 0x1F NOT AND DUP2 ADD PUSH8 0xFFFFFFFFFFFFFFFF DUP2 GT DUP3 DUP3 LT OR ISZERO PUSH2 0x1294 JUMPI PUSH2 0x1294 PUSH2 0x1257 JUMP JUMPDEST PUSH1 0x40 MSTORE SWAP2 SWAP1 POP JUMP JUMPDEST PUSH0 PUSH8 0xFFFFFFFFFFFFFFFF DUP4 GT ISZERO PUSH2 0x12B5 JUMPI PUSH2 0x12B5 PUSH2 0x1257 JUMP JUMPDEST PUSH2 0x12C8 PUSH1 0x1F DUP5 ADD PUSH1 0x1F NOT AND PUSH1 0x20 ADD PUSH2 0x126B JUMP JUMPDEST SWAP1 POP DUP3 DUP2 MSTORE DUP4 DUP4 DUP4 ADD GT ISZERO PUSH2 0x12DB JUMPI PUSH0 DUP1 REVERT JUMPDEST DUP3 DUP3 PUSH1 0x20 DUP4 ADD CALLDATACOPY PUSH0 PUSH1 0x20 DUP5 DUP4 ADD ADD MSTORE SWAP4 SWAP3 POP POP POP JUMP JUMPDEST PUSH0 PUSH1 0x20 DUP3 DUP5 SUB SLT ISZERO PUSH2 0x1301 JUMPI PUSH0 DUP1 REVERT JUMPDEST DUP2 CALLDATALOAD PUSH8 0xFFFFFFFFFFFFFFFF DUP2 GT ISZERO PUSH2 0x1317 JUMPI PUSH0 DUP1 REVERT JUMPDEST DUP3 ADD PUSH1 0x1F DUP2 ADD DUP5 SGT PUSH2 0x1327 JUMPI PUSH0 DUP1 REVERT JUMPDEST PUSH2 0x1336 DUP5 DUP3 CALLDATALOAD PUSH1 0x20 DUP5 ADD PUSH2 0x129C JUMP JUMPDEST SWAP5 SWAP4 POP POP POP POP JUMP JUMPDEST PUSH0 DUP2 MLOAD DUP1 DUP5 MSTORE DUP1 PUSH1 0x20 DUP5 ADD PUSH1 0x20 DUP7 ADD MCOPY PUSH0 PUSH1 0x20 DUP3 DUP7 ADD ADD MSTORE PUSH1 0x20 PUSH1 0x1F NOT PUSH1 0x1F DUP4 ADD AND DUP6 ADD ADD SWAP2 POP POP SWAP3 SWAP2 POP POP JUMP JUMPDEST PUSH1 0x20 DUP2 MSTORE PUSH0 PUSH2 0x1250 PUSH1 0x20 DUP4 ADD DUP5 PUSH2 0x133E JUMP JUMPDEST PUSH0 PUSH1 0x20 DUP3 DUP5 SUB SLT ISZERO PUSH2 0x138E JUMPI PUSH0 DUP1 REVERT JUMPDEST POP CALLDATALOAD SWAP2 SWAP1 POP JUMP JUMPDEST PUSH0 DUP1 PUSH1 0x40 DUP4 DUP6 SUB SLT ISZERO PUSH2 0x13A6 JUMPI PUSH0 DUP1 REVERT JUMPDEST POP POP DUP1 CALLDATALOAD SWAP3 PUSH1 0x20 SWAP1 SWAP2 ADD CALLDATALOAD SWAP2 POP JUMP JUMPDEST PUSH0 PUSH8 0xFFFFFFFFFFFFFFFF DUP3 GT ISZERO PUSH2 0x13CE JUMPI PUSH2 0x13CE PUSH2 0x1257 JUMP JUMPDEST POP PUSH1 0x5 SHL PUSH1 0x20 ADD SWAP1 JUMP JUMPDEST PUSH0 DUP3 PUSH1 0x1F DUP4 ADD SLT PUSH2 0x13E7 JUMPI PUSH0 DUP1 REVERT JUMPDEST DUP2 CALLDATALOAD PUSH1 0x20 PUSH2 0x13FC PUSH2 0x13F7 DUP4 PUSH2 0x13B5 JUMP JUMPDEST PUSH2 0x126B JUMP JUMPDEST DUP1 DUP4 DUP3 MSTORE PUSH1 0x20 DUP3 ADD SWAP2 POP PUSH1 0x20 DUP5 PUSH1 0x5 SHL DUP8 ADD ADD SWAP4 POP DUP7 DUP5 GT ISZERO PUSH2 0x141D JUMPI PUSH0 DUP1 REVERT JUMPDEST PUSH1 0x20 DUP7 ADD JUMPDEST DUP5 DUP2 LT ISZERO PUSH2 0x1439 JUMPI DUP1 CALLDATALOAD DUP4 MSTORE SWAP2 DUP4 ADD SWAP2 DUP4 ADD PUSH2 0x1422 JUMP JUMPDEST POP SWAP7 SWAP6 POP POP POP POP POP POP JUMP JUMPDEST PUSH0 DUP3 PUSH1 0x1F DUP4 ADD SLT PUSH2 0x1453 JUMPI PUSH0 DUP1 REVERT JUMPDEST PUSH2 0x1250 DUP4 DUP4 CALLDATALOAD PUSH1 0x20 DUP6 ADD PUSH2 0x129C JUMP JUMPDEST PUSH0 DUP1 PUSH0 DUP1 PUSH0 PUSH1 0xA0 DUP7 DUP9 SUB SLT ISZERO PUSH2 0x1476 JUMPI PUSH0 DUP1 REVERT JUMPDEST PUSH2 0x147F DUP7 PUSH2 0x11DD JUMP JUMPDEST SWAP5 POP PUSH2 0x148D PUSH1 0x20 DUP8 ADD PUSH2 0x11DD JUMP JUMPDEST SWAP4 POP PUSH1 0x40 DUP7 ADD CALLDATALOAD PUSH8 0xFFFFFFFFFFFFFFFF DUP1 DUP3 GT ISZERO PUSH2 0x14A9 JUMPI PUSH0 DUP1 REVERT JUMPDEST PUSH2 0x14B5 DUP10 DUP4 DUP11 ADD PUSH2 0x13D8 JUMP JUMPDEST SWAP5 POP PUSH1 0x60 DUP9 ADD CALLDATALOAD SWAP2 POP DUP1 DUP3 GT ISZERO PUSH2 0x14CA JUMPI PUSH0 DUP1 REVERT JUMPDEST PUSH2 0x14D6 DUP10 DUP4 DUP11 ADD PUSH2 0x13D8 JUMP JUMPDEST SWAP4 POP PUSH1 0x80 DUP9 ADD CALLDATALOAD SWAP2 POP DUP1 DUP3 GT ISZERO PUSH2 0x14EB JUMPI PUSH0 DUP1 REVERT JUMPDEST POP PUSH2 0x14F8 DUP9 DUP3 DUP10 ADD PUSH2 0x1444 JUMP JUMPDEST SWAP2 POP POP SWAP3 SWAP6 POP SWAP3 SWAP6 SWAP1 SWAP4 POP JUMP JUMPDEST PUSH0 DUP1 PUSH1 0x40 DUP4 DUP6 SUB SLT ISZERO PUSH2 0x1516 JUMPI PUSH0 DUP1 REVERT JUMPDEST DUP3 CALLDATALOAD PUSH8 0xFFFFFFFFFFFFFFFF DUP1 DUP3 GT ISZERO PUSH2 0x152D JUMPI PUSH0 DUP1 REVERT JUMPDEST DUP2 DUP6 ADD SWAP2 POP DUP6 PUSH1 0x1F DUP4 ADD SLT PUSH2 0x1540 JUMPI PUSH0 DUP1 REVERT JUMPDEST DUP2 CALLDATALOAD PUSH1 0x20 PUSH2 0x1550 PUSH2 0x13F7 DUP4 PUSH2 0x13B5 JUMP JUMPDEST DUP3 DUP2 MSTORE PUSH1 0x5 SWAP3 SWAP1 SWAP3 SHL DUP5 ADD DUP2 ADD SWAP2 DUP2 DUP2 ADD SWAP1 DUP10 DUP5 GT ISZERO PUSH2 0x156E JUMPI PUSH0 DUP1 REVERT JUMPDEST SWAP5 DUP3 ADD SWAP5 JUMPDEST DUP4 DUP7 LT ISZERO PUSH2 0x1593 JUMPI PUSH2 0x1584 DUP7 PUSH2 0x11DD JUMP JUMPDEST DUP3 MSTORE SWAP5 DUP3 ADD SWAP5 SWAP1 DUP3 ADD SWAP1 PUSH2 0x1573 JUMP JUMPDEST SWAP7 POP POP DUP7 ADD CALLDATALOAD SWAP3 POP POP DUP1 DUP3 GT ISZERO PUSH2 0x15A8 JUMPI PUSH0 DUP1 REVERT JUMPDEST POP PUSH2 0x15B5 DUP6 DUP3 DUP7 ADD PUSH2 0x13D8 JUMP JUMPDEST SWAP2 POP POP SWAP3 POP SWAP3 SWAP1 POP JUMP JUMPDEST PUSH0 DUP2 MLOAD DUP1 DUP5 MSTORE PUSH1 0x20 DUP1 DUP6 ADD SWAP5 POP PUSH1 0x20 DUP5 ADD PUSH0 JUMPDEST DUP4 DUP2 LT ISZERO PUSH2 0x15EE JUMPI DUP2 MLOAD DUP8 MSTORE SWAP6 DUP3 ADD SWAP6 SWAP1 DUP3 ADD SWAP1 PUSH1 0x1 ADD PUSH2 0x15D2 JUMP JUMPDEST POP SWAP5 SWAP6 SWAP5 POP POP POP POP POP JUMP JUMPDEST PUSH1 0x20 DUP2 MSTORE PUSH0 PUSH2 0x1250 PUSH1 0x20 DUP4 ADD DUP5 PUSH2 0x15BF JUMP JUMPDEST PUSH0 DUP1 PUSH1 0x40 DUP4 DUP6 SUB SLT ISZERO PUSH2 0x161C JUMPI PUSH0 DUP1 REVERT JUMPDEST PUSH2 0x1625 DUP4 PUSH2 0x11DD JUMP JUMPDEST SWAP2 POP PUSH1 0x20 DUP4 ADD CALLDATALOAD DUP1 ISZERO ISZERO DUP2 EQ PUSH2 0x1639 JUMPI PUSH0 DUP1 REVERT JUMPDEST DUP1 SWAP2 POP POP SWAP3 POP SWAP3 SWAP1 POP JUMP JUMPDEST PUSH0 DUP1 PUSH1 0x40 DUP4 DUP6 SUB SLT ISZERO PUSH2 0x1655 JUMPI PUSH0 DUP1 REVERT JUMPDEST PUSH2 0x165E DUP4 PUSH2 0x11DD JUMP JUMPDEST SWAP2 POP PUSH2 0x166C PUSH1 0x20 DUP5 ADD PUSH2 0x11DD JUMP JUMPDEST SWAP1 POP SWAP3 POP SWAP3 SWAP1 POP JUMP JUMPDEST PUSH0 DUP1 PUSH0 DUP1 PUSH0 PUSH1 0xA0 DUP7 DUP9 SUB SLT ISZERO PUSH2 0x1689 JUMPI PUSH0 DUP1 REVERT JUMPDEST PUSH2 0x1692 DUP7 PUSH2 0x11DD JUMP JUMPDEST SWAP5 POP PUSH2 0x16A0 PUSH1 0x20 DUP8 ADD PUSH2 0x11DD JUMP JUMPDEST SWAP4 POP PUSH1 0x40 DUP7 ADD CALLDATALOAD SWAP3 POP PUSH1 0x60 DUP7 ADD CALLDATALOAD SWAP2 POP PUSH1 0x80 DUP7 ADD CALLDATALOAD PUSH8 0xFFFFFFFFFFFFFFFF DUP2 GT ISZERO PUSH2 0x16C9 JUMPI PUSH0 DUP1 REVERT JUMPDEST PUSH2 0x14F8 DUP9 DUP3 DUP10 ADD PUSH2 0x1444 JUMP JUMPDEST PUSH0 PUSH1 0x20 DUP3 DUP5 SUB SLT ISZERO PUSH2 0x16E5 JUMPI PUSH0 DUP1 REVERT JUMPDEST PUSH2 0x1250 DUP3 PUSH2 0x11DD JUMP JUMPDEST PUSH1 0x1 DUP2 DUP2 SHR SWAP1 DUP3 AND DUP1 PUSH2 0x1702 JUMPI PUSH1 0x7F DUP3 AND SWAP2 POP JUMPDEST PUSH1 0x20 DUP3 LT DUP2 SUB PUSH2 0x1720 JUMPI PUSH4 0x4E487B71 PUSH1 0xE0 SHL PUSH0 MSTORE PUSH1 0x22 PUSH1 0x4 MSTORE PUSH1 0x24 PUSH0 REVERT JUMPDEST POP SWAP2 SWAP1 POP JUMP JUMPDEST PUSH4 0x4E487B71 PUSH1 0xE0 SHL PUSH0 MSTORE PUSH1 0x11 PUSH1 0x4 MSTORE PUSH1 0x24 PUSH0 REVERT JUMPDEST DUP1 DUP3 MUL DUP2 ISZERO DUP3 DUP3 DIV DUP5 EQ OR PUSH2 0x471 JUMPI PUSH2 0x471 PUSH2 0x1726 JUMP JUMPDEST DUP1 DUP3 ADD DUP1 DUP3 GT ISZERO PUSH2 0x471 JUMPI PUSH2 0x471 PUSH2 0x1726 JUMP JUMPDEST PUSH0 DUP3 PUSH2 0x177E JUMPI PUSH4 0x4E487B71 PUSH1 0xE0 SHL PUSH0 MSTORE PUSH1 0x12 PUSH1 0x4 MSTORE PUSH1 0x24 PUSH0 REVERT JUMPDEST POP DIV SWAP1 JUMP JUMPDEST PUSH4 0x4E487B71 PUSH1 0xE0 SHL PUSH0 MSTORE PUSH1 0x32 PUSH1 0x4 MSTORE PUSH1 0x24 PUSH0 REVERT JUMPDEST PUSH1 0x1F DUP3 GT ISZERO PUSH2 0x17DB JUMPI DUP1 PUSH0 MSTORE PUSH1 0x20 PUSH0 KECCAK256 PUSH1 0x1F DUP5 ADD PUSH1 0x5 SHR DUP2 ADD PUSH1 0x20 DUP6 LT ISZERO PUSH2 0x17BC JUMPI POP DUP1 JUMPDEST PUSH1 0x1F DUP5 ADD PUSH1 0x5 SHR DUP3 ADD SWAP2 POP JUMPDEST DUP2 DUP2 LT ISZERO PUSH2 0xB94 JUMPI PUSH0 DUP2 SSTORE PUSH1 0x1 ADD PUSH2 0x17C8 JUMP JUMPDEST POP POP POP JUMP JUMPDEST DUP2 MLOAD PUSH8 0xFFFFFFFFFFFFFFFF DUP2 GT ISZERO PUSH2 0x17FA JUMPI PUSH2 0x17FA PUSH2 0x1257 JUMP JUMPDEST PUSH2 0x180E DUP2 PUSH2 0x1808 DUP5 SLOAD PUSH2 0x16EE JUMP JUMPDEST DUP5 PUSH2 0x1797 JUMP JUMPDEST PUSH1 0x20 DUP1 PUSH1 0x1F DUP4 GT PUSH1 0x1 DUP2 EQ PUSH2 0x1841 JUMPI PUSH0 DUP5 ISZERO PUSH2 0x182A JUMPI POP DUP6 DUP4 ADD MLOAD JUMPDEST PUSH0 NOT PUSH1 0x3 DUP7 SWAP1 SHL SHR NOT AND PUSH1 0x1 DUP6 SWAP1 SHL OR DUP6 SSTORE PUSH2 0x7D3 JUMP JUMPDEST PUSH0 DUP6 DUP2 MSTORE PUSH1 0x20 DUP2 KECCAK256 PUSH1 0x1F NOT DUP7 AND SWAP2 JUMPDEST DUP3 DUP2 LT ISZERO PUSH2 0x186F JUMPI DUP9 DUP7 ADD MLOAD DUP3 SSTORE SWAP5 DUP5 ADD SWAP5 PUSH1 0x1 SWAP1 SWAP2 ADD SWAP1 DUP5 ADD PUSH2 0x1850 JUMP JUMPDEST POP DUP6 DUP3 LT ISZERO PUSH2 0x188C JUMPI DUP8 DUP6 ADD MLOAD PUSH0 NOT PUSH1 0x3 DUP9 SWAP1 SHL PUSH1 0xF8 AND SHR NOT AND DUP2 SSTORE JUMPDEST POP POP POP POP POP PUSH1 0x1 SWAP1 DUP2 SHL ADD SWAP1 SSTORE POP JUMP JUMPDEST PUSH1 0x40 DUP2 MSTORE PUSH0 PUSH2 0x18AE PUSH1 0x40 DUP4 ADD DUP6 PUSH2 0x15BF JUMP JUMPDEST DUP3 DUP2 SUB PUSH1 0x20 DUP5 ADD MSTORE PUSH2 0x18C0 DUP2 DUP6 PUSH2 0x15BF JUMP JUMPDEST SWAP6 SWAP5 POP POP POP POP POP JUMP JUMPDEST PUSH0 PUSH1 0x1 PUSH1 0x1 PUSH1 0xA0 SHL SUB DUP1 DUP9 AND DUP4 MSTORE DUP1 DUP8 AND PUSH1 0x20 DUP5 ADD MSTORE POP DUP5 PUSH1 0x40 DUP4 ADD MSTORE DUP4 PUSH1 0x60 DUP4 ADD MSTORE PUSH1 0xA0 PUSH1 0x80 DUP4 ADD MSTORE PUSH2 0x1900 PUSH1 0xA0 DUP4 ADD DUP5 PUSH2 0x133E JUMP JUMPDEST SWAP8 SWAP7 POP POP POP POP POP POP POP JUMP JUMPDEST PUSH0 PUSH1 0x20 DUP3 DUP5 SUB SLT ISZERO PUSH2 0x191B JUMPI PUSH0 DUP1 REVERT JUMPDEST DUP2 MLOAD PUSH2 0x1250 DUP2 PUSH2 0x1220 JUMP JUMPDEST PUSH0 PUSH1 0x1 PUSH1 0x1 PUSH1 0xA0 SHL SUB DUP1 DUP9 AND DUP4 MSTORE DUP1 DUP8 AND PUSH1 0x20 DUP5 ADD MSTORE POP PUSH1 0xA0 PUSH1 0x40 DUP4 ADD MSTORE PUSH2 0x1951 PUSH1 0xA0 DUP4 ADD DUP7 PUSH2 0x15BF JUMP JUMPDEST DUP3 DUP2 SUB PUSH1 0x60 DUP5 ADD MSTORE PUSH2 0x1963 DUP2 DUP7 PUSH2 0x15BF JUMP JUMPDEST SWAP1 POP DUP3 DUP2 SUB PUSH1 0x80 DUP5 ADD MSTORE PUSH2 0x1977 DUP2 DUP6 PUSH2 0x133E JUMP JUMPDEST SWAP9 SWAP8 POP POP POP POP POP POP POP POP JUMP INVALID LOG2 PUSH5 0x6970667358 0x22 SLT KECCAK256 SMOD BLOBHASH 0xDA 0xB6 DUP11 0xB8 PUSH8 0x73C5462FA1FA817C PUSH1 0x5E 0xE1 0x2E 0x2A SWAP13 DUP9 0x22 SSTORE 0xBC 0xC2 LT 0x4D CHAINID 0xBF 0xE6 BALANCE PUSH5 0x736F6C6343 STOP ADDMOD NOT STOP CALLER PUSH9 0x747470733A2F2F6170 PUSH10 0x2E74696D656361707375 PUSH13 0x652E636F6D2F6D657461646174 PUSH2 0x2F7B PUSH10 0x647D0000000000000000 "
    },
    "gasEstimates": {
      "creation": {
        "codeDepositCost": "1317000",
        "executionCost": "infinite",
        "totalCost": "infinite"
      },
      "external": {
        "MAX_SUPPLY()": "250",
        "MINT_PRICE()": "272",
        "balanceOf(address,uint256)": "2680",
        "balanceOfBatch(address[],uint256[])": "infinite",
        "isApprovedForAll(address,address)": "infinite",
        "mint(uint256,uint256)": "infinite",
        "name()": "infinite",
        "owner()": "2397",
        "renounceOwnership()": "infinite",
        "royaltyInfo(uint256,uint256)": "5003",
        "safeBatchTransferFrom(address,address,uint256[],uint256[],bytes)": "infinite",
        "safeTransferFrom(address,address,uint256,uint256,bytes)": "infinite",
        "setApprovalForAll(address,bool)": "26701",
        "setURI(string)": "infinite",
        "supportsInterface(bytes4)": "infinite",
        "symbol()": "infinite",
        "totalSupply(uint256)": "2491",
        "transferOwnership(address)": "28406",
        "treasury()": "2404",
        "uri(uint256)": "infinite",
        "withdraw()": "infinite"
      }
    },
    "methodIdentifiers": {
      "MAX_SUPPLY()": "32cb6b0c",
      "MINT_PRICE()": "c002d23d",
      "balanceOf(address,uint256)": "00fdd58e",
      "balanceOfBatch(address[],uint256[])": "4e1273f4",
      "isApprovedForAll(address,address)": "e985e9c5",
      "mint(uint256,uint256)": "1b2ef1ca",
      "name()": "06fdde03",
      "owner()": "8da5cb5b",
      "renounceOwnership()": "715018a6",
      "royaltyInfo(uint256,uint256)": "2a55205a",
      "safeBatchTransferFrom(address,address,uint256[],uint256[],bytes)": "2eb2c2d6",
      "safeTransferFrom(address,address,uint256,uint256,bytes)": "f242432a",
      "setApprovalForAll(address,bool)": "a22cb465",
      "setURI(string)": "02fe5305",
      "supportsInterface(bytes4)": "01ffc9a7",
      "symbol()": "95d89b41",
      "totalSupply(uint256)": "bd85b039",
      "transferOwnership(address)": "f2fde38b",
      "treasury()": "61d027b3",
      "uri(uint256)": "0e89341c",
      "withdraw()": "3ccfd60b"
    }
  },
  "storageLayout": {
    "storage": [
      {
        "astId": 353,
        "contract": "TimeCapsule.sol:TimeCapsule",
        "label": "_balances",
        "offset": 0,
        "slot": "0",
        "type": "t_mapping(t_uint256,t_mapping(t_address,t_uint256))"
      },
      {
        "astId": 359,
        "contract": "TimeCapsule.sol:TimeCapsule",
        "label": "_operatorApprovals",
        "offset": 0,
        "slot": "1",
        "type": "t_mapping(t_address,t_mapping(t_address,t_bool))"
      },
      {
        "astId": 361,
        "contract": "TimeCapsule.sol:TimeCapsule",
        "label": "_uri",
        "offset": 0,
        "slot": "2",
        "type": "t_string_storage"
      },
      {
        "astId": 172,
        "contract": "TimeCapsule.sol:TimeCapsule",
        "label": "_owner",
        "offset": 0,
        "slot": "3",
        "type": "t_address"
      },
      {
        "astId": 1248,
        "contract": "TimeCapsule.sol:TimeCapsule",
        "label": "_defaultRoyaltyInfo",
        "offset": 0,
        "slot": "4",
        "type": "t_struct(RoyaltyInfo)1245_storage"
      },
      {
        "astId": 1253,
        "contract": "TimeCapsule.sol:TimeCapsule",
        "label": "_tokenRoyaltyInfo",
        "offset": 0,
        "slot": "5",
        "type": "t_mapping(t_uint256,t_struct(RoyaltyInfo)1245_storage)"
      },
      {
        "astId": 17,
        "contract": "TimeCapsule.sol:TimeCapsule",
        "label": "name",
        "offset": 0,
        "slot": "6",
        "type": "t_string_storage"
      },
      {
        "astId": 20,
        "contract": "TimeCapsule.sol:TimeCapsule",
        "label": "symbol",
        "offset": 0,
        "slot": "7",
        "type": "t_string_storage"
      },
      {
        "astId": 32,
        "contract": "TimeCapsule.sol:TimeCapsule",
        "label": "treasury",
        "offset": 0,
        "slot": "8",
        "type": "t_address_payable"
      },
      {
        "astId": 36,
        "contract": "TimeCapsule.sol:TimeCapsule",
        "label": "totalSupply",
        "offset": 0,
        "slot": "9",
        "type": "t_mapping(t_uint256,t_uint256)"
      }
    ],
    "types": {
      "t_address": {
        "encoding": "inplace",
        "label": "address",
        "numberOfBytes": "20"
      },
      "t_address_payable": {
        "encoding": "inplace",
        "label": "address payable",
        "numberOfBytes": "20"
      },
      "t_bool": {
        "encoding": "inplace",
        "label": "bool",
        "numberOfBytes": "1"
      },
      "t_mapping(t_address,t_bool)": {
        "encoding": "mapping",
        "key": "t_address",
        "label": "mapping(address => bool)",
        "numberOfBytes": "32",
        "value": "t_bool"
      },
      "t_mapping(t_address,t_mapping(t_address,t_bool))": {
        "encoding": "mapping",
        "key": "t_address",
        "label": "mapping(address => mapping(address => bool))",
        "numberOfBytes": "32",
        "value": "t_mapping(t_address,t_bool)"
      },
      "t_mapping(t_address,t_uint256)": {
        "encoding": "mapping",
        "key": "t_address",
        "label": "mapping(address => uint256)",
        "numberOfBytes": "32",
        "value": "t_uint256"
      },
      "t_mapping(t_uint256,t_mapping(t_address,t_uint256))": {
        "encoding": "mapping",
        "key": "t_uint256",
        "label": "mapping(uint256 => mapping(address => uint256))",
        "numberOfBytes": "32",
        "value": "t_mapping(t_address,t_uint256)"
      },
      "t_mapping(t_uint256,t_struct(RoyaltyInfo)1245_storage)": {
        "encoding": "mapping",
        "key": "t_uint256",
        "label": "mapping(uint256 => struct ERC2981.RoyaltyInfo)",
        "numberOfBytes": "32",
        "value": "t_struct(RoyaltyInfo)1245_storage"
      },
      "t_mapping(t_uint256,t_uint256)": {
        "encoding": "mapping",
        "key": "t_uint256",
        "label": "mapping(uint256 => uint256)",
        "numberOfBytes": "32",
        "value": "t_uint256"
      },
      "t_string_storage": {
        "encoding": "bytes",
        "label": "string",
        "numberOfBytes": "32"
      },
      "t_struct(RoyaltyInfo)1245_storage": {
        "encoding": "inplace",
        "label": "struct ERC2981.RoyaltyInfo",
        "members": [
          {
            "astId": 1242,
            "contract": "TimeCapsule.sol:TimeCapsule",
            "label": "receiver",
            "offset": 0,
            "slot": "0",
            "type": "t_address"
          },
          {
            "astId": 1244,
            "contract": "TimeCapsule.sol:TimeCapsule",
            "label": "royaltyFraction",
            "offset": 20,
            "slot": "0",
            "type": "t_uint96"
          }
        ],
        "numberOfBytes": "32"
      },
      "t_uint256": {
        "encoding": "inplace",
        "label": "uint256",
        "numberOfBytes": "32"
      },
      "t_uint96": {
        "encoding": "inplace",
        "label": "uint96",
        "numberOfBytes": "12"
      }
    }
  },
  "userdoc": {
    "kind": "user",
    "methods": {},
    "version": 1
  }
}